{
  "abi": [
    {
      "inputs": [
        {
          "internalType": "address",
          "name": "owner",
          "type": "address"
        },
        {
          "internalType": "string",
          "name": "name",
          "type": "string"
        },
        {
          "internalType": "string",
          "name": "desc",
          "type": "string"
        },
        {
          "internalType": "uint256",
          "name": "target",
          "type": "uint256"
        },
        {
          "internalType": "uint256",
          "name": "end_date",
          "type": "uint256"
        },
        {
          "internalType": "string",
          "name": "image_add",
          "type": "string"
        },
        {
          "internalType": "string[]",
          "name": "types_arr",
          "type": "string[]"
        },
        {
          "internalType": "uint256[]",
          "name": "amounts_to_donate",
          "type": "uint256[]"
        },
        {
          "internalType": "address",
          "name": "app",
          "type": "address"
        }
      ],
      "stateMutability": "nonpayable",
      "type": "constructor"
    },
    {
      "inputs": [
        {
          "internalType": "uint256",
          "name": "amount",
          "type": "uint256"
        }
      ],
      "name": "add_fix_amount",
      "outputs": [],
      "stateMutability": "nonpayable",
      "type": "function"
    },
    {
      "inputs": [
        {
          "internalType": "string",
          "name": "project_type",
          "type": "string"
        }
      ],
      "name": "add_type",
      "outputs": [],
      "stateMutability": "nonpayable",
      "type": "function"
    },
    {
      "inputs": [
        {
          "internalType": "string",
          "name": "picture_url",
          "type": "string"
        }
      ],
      "name": "change_picture",
      "outputs": [],
      "stateMutability": "nonpayable",
      "type": "function"
    },
    {
      "inputs": [
        {
          "internalType": "string",
          "name": "new_desc",
          "type": "string"
        }
      ],
      "name": "change_project_description",
      "outputs": [],
      "stateMutability": "nonpayable",
      "type": "function"
    },
    {
      "inputs": [
        {
          "internalType": "string",
          "name": "new_name",
          "type": "string"
        }
      ],
      "name": "change_project_name",
      "outputs": [],
      "stateMutability": "nonpayable",
      "type": "function"
    },
    {
      "inputs": [],
      "name": "created",
      "outputs": [
        {
          "internalType": "uint256",
          "name": "",
          "type": "uint256"
        }
      ],
      "stateMutability": "view",
      "type": "function"
    },
    {
      "inputs": [],
      "name": "date_limit",
      "outputs": [
        {
          "internalType": "uint256",
          "name": "",
          "type": "uint256"
        }
      ],
      "stateMutability": "view",
      "type": "function"
    },
    {
      "inputs": [
        {
          "internalType": "uint256",
          "name": "",
          "type": "uint256"
        }
      ],
      "name": "fixed_amounts_to_donate",
      "outputs": [
        {
          "internalType": "uint256",
          "name": "",
          "type": "uint256"
        }
      ],
      "stateMutability": "view",
      "type": "function"
    },
    {
      "inputs": [
        {
          "internalType": "string",
          "name": "funder_name",
          "type": "string"
        },
        {
          "internalType": "bool",
          "name": "is_anonymous",
          "type": "bool"
        }
      ],
      "name": "fund_project",
      "outputs": [],
      "stateMutability": "payable",
      "type": "function"
    },
    {
      "inputs": [],
      "name": "get_curr_total_funds",
      "outputs": [
        {
          "internalType": "uint256",
          "name": "",
          "type": "uint256"
        }
      ],
      "stateMutability": "view",
      "type": "function"
    },
    {
      "inputs": [],
      "name": "get_fixed_amounts",
      "outputs": [
        {
          "internalType": "uint256[]",
          "name": "",
          "type": "uint256[]"
        }
      ],
      "stateMutability": "view",
      "type": "function"
    },
    {
      "inputs": [],
      "name": "get_name_to_amount",
      "outputs": [
        {
          "internalType": "string[]",
          "name": "",
          "type": "string[]"
        },
        {
          "internalType": "uint256[]",
          "name": "",
          "type": "uint256[]"
        }
      ],
      "stateMutability": "view",
      "type": "function"
    },
    {
      "inputs": [],
      "name": "get_project_types",
      "outputs": [
        {
          "internalType": "string[]",
          "name": "",
          "type": "string[]"
        }
      ],
      "stateMutability": "view",
      "type": "function"
    },
    {
      "inputs": [],
      "name": "image_url",
      "outputs": [
        {
          "internalType": "string",
          "name": "",
          "type": "string"
        }
      ],
      "stateMutability": "view",
      "type": "function"
    },
    {
      "inputs": [],
      "name": "is_closed",
      "outputs": [
        {
          "internalType": "bool",
          "name": "",
          "type": "bool"
        }
      ],
      "stateMutability": "view",
      "type": "function"
    },
    {
      "inputs": [],
      "name": "is_fail",
      "outputs": [
        {
          "internalType": "bool",
          "name": "",
          "type": "bool"
        }
      ],
      "stateMutability": "view",
      "type": "function"
    },
    {
      "inputs": [],
      "name": "is_success",
      "outputs": [
        {
          "internalType": "bool",
          "name": "",
          "type": "bool"
        }
      ],
      "stateMutability": "view",
      "type": "function"
    },
    {
      "inputs": [],
      "name": "max_recorded_amount",
      "outputs": [
        {
          "internalType": "uint256",
          "name": "",
          "type": "uint256"
        }
      ],
      "stateMutability": "view",
      "type": "function"
    },
    {
      "inputs": [],
      "name": "owner_withdraw",
      "outputs": [],
      "stateMutability": "nonpayable",
      "type": "function"
    },
    {
      "inputs": [],
      "name": "project_description",
      "outputs": [
        {
          "internalType": "string",
          "name": "",
          "type": "string"
        }
      ],
      "stateMutability": "view",
      "type": "function"
    },
    {
      "inputs": [],
      "name": "project_name",
      "outputs": [
        {
          "internalType": "string",
          "name": "",
          "type": "string"
        }
      ],
      "stateMutability": "view",
      "type": "function"
    },
    {
      "inputs": [
        {
          "internalType": "uint256",
          "name": "amount",
          "type": "uint256"
        }
      ],
      "name": "remove_fix_amount",
      "outputs": [],
      "stateMutability": "nonpayable",
      "type": "function"
    },
    {
      "inputs": [
        {
          "internalType": "string",
          "name": "project_type",
          "type": "string"
        }
      ],
      "name": "remove_type",
      "outputs": [],
      "stateMutability": "nonpayable",
      "type": "function"
    },
    {
      "inputs": [],
      "name": "return_funds_to_funders",
      "outputs": [],
      "stateMutability": "nonpayable",
      "type": "function"
    },
    {
      "inputs": [
        {
          "internalType": "uint256",
          "name": "new_time",
          "type": "uint256"
        }
      ],
      "name": "set_time_limit",
      "outputs": [],
      "stateMutability": "nonpayable",
      "type": "function"
    },
    {
      "inputs": [],
      "name": "target_amount",
      "outputs": [
        {
          "internalType": "uint256",
          "name": "",
          "type": "uint256"
        }
      ],
      "stateMutability": "view",
      "type": "function"
    },
    {
      "inputs": [
        {
          "internalType": "uint256",
          "name": "",
          "type": "uint256"
        }
      ],
      "name": "types",
      "outputs": [
        {
          "internalType": "string",
          "name": "",
          "type": "string"
        }
      ],
      "stateMutability": "view",
      "type": "function"
    }
  ],
  "bytecode": "60806040523480156200001157600080fd5b50604051620020a9380380620020a98339810160408190526200003491620004c7565b600080546001600160a01b0319166001600160a01b038b161790558751620000649060069060208b019062000104565b5086516200007a9060079060208a019062000104565b506008869055600985905583516200009a90600b90602087019062000104565b508251620000b090600e90602086019062000193565b508151620000c690600f906020850190620001f3565b50600180546001600160a01b0319166001600160a01b0392909216919091179055505042600c555050600d805460ff19169055506200061e92505050565b8280546200011290620005e2565b90600052602060002090601f01602090048101928262000136576000855562000181565b82601f106200015157805160ff191683800117855562000181565b8280016001018555821562000181579182015b828111156200018157825182559160200191906001019062000164565b506200018f92915062000230565b5090565b828054828255906000526020600020908101928215620001e5579160200282015b82811115620001e55782518051620001d491849160209091019062000104565b5091602001919060010190620001b4565b506200018f92915062000247565b8280548282559060005260206000209081019282156200018157916020028201828111156200018157825182559160200191906001019062000164565b5b808211156200018f576000815560010162000231565b808211156200018f5760006200025e828262000268565b5060010162000247565b5080546200027690620005e2565b6000825580601f1062000287575050565b601f016020900490600052602060002090810190620002a7919062000230565b50565b80516001600160a01b0381168114620002c257600080fd5b919050565b634e487b7160e01b600052604160045260246000fd5b604051601f8201601f191681016001600160401b0381118282101715620003085762000308620002c7565b604052919050565b600082601f8301126200032257600080fd5b81516001600160401b038111156200033e576200033e620002c7565b602062000354601f8301601f19168201620002dd565b82815285828487010111156200036957600080fd5b60005b83811015620003895785810183015182820184015282016200036c565b838111156200039b5760008385840101525b5095945050505050565b60006001600160401b03821115620003c157620003c1620002c7565b5060051b60200190565b600082601f830112620003dd57600080fd5b81516020620003f6620003f083620003a5565b620002dd565b82815260059290921b840181019181810190868411156200041657600080fd5b8286015b848110156200045a5780516001600160401b038111156200043b5760008081fd5b6200044b8986838b010162000310565b8452509183019183016200041a565b509695505050505050565b600082601f8301126200047757600080fd5b815160206200048a620003f083620003a5565b82815260059290921b84018101918181019086841115620004aa57600080fd5b8286015b848110156200045a5780518352918301918301620004ae565b60008060008060008060008060006101208a8c031215620004e757600080fd5b620004f28a620002aa565b60208b01519099506001600160401b03808211156200051057600080fd5b6200051e8d838e0162000310565b995060408c01519150808211156200053557600080fd5b620005438d838e0162000310565b985060608c0151975060808c0151965060a08c01519150808211156200056857600080fd5b620005768d838e0162000310565b955060c08c01519150808211156200058d57600080fd5b6200059b8d838e01620003cb565b945060e08c0151915080821115620005b257600080fd5b50620005c18c828d0162000465565b925050620005d36101008b01620002aa565b90509295985092959850929598565b600181811c90821680620005f757607f821691505b6020821081036200061857634e487b7160e01b600052602260045260246000fd5b50919050565b611a7b806200062e6000396000f3fe60806040526004361061019c5760003560e01c8063824f4baf116100ec578063cefbfa361161008a578063e68ec6b711610064578063e68ec6b71461043d578063ece241cb14610460578063f0528f8314610476578063fa1125671461049657600080fd5b8063cefbfa36146103ee578063cfd9866b1461040e578063dc9c9f331461042857600080fd5b8063b774a6c6116100c6578063b774a6c614610384578063bc65fc5f146103a4578063bcccba14146103b9578063c6b0ffd0146103d957600080fd5b8063824f4baf146103395780638c2342981461034e5780639f0826c41461036457600080fd5b806334ef39f111610159578063539e366c11610133578063539e366c146102d057806363391f8a146102f05780636bbeefea1461030357806381e0ffae1461032357600080fd5b806334ef39f11461027457806345f93331146102895780634eb2b29d146102ab57600080fd5b80630ffffec4146101a15780631fd47b7e146101cc57806322776206146101ee57806326e56d5e1461020e5780632b85eb5f1461022e578063325a19f114610250575b600080fd5b3480156101ad57600080fd5b506101b66104a9565b6040516101c3919061155b565b60405180910390f35b3480156101d857600080fd5b506101ec6101e7366004611618565b610501565b005b3480156101fa57600080fd5b506101ec610209366004611618565b61056e565b34801561021a57600080fd5b506101ec610229366004611618565b6105ce565b34801561023a57600080fd5b506102436106c6565b6040516101c391906116fa565b34801561025c57600080fd5b50610266600c5481565b6040519081526020016101c3565b34801561028057600080fd5b506101ec61079f565b34801561029557600080fd5b5061029e6108f4565b6040516101c3919061170d565b3480156102b757600080fd5b506102c0610982565b60405190151581526020016101c3565b3480156102dc57600080fd5b506101ec6102eb366004611618565b6109af565b3480156102fc57600080fd5b5047610266565b34801561030f57600080fd5b506101ec61031e366004611720565b610a0f565b34801561032f57600080fd5b5061026660085481565b34801561034557600080fd5b5061029e610a61565b34801561035a57600080fd5b5061026660095481565b34801561037057600080fd5b506101ec61037f366004611618565b610a6e565b34801561039057600080fd5b506101ec61039f366004611720565b610c38565b3480156103b057600080fd5b506101ec610d45565b3480156103c557600080fd5b506102666103d4366004611720565b610efa565b3480156103e557600080fd5b506102c0610f1b565b3480156103fa57600080fd5b5061029e610409366004611720565b610f31565b34801561041a57600080fd5b50600d546102c09060ff1681565b34801561043457600080fd5b5061029e610f5c565b34801561044957600080fd5b50610452610f69565b6040516101c3929190611739565b34801561046c57600080fd5b50610266600a5481565b34801561048257600080fd5b506101ec610491366004611720565b611172565b6101ec6104a4366004611775565b6111f4565b6060600f8054806020026020016040519081016040528092919081815260200182805480156104f757602002820191906000526020600020905b8154815260200190600101908083116104e3575b5050505050905090565b600d5460ff161561052d5760405162461bcd60e51b8152600401610524906117c7565b60405180910390fd5b6000546001600160a01b031633146105575760405162461bcd60e51b8152600401610524906117f7565b805161056a9060079060208401906113cf565b5050565b600d5460ff16156105915760405162461bcd60e51b8152600401610524906117c7565b6000546001600160a01b031633146105bb5760405162461bcd60e51b8152600401610524906117f7565b805161056a90600b9060208401906113cf565b600d5460ff16156105f15760405162461bcd60e51b8152600401610524906117c7565b6000546001600160a01b0316331461061b5760405162461bcd60e51b8152600401610524906117f7565b600e8054600181018255600091909152815161065e917fbb7b4a454dc3493923482f07822329ed19e8244eff582cc204f8554c3620c3fd019060208401906113cf565b5060015460405163302d379360e11b81526001600160a01b039091169063605a6f2690610691908490309060040161182e565b600060405180830381600087803b1580156106ab57600080fd5b505af11580156106bf573d6000803e3d6000fd5b5050505050565b6060600e805480602002602001604051908101604052809291908181526020016000905b8282101561079657838290600052602060002001805461070990611858565b80601f016020809104026020016040519081016040528092919081815260200182805461073590611858565b80156107825780601f1061075757610100808354040283529160200191610782565b820191906000526020600020905b81548152906001019060200180831161076557829003601f168201915b5050505050815260200190600101906106ea565b50505050905090565b600d5460ff16156107c25760405162461bcd60e51b8152600401610524906117c7565b306001600160a01b031663c6b0ffd06040518163ffffffff1660e01b8152600401602060405180830381865afa158015610800573d6000803e3d6000fd5b505050506040513d601f19601f820116820180604052508101906108249190611892565b1515600114801561083f57506000546001600160a01b031633145b6108aa5760405162461bcd60e51b815260206004820152603660248201527f50726f6a65637420686173206e6f742073756363656564207965742c206f72206044820152753cb7ba9030b932903737ba103a34329037bbb732b91760511b6064820152608401610524565b600080546040516001600160a01b03909116914780156108fc02929091818181858888f193505050501580156108e4573d6000803e3d6000fd5b50600d805460ff19166001179055565b6007805461090190611858565b80601f016020809104026020016040519081016040528092919081815260200182805461092d90611858565b801561097a5780601f1061094f5761010080835404028352916020019161097a565b820191906000526020600020905b81548152906001019060200180831161095d57829003601f168201915b505050505081565b6000804790504260095410801561099a575060085481105b156109a757600191505090565b600091505090565b600d5460ff16156109d25760405162461bcd60e51b8152600401610524906117c7565b6000546001600160a01b031633146109fc5760405162461bcd60e51b8152600401610524906117f7565b805161056a9060069060208401906113cf565b600d5460ff1615610a325760405162461bcd60e51b8152600401610524906117c7565b6000546001600160a01b03163314610a5c5760405162461bcd60e51b8152600401610524906117f7565b600955565b600b805461090190611858565b600d5460ff1615610a915760405162461bcd60e51b8152600401610524906117c7565b6000546001600160a01b03163314610abb5760405162461bcd60e51b8152600401610524906117f7565b60005b600e5481101561056a578180519060200120600e8281548110610ae357610ae36118af565b90600052602060002001604051610afa91906118c5565b604051809103902003610c2657600e54600090610b199060019061194d565b600154600e80549293506001600160a01b03909116916311357471919085908110610b4657610b466118af565b90600052602060002001306040518363ffffffff1660e01b8152600401610b6e929190611964565b600060405180830381600087803b158015610b8857600080fd5b505af1158015610b9c573d6000803e3d6000fd5b50505050600e8181548110610bb357610bb36118af565b90600052602060002001600e8381548110610bd057610bd06118af565b90600052602060002001908054610be690611858565b610bf1929190611453565b50600e805480610c0357610c036119fe565b600190038181906000526020600020016000610c1f91906114ce565b9055505050565b80610c3081611a14565b915050610abe565b600d5460ff1615610c5b5760405162461bcd60e51b8152600401610524906117c7565b6000546001600160a01b03163314610c855760405162461bcd60e51b8152600401610524906117f7565b60005b600f5481101561056a5781600f8281548110610ca657610ca66118af565b906000526020600020015403610d3357600f54600090610cc89060019061194d565b9050600f8181548110610cdd57610cdd6118af565b9060005260206000200154600f8381548110610cfb57610cfb6118af565b600091825260209091200155600f805480610d1857610d186119fe565b60019003818190600052602060002001600090559055505050565b80610d3d81611a14565b915050610c88565b600d5460ff1615610d685760405162461bcd60e51b8152600401610524906117c7565b306001600160a01b0316634eb2b29d6040518163ffffffff1660e01b8152600401602060405180830381865afa158015610da6573d6000803e3d6000fd5b505050506040513d601f19601f82011682018060405250810190610dca9190611892565b15156001148015610ddb5750600047115b610e465760405162461bcd60e51b815260206004820152603660248201527f50726f6a65637420686173206e6f74206661696c6564207965742c206f72206460448201527537b2b9b713ba103430bb329030b73c90333ab732399760511b6064820152608401610524565b60005b6002548110156108e45760028181548110610e6657610e666118af565b6000918252602082200154600280546001600160a01b03909216926108fc926004929086908110610e9957610e996118af565b60009182526020808320909101546001600160a01b03168352820192909252604090810182205490518115909302929091818181858888f19350505050158015610ee7573d6000803e3d6000fd5b5080610ef281611a14565b915050610e49565b600f8181548110610f0a57600080fd5b600091825260209091200154905081565b600854600090479081106109a757600191505090565b600e8181548110610f4157600080fd5b90600052602060002001600091509050805461090190611858565b6006805461090190611858565b606080600060028054905067ffffffffffffffff811115610f8c57610f8c611575565b604051908082528060200260200182016040528015610fbf57816020015b6060815260200190600190039081610faa5790505b5060025490915060009067ffffffffffffffff811115610fe157610fe1611575565b60405190808252806020026020018201604052801561100a578160200160208202803683370190505b50905060005b600254811015611168576005600060028381548110611031576110316118af565b60009182526020808320909101546001600160a01b031683528201929092526040019020805461106090611858565b80601f016020809104026020016040519081016040528092919081815260200182805461108c90611858565b80156110d95780601f106110ae576101008083540402835291602001916110d9565b820191906000526020600020905b8154815290600101906020018083116110bc57829003601f168201915b50505050508382815181106110f0576110f06118af565b60200260200101819052506004600060028381548110611112576111126118af565b60009182526020808320909101546001600160a01b03168352820192909252604001902054825183908390811061114b5761114b6118af565b60209081029190910101528061116081611a14565b915050611010565b5090939092509050565b600d5460ff16156111955760405162461bcd60e51b8152600401610524906117c7565b6000546001600160a01b031633146111bf5760405162461bcd60e51b8152600401610524906117f7565b600f80546001810182556000919091527f8d1108e10bcb7c27dddfc02ed9d693a074039d026cf4ea4240b40f7d581ac8020155565b600d5460ff16156112175760405162461bcd60e51b8152600401610524906117c7565b306001600160a01b0316634eb2b29d6040518163ffffffff1660e01b8152600401602060405180830381865afa158015611255573d6000803e3d6000fd5b505050506040513d601f19601f820116820180604052508101906112799190611892565b156112c65760405162461bcd60e51b815260206004820152601860248201527f546869732070726f6a65637420776173206661696c65642e00000000000000006044820152606401610524565b33600090815260046020526040812080543492906112e5908490611a2d565b90915550503360009081526003602052604090205460ff1661135c576002805460018181019092557f405787fa12a823e0f2b7631cc41b3ba8828b3321ca811111fa75cd3aa3bb5ace0180546001600160a01b031916339081179091556000908152600360205260409020805460ff191690911790555b80156113a5576040805180820182526009815268416e6f6e796d6f757360b81b6020808301918252336000908152600590915292909220905161139f92906113cf565b506113c7565b33600090815260056020908152604090912083516113c5928501906113cf565b505b505047600a55565b8280546113db90611858565b90600052602060002090601f0160209004810192826113fd5760008555611443565b82601f1061141657805160ff1916838001178555611443565b82800160010185558215611443579182015b82811115611443578251825591602001919060010190611428565b5061144f92915061150b565b5090565b82805461145f90611858565b90600052602060002090601f0160209004810192826114815760008555611443565b82601f106114925780548555611443565b8280016001018555821561144357600052602060002091601f016020900482015b828111156114435782548255916001019190600101906114b3565b5080546114da90611858565b6000825580601f106114ea575050565b601f016020900490600052602060002090810190611508919061150b565b50565b5b8082111561144f576000815560010161150c565b600081518084526020808501945080840160005b8381101561155057815187529582019590820190600101611534565b509495945050505050565b60208152600061156e6020830184611520565b9392505050565b634e487b7160e01b600052604160045260246000fd5b600082601f83011261159c57600080fd5b813567ffffffffffffffff808211156115b7576115b7611575565b604051601f8301601f19908116603f011681019082821181831017156115df576115df611575565b816040528381528660208588010111156115f857600080fd5b836020870160208301376000602085830101528094505050505092915050565b60006020828403121561162a57600080fd5b813567ffffffffffffffff81111561164157600080fd5b61164d8482850161158b565b949350505050565b6000815180845260005b8181101561167b5760208185018101518683018201520161165f565b8181111561168d576000602083870101525b50601f01601f19169290920160200192915050565b600082825180855260208086019550808260051b84010181860160005b848110156116ed57601f198684030189526116db838351611655565b988401989250908301906001016116bf565b5090979650505050505050565b60208152600061156e60208301846116a2565b60208152600061156e6020830184611655565b60006020828403121561173257600080fd5b5035919050565b60408152600061174c60408301856116a2565b828103602084015261175e8185611520565b95945050505050565b801515811461150857600080fd5b6000806040838503121561178857600080fd5b823567ffffffffffffffff81111561179f57600080fd5b6117ab8582860161158b565b92505060208301356117bc81611767565b809150509250929050565b6020808252601690820152752a3434b990383937b532b1ba1034b99031b637b9b29760511b604082015260600190565b60208082526017908201527f4e656564206f776e6572207065726d697373696f6e732e000000000000000000604082015260600190565b6040815260006118416040830185611655565b905060018060a01b03831660208301529392505050565b600181811c9082168061186c57607f821691505b60208210810361188c57634e487b7160e01b600052602260045260246000fd5b50919050565b6000602082840312156118a457600080fd5b815161156e81611767565b634e487b7160e01b600052603260045260246000fd5b60008083546118d381611858565b600182811680156118eb57600181146118fc5761192b565b60ff1984168752828701945061192b565b8760005260208060002060005b858110156119225781548a820152908401908201611909565b50505082870194505b50929695505050505050565b634e487b7160e01b600052601160045260246000fd5b60008282101561195f5761195f611937565b500390565b60408152600080845461197681611858565b806040860152606060018084166000811461199857600181146119ac576119dd565b60ff198516888401526080880195506119dd565b8960005260208060002060005b868110156119d45781548b82018701529084019082016119b9565b8a018501975050505b505050506001600160a01b0394909416602093909301929092525092915050565b634e487b7160e01b600052603160045260246000fd5b600060018201611a2657611a26611937565b5060010190565b60008219821115611a4057611a40611937565b50019056fea2646970667358221220bd588810037a6f2f3abcb7a51f6723153a1112d8524f5192a324a005877dc8bd64736f6c634300080e0033",
  "bytecodeSha1": "db124eebe8837934941f6bfb1261a1f6f783e3b3",
  "compiler": {
    "evm_version": "istanbul",
    "optimizer": {
      "enabled": true,
      "runs": 200
    },
    "version": "0.8.14+commit.80d49f37"
  },
  "contractName": "Project",
  "language": "Solidity",
  "natspec": {
    "kind": "dev",
    "methods": {},
    "version": 1
  },
  "opcodes": "PUSH1 0x80 PUSH1 0x40 MSTORE PUSH1 0x4 CALLDATASIZE LT PUSH2 0x19C JUMPI PUSH1 0x0 CALLDATALOAD PUSH1 0xE0 SHR DUP1 PUSH4 0x824F4BAF GT PUSH2 0xEC JUMPI DUP1 PUSH4 0xCEFBFA36 GT PUSH2 0x8A JUMPI DUP1 PUSH4 0xE68EC6B7 GT PUSH2 0x64 JUMPI DUP1 PUSH4 0xE68EC6B7 EQ PUSH2 0x43D JUMPI DUP1 PUSH4 0xECE241CB EQ PUSH2 0x460 JUMPI DUP1 PUSH4 0xF0528F83 EQ PUSH2 0x476 JUMPI DUP1 PUSH4 0xFA112567 EQ PUSH2 0x496 JUMPI PUSH1 0x0 DUP1 REVERT JUMPDEST DUP1 PUSH4 0xCEFBFA36 EQ PUSH2 0x3EE JUMPI DUP1 PUSH4 0xCFD9866B EQ PUSH2 0x40E JUMPI DUP1 PUSH4 0xDC9C9F33 EQ PUSH2 0x428 JUMPI PUSH1 0x0 DUP1 REVERT JUMPDEST DUP1 PUSH4 0xB774A6C6 GT PUSH2 0xC6 JUMPI DUP1 PUSH4 0xB774A6C6 EQ PUSH2 0x384 JUMPI DUP1 PUSH4 0xBC65FC5F EQ PUSH2 0x3A4 JUMPI DUP1 PUSH4 0xBCCCBA14 EQ PUSH2 0x3B9 JUMPI DUP1 PUSH4 0xC6B0FFD0 EQ PUSH2 0x3D9 JUMPI PUSH1 0x0 DUP1 REVERT JUMPDEST DUP1 PUSH4 0x824F4BAF EQ PUSH2 0x339 JUMPI DUP1 PUSH4 0x8C234298 EQ PUSH2 0x34E JUMPI DUP1 PUSH4 0x9F0826C4 EQ PUSH2 0x364 JUMPI PUSH1 0x0 DUP1 REVERT JUMPDEST DUP1 PUSH4 0x34EF39F1 GT PUSH2 0x159 JUMPI DUP1 PUSH4 0x539E366C GT PUSH2 0x133 JUMPI DUP1 PUSH4 0x539E366C EQ PUSH2 0x2D0 JUMPI DUP1 PUSH4 0x63391F8A EQ PUSH2 0x2F0 JUMPI DUP1 PUSH4 0x6BBEEFEA EQ PUSH2 0x303 JUMPI DUP1 PUSH4 0x81E0FFAE EQ PUSH2 0x323 JUMPI PUSH1 0x0 DUP1 REVERT JUMPDEST DUP1 PUSH4 0x34EF39F1 EQ PUSH2 0x274 JUMPI DUP1 PUSH4 0x45F93331 EQ PUSH2 0x289 JUMPI DUP1 PUSH4 0x4EB2B29D EQ PUSH2 0x2AB JUMPI PUSH1 0x0 DUP1 REVERT JUMPDEST DUP1 PUSH4 0xFFFFEC4 EQ PUSH2 0x1A1 JUMPI DUP1 PUSH4 0x1FD47B7E EQ PUSH2 0x1CC JUMPI DUP1 PUSH4 0x22776206 EQ PUSH2 0x1EE JUMPI DUP1 PUSH4 0x26E56D5E EQ PUSH2 0x20E JUMPI DUP1 PUSH4 0x2B85EB5F EQ PUSH2 0x22E JUMPI DUP1 PUSH4 0x325A19F1 EQ PUSH2 0x250 JUMPI JUMPDEST PUSH1 0x0 DUP1 REVERT JUMPDEST CALLVALUE DUP1 ISZERO PUSH2 0x1AD JUMPI PUSH1 0x0 DUP1 REVERT JUMPDEST POP PUSH2 0x1B6 PUSH2 0x4A9 JUMP JUMPDEST PUSH1 0x40 MLOAD PUSH2 0x1C3 SWAP2 SWAP1 PUSH2 0x155B JUMP JUMPDEST PUSH1 0x40 MLOAD DUP1 SWAP2 SUB SWAP1 RETURN JUMPDEST CALLVALUE DUP1 ISZERO PUSH2 0x1D8 JUMPI PUSH1 0x0 DUP1 REVERT JUMPDEST POP PUSH2 0x1EC PUSH2 0x1E7 CALLDATASIZE PUSH1 0x4 PUSH2 0x1618 JUMP JUMPDEST PUSH2 0x501 JUMP JUMPDEST STOP JUMPDEST CALLVALUE DUP1 ISZERO PUSH2 0x1FA JUMPI PUSH1 0x0 DUP1 REVERT JUMPDEST POP PUSH2 0x1EC PUSH2 0x209 CALLDATASIZE PUSH1 0x4 PUSH2 0x1618 JUMP JUMPDEST PUSH2 0x56E JUMP JUMPDEST CALLVALUE DUP1 ISZERO PUSH2 0x21A JUMPI PUSH1 0x0 DUP1 REVERT JUMPDEST POP PUSH2 0x1EC PUSH2 0x229 CALLDATASIZE PUSH1 0x4 PUSH2 0x1618 JUMP JUMPDEST PUSH2 0x5CE JUMP JUMPDEST CALLVALUE DUP1 ISZERO PUSH2 0x23A JUMPI PUSH1 0x0 DUP1 REVERT JUMPDEST POP PUSH2 0x243 PUSH2 0x6C6 JUMP JUMPDEST PUSH1 0x40 MLOAD PUSH2 0x1C3 SWAP2 SWAP1 PUSH2 0x16FA JUMP JUMPDEST CALLVALUE DUP1 ISZERO PUSH2 0x25C JUMPI PUSH1 0x0 DUP1 REVERT JUMPDEST POP PUSH2 0x266 PUSH1 0xC SLOAD DUP2 JUMP JUMPDEST PUSH1 0x40 MLOAD SWAP1 DUP2 MSTORE PUSH1 0x20 ADD PUSH2 0x1C3 JUMP JUMPDEST CALLVALUE DUP1 ISZERO PUSH2 0x280 JUMPI PUSH1 0x0 DUP1 REVERT JUMPDEST POP PUSH2 0x1EC PUSH2 0x79F JUMP JUMPDEST CALLVALUE DUP1 ISZERO PUSH2 0x295 JUMPI PUSH1 0x0 DUP1 REVERT JUMPDEST POP PUSH2 0x29E PUSH2 0x8F4 JUMP JUMPDEST PUSH1 0x40 MLOAD PUSH2 0x1C3 SWAP2 SWAP1 PUSH2 0x170D JUMP JUMPDEST CALLVALUE DUP1 ISZERO PUSH2 0x2B7 JUMPI PUSH1 0x0 DUP1 REVERT JUMPDEST POP PUSH2 0x2C0 PUSH2 0x982 JUMP JUMPDEST PUSH1 0x40 MLOAD SWAP1 ISZERO ISZERO DUP2 MSTORE PUSH1 0x20 ADD PUSH2 0x1C3 JUMP JUMPDEST CALLVALUE DUP1 ISZERO PUSH2 0x2DC JUMPI PUSH1 0x0 DUP1 REVERT JUMPDEST POP PUSH2 0x1EC PUSH2 0x2EB CALLDATASIZE PUSH1 0x4 PUSH2 0x1618 JUMP JUMPDEST PUSH2 0x9AF JUMP JUMPDEST CALLVALUE DUP1 ISZERO PUSH2 0x2FC JUMPI PUSH1 0x0 DUP1 REVERT JUMPDEST POP SELFBALANCE PUSH2 0x266 JUMP JUMPDEST CALLVALUE DUP1 ISZERO PUSH2 0x30F JUMPI PUSH1 0x0 DUP1 REVERT JUMPDEST POP PUSH2 0x1EC PUSH2 0x31E CALLDATASIZE PUSH1 0x4 PUSH2 0x1720 JUMP JUMPDEST PUSH2 0xA0F JUMP JUMPDEST CALLVALUE DUP1 ISZERO PUSH2 0x32F JUMPI PUSH1 0x0 DUP1 REVERT JUMPDEST POP PUSH2 0x266 PUSH1 0x8 SLOAD DUP2 JUMP JUMPDEST CALLVALUE DUP1 ISZERO PUSH2 0x345 JUMPI PUSH1 0x0 DUP1 REVERT JUMPDEST POP PUSH2 0x29E PUSH2 0xA61 JUMP JUMPDEST CALLVALUE DUP1 ISZERO PUSH2 0x35A JUMPI PUSH1 0x0 DUP1 REVERT JUMPDEST POP PUSH2 0x266 PUSH1 0x9 SLOAD DUP2 JUMP JUMPDEST CALLVALUE DUP1 ISZERO PUSH2 0x370 JUMPI PUSH1 0x0 DUP1 REVERT JUMPDEST POP PUSH2 0x1EC PUSH2 0x37F CALLDATASIZE PUSH1 0x4 PUSH2 0x1618 JUMP JUMPDEST PUSH2 0xA6E JUMP JUMPDEST CALLVALUE DUP1 ISZERO PUSH2 0x390 JUMPI PUSH1 0x0 DUP1 REVERT JUMPDEST POP PUSH2 0x1EC PUSH2 0x39F CALLDATASIZE PUSH1 0x4 PUSH2 0x1720 JUMP JUMPDEST PUSH2 0xC38 JUMP JUMPDEST CALLVALUE DUP1 ISZERO PUSH2 0x3B0 JUMPI PUSH1 0x0 DUP1 REVERT JUMPDEST POP PUSH2 0x1EC PUSH2 0xD45 JUMP JUMPDEST CALLVALUE DUP1 ISZERO PUSH2 0x3C5 JUMPI PUSH1 0x0 DUP1 REVERT JUMPDEST POP PUSH2 0x266 PUSH2 0x3D4 CALLDATASIZE PUSH1 0x4 PUSH2 0x1720 JUMP JUMPDEST PUSH2 0xEFA JUMP JUMPDEST CALLVALUE DUP1 ISZERO PUSH2 0x3E5 JUMPI PUSH1 0x0 DUP1 REVERT JUMPDEST POP PUSH2 0x2C0 PUSH2 0xF1B JUMP JUMPDEST CALLVALUE DUP1 ISZERO PUSH2 0x3FA JUMPI PUSH1 0x0 DUP1 REVERT JUMPDEST POP PUSH2 0x29E PUSH2 0x409 CALLDATASIZE PUSH1 0x4 PUSH2 0x1720 JUMP JUMPDEST PUSH2 0xF31 JUMP JUMPDEST CALLVALUE DUP1 ISZERO PUSH2 0x41A JUMPI PUSH1 0x0 DUP1 REVERT JUMPDEST POP PUSH1 0xD SLOAD PUSH2 0x2C0 SWAP1 PUSH1 0xFF AND DUP2 JUMP JUMPDEST CALLVALUE DUP1 ISZERO PUSH2 0x434 JUMPI PUSH1 0x0 DUP1 REVERT JUMPDEST POP PUSH2 0x29E PUSH2 0xF5C JUMP JUMPDEST CALLVALUE DUP1 ISZERO PUSH2 0x449 JUMPI PUSH1 0x0 DUP1 REVERT JUMPDEST POP PUSH2 0x452 PUSH2 0xF69 JUMP JUMPDEST PUSH1 0x40 MLOAD PUSH2 0x1C3 SWAP3 SWAP2 SWAP1 PUSH2 0x1739 JUMP JUMPDEST CALLVALUE DUP1 ISZERO PUSH2 0x46C JUMPI PUSH1 0x0 DUP1 REVERT JUMPDEST POP PUSH2 0x266 PUSH1 0xA SLOAD DUP2 JUMP JUMPDEST CALLVALUE DUP1 ISZERO PUSH2 0x482 JUMPI PUSH1 0x0 DUP1 REVERT JUMPDEST POP PUSH2 0x1EC PUSH2 0x491 CALLDATASIZE PUSH1 0x4 PUSH2 0x1720 JUMP JUMPDEST PUSH2 0x1172 JUMP JUMPDEST PUSH2 0x1EC PUSH2 0x4A4 CALLDATASIZE PUSH1 0x4 PUSH2 0x1775 JUMP JUMPDEST PUSH2 0x11F4 JUMP JUMPDEST PUSH1 0x60 PUSH1 0xF DUP1 SLOAD DUP1 PUSH1 0x20 MUL PUSH1 0x20 ADD PUSH1 0x40 MLOAD SWAP1 DUP2 ADD PUSH1 0x40 MSTORE DUP1 SWAP3 SWAP2 SWAP1 DUP2 DUP2 MSTORE PUSH1 0x20 ADD DUP3 DUP1 SLOAD DUP1 ISZERO PUSH2 0x4F7 JUMPI PUSH1 0x20 MUL DUP3 ADD SWAP2 SWAP1 PUSH1 0x0 MSTORE PUSH1 0x20 PUSH1 0x0 KECCAK256 SWAP1 JUMPDEST DUP2 SLOAD DUP2 MSTORE PUSH1 0x20 ADD SWAP1 PUSH1 0x1 ADD SWAP1 DUP1 DUP4 GT PUSH2 0x4E3 JUMPI JUMPDEST POP POP POP POP POP SWAP1 POP SWAP1 JUMP JUMPDEST PUSH1 0xD SLOAD PUSH1 0xFF AND ISZERO PUSH2 0x52D JUMPI PUSH1 0x40 MLOAD PUSH3 0x461BCD PUSH1 0xE5 SHL DUP2 MSTORE PUSH1 0x4 ADD PUSH2 0x524 SWAP1 PUSH2 0x17C7 JUMP JUMPDEST PUSH1 0x40 MLOAD DUP1 SWAP2 SUB SWAP1 REVERT JUMPDEST PUSH1 0x0 SLOAD PUSH1 0x1 PUSH1 0x1 PUSH1 0xA0 SHL SUB AND CALLER EQ PUSH2 0x557 JUMPI PUSH1 0x40 MLOAD PUSH3 0x461BCD PUSH1 0xE5 SHL DUP2 MSTORE PUSH1 0x4 ADD PUSH2 0x524 SWAP1 PUSH2 0x17F7 JUMP JUMPDEST DUP1 MLOAD PUSH2 0x56A SWAP1 PUSH1 0x7 SWAP1 PUSH1 0x20 DUP5 ADD SWAP1 PUSH2 0x13CF JUMP JUMPDEST POP POP JUMP JUMPDEST PUSH1 0xD SLOAD PUSH1 0xFF AND ISZERO PUSH2 0x591 JUMPI PUSH1 0x40 MLOAD PUSH3 0x461BCD PUSH1 0xE5 SHL DUP2 MSTORE PUSH1 0x4 ADD PUSH2 0x524 SWAP1 PUSH2 0x17C7 JUMP JUMPDEST PUSH1 0x0 SLOAD PUSH1 0x1 PUSH1 0x1 PUSH1 0xA0 SHL SUB AND CALLER EQ PUSH2 0x5BB JUMPI PUSH1 0x40 MLOAD PUSH3 0x461BCD PUSH1 0xE5 SHL DUP2 MSTORE PUSH1 0x4 ADD PUSH2 0x524 SWAP1 PUSH2 0x17F7 JUMP JUMPDEST DUP1 MLOAD PUSH2 0x56A SWAP1 PUSH1 0xB SWAP1 PUSH1 0x20 DUP5 ADD SWAP1 PUSH2 0x13CF JUMP JUMPDEST PUSH1 0xD SLOAD PUSH1 0xFF AND ISZERO PUSH2 0x5F1 JUMPI PUSH1 0x40 MLOAD PUSH3 0x461BCD PUSH1 0xE5 SHL DUP2 MSTORE PUSH1 0x4 ADD PUSH2 0x524 SWAP1 PUSH2 0x17C7 JUMP JUMPDEST PUSH1 0x0 SLOAD PUSH1 0x1 PUSH1 0x1 PUSH1 0xA0 SHL SUB AND CALLER EQ PUSH2 0x61B JUMPI PUSH1 0x40 MLOAD PUSH3 0x461BCD PUSH1 0xE5 SHL DUP2 MSTORE PUSH1 0x4 ADD PUSH2 0x524 SWAP1 PUSH2 0x17F7 JUMP JUMPDEST PUSH1 0xE DUP1 SLOAD PUSH1 0x1 DUP2 ADD DUP3 SSTORE PUSH1 0x0 SWAP2 SWAP1 SWAP2 MSTORE DUP2 MLOAD PUSH2 0x65E SWAP2 PUSH32 0xBB7B4A454DC3493923482F07822329ED19E8244EFF582CC204F8554C3620C3FD ADD SWAP1 PUSH1 0x20 DUP5 ADD SWAP1 PUSH2 0x13CF JUMP JUMPDEST POP PUSH1 0x1 SLOAD PUSH1 0x40 MLOAD PUSH4 0x302D3793 PUSH1 0xE1 SHL DUP2 MSTORE PUSH1 0x1 PUSH1 0x1 PUSH1 0xA0 SHL SUB SWAP1 SWAP2 AND SWAP1 PUSH4 0x605A6F26 SWAP1 PUSH2 0x691 SWAP1 DUP5 SWAP1 ADDRESS SWAP1 PUSH1 0x4 ADD PUSH2 0x182E JUMP JUMPDEST PUSH1 0x0 PUSH1 0x40 MLOAD DUP1 DUP4 SUB DUP2 PUSH1 0x0 DUP8 DUP1 EXTCODESIZE ISZERO DUP1 ISZERO PUSH2 0x6AB JUMPI PUSH1 0x0 DUP1 REVERT JUMPDEST POP GAS CALL ISZERO DUP1 ISZERO PUSH2 0x6BF JUMPI RETURNDATASIZE PUSH1 0x0 DUP1 RETURNDATACOPY RETURNDATASIZE PUSH1 0x0 REVERT JUMPDEST POP POP POP POP POP JUMP JUMPDEST PUSH1 0x60 PUSH1 0xE DUP1 SLOAD DUP1 PUSH1 0x20 MUL PUSH1 0x20 ADD PUSH1 0x40 MLOAD SWAP1 DUP2 ADD PUSH1 0x40 MSTORE DUP1 SWAP3 SWAP2 SWAP1 DUP2 DUP2 MSTORE PUSH1 0x20 ADD PUSH1 0x0 SWAP1 JUMPDEST DUP3 DUP3 LT ISZERO PUSH2 0x796 JUMPI DUP4 DUP3 SWAP1 PUSH1 0x0 MSTORE PUSH1 0x20 PUSH1 0x0 KECCAK256 ADD DUP1 SLOAD PUSH2 0x709 SWAP1 PUSH2 0x1858 JUMP JUMPDEST DUP1 PUSH1 0x1F ADD PUSH1 0x20 DUP1 SWAP2 DIV MUL PUSH1 0x20 ADD PUSH1 0x40 MLOAD SWAP1 DUP2 ADD PUSH1 0x40 MSTORE DUP1 SWAP3 SWAP2 SWAP1 DUP2 DUP2 MSTORE PUSH1 0x20 ADD DUP3 DUP1 SLOAD PUSH2 0x735 SWAP1 PUSH2 0x1858 JUMP JUMPDEST DUP1 ISZERO PUSH2 0x782 JUMPI DUP1 PUSH1 0x1F LT PUSH2 0x757 JUMPI PUSH2 0x100 DUP1 DUP4 SLOAD DIV MUL DUP4 MSTORE SWAP2 PUSH1 0x20 ADD SWAP2 PUSH2 0x782 JUMP JUMPDEST DUP3 ADD SWAP2 SWAP1 PUSH1 0x0 MSTORE PUSH1 0x20 PUSH1 0x0 KECCAK256 SWAP1 JUMPDEST DUP2 SLOAD DUP2 MSTORE SWAP1 PUSH1 0x1 ADD SWAP1 PUSH1 0x20 ADD DUP1 DUP4 GT PUSH2 0x765 JUMPI DUP3 SWAP1 SUB PUSH1 0x1F AND DUP3 ADD SWAP2 JUMPDEST POP POP POP POP POP DUP2 MSTORE PUSH1 0x20 ADD SWAP1 PUSH1 0x1 ADD SWAP1 PUSH2 0x6EA JUMP JUMPDEST POP POP POP POP SWAP1 POP SWAP1 JUMP JUMPDEST PUSH1 0xD SLOAD PUSH1 0xFF AND ISZERO PUSH2 0x7C2 JUMPI PUSH1 0x40 MLOAD PUSH3 0x461BCD PUSH1 0xE5 SHL DUP2 MSTORE PUSH1 0x4 ADD PUSH2 0x524 SWAP1 PUSH2 0x17C7 JUMP JUMPDEST ADDRESS PUSH1 0x1 PUSH1 0x1 PUSH1 0xA0 SHL SUB AND PUSH4 0xC6B0FFD0 PUSH1 0x40 MLOAD DUP2 PUSH4 0xFFFFFFFF AND PUSH1 0xE0 SHL DUP2 MSTORE PUSH1 0x4 ADD PUSH1 0x20 PUSH1 0x40 MLOAD DUP1 DUP4 SUB DUP2 DUP7 GAS STATICCALL ISZERO DUP1 ISZERO PUSH2 0x800 JUMPI RETURNDATASIZE PUSH1 0x0 DUP1 RETURNDATACOPY RETURNDATASIZE PUSH1 0x0 REVERT JUMPDEST POP POP POP POP PUSH1 0x40 MLOAD RETURNDATASIZE PUSH1 0x1F NOT PUSH1 0x1F DUP3 ADD AND DUP3 ADD DUP1 PUSH1 0x40 MSTORE POP DUP2 ADD SWAP1 PUSH2 0x824 SWAP2 SWAP1 PUSH2 0x1892 JUMP JUMPDEST ISZERO ISZERO PUSH1 0x1 EQ DUP1 ISZERO PUSH2 0x83F JUMPI POP PUSH1 0x0 SLOAD PUSH1 0x1 PUSH1 0x1 PUSH1 0xA0 SHL SUB AND CALLER EQ JUMPDEST PUSH2 0x8AA JUMPI PUSH1 0x40 MLOAD PUSH3 0x461BCD PUSH1 0xE5 SHL DUP2 MSTORE PUSH1 0x20 PUSH1 0x4 DUP3 ADD MSTORE PUSH1 0x36 PUSH1 0x24 DUP3 ADD MSTORE PUSH32 0x50726F6A65637420686173206E6F742073756363656564207965742C206F7220 PUSH1 0x44 DUP3 ADD MSTORE PUSH22 0x3CB7BA9030B932903737BA103A34329037BBB732B917 PUSH1 0x51 SHL PUSH1 0x64 DUP3 ADD MSTORE PUSH1 0x84 ADD PUSH2 0x524 JUMP JUMPDEST PUSH1 0x0 DUP1 SLOAD PUSH1 0x40 MLOAD PUSH1 0x1 PUSH1 0x1 PUSH1 0xA0 SHL SUB SWAP1 SWAP2 AND SWAP2 SELFBALANCE DUP1 ISZERO PUSH2 0x8FC MUL SWAP3 SWAP1 SWAP2 DUP2 DUP2 DUP2 DUP6 DUP9 DUP9 CALL SWAP4 POP POP POP POP ISZERO DUP1 ISZERO PUSH2 0x8E4 JUMPI RETURNDATASIZE PUSH1 0x0 DUP1 RETURNDATACOPY RETURNDATASIZE PUSH1 0x0 REVERT JUMPDEST POP PUSH1 0xD DUP1 SLOAD PUSH1 0xFF NOT AND PUSH1 0x1 OR SWAP1 SSTORE JUMP JUMPDEST PUSH1 0x7 DUP1 SLOAD PUSH2 0x901 SWAP1 PUSH2 0x1858 JUMP JUMPDEST DUP1 PUSH1 0x1F ADD PUSH1 0x20 DUP1 SWAP2 DIV MUL PUSH1 0x20 ADD PUSH1 0x40 MLOAD SWAP1 DUP2 ADD PUSH1 0x40 MSTORE DUP1 SWAP3 SWAP2 SWAP1 DUP2 DUP2 MSTORE PUSH1 0x20 ADD DUP3 DUP1 SLOAD PUSH2 0x92D SWAP1 PUSH2 0x1858 JUMP JUMPDEST DUP1 ISZERO PUSH2 0x97A JUMPI DUP1 PUSH1 0x1F LT PUSH2 0x94F JUMPI PUSH2 0x100 DUP1 DUP4 SLOAD DIV MUL DUP4 MSTORE SWAP2 PUSH1 0x20 ADD SWAP2 PUSH2 0x97A JUMP JUMPDEST DUP3 ADD SWAP2 SWAP1 PUSH1 0x0 MSTORE PUSH1 0x20 PUSH1 0x0 KECCAK256 SWAP1 JUMPDEST DUP2 SLOAD DUP2 MSTORE SWAP1 PUSH1 0x1 ADD SWAP1 PUSH1 0x20 ADD DUP1 DUP4 GT PUSH2 0x95D JUMPI DUP3 SWAP1 SUB PUSH1 0x1F AND DUP3 ADD SWAP2 JUMPDEST POP POP POP POP POP DUP2 JUMP JUMPDEST PUSH1 0x0 DUP1 SELFBALANCE SWAP1 POP TIMESTAMP PUSH1 0x9 SLOAD LT DUP1 ISZERO PUSH2 0x99A JUMPI POP PUSH1 0x8 SLOAD DUP2 LT JUMPDEST ISZERO PUSH2 0x9A7 JUMPI PUSH1 0x1 SWAP2 POP POP SWAP1 JUMP JUMPDEST PUSH1 0x0 SWAP2 POP POP SWAP1 JUMP JUMPDEST PUSH1 0xD SLOAD PUSH1 0xFF AND ISZERO PUSH2 0x9D2 JUMPI PUSH1 0x40 MLOAD PUSH3 0x461BCD PUSH1 0xE5 SHL DUP2 MSTORE PUSH1 0x4 ADD PUSH2 0x524 SWAP1 PUSH2 0x17C7 JUMP JUMPDEST PUSH1 0x0 SLOAD PUSH1 0x1 PUSH1 0x1 PUSH1 0xA0 SHL SUB AND CALLER EQ PUSH2 0x9FC JUMPI PUSH1 0x40 MLOAD PUSH3 0x461BCD PUSH1 0xE5 SHL DUP2 MSTORE PUSH1 0x4 ADD PUSH2 0x524 SWAP1 PUSH2 0x17F7 JUMP JUMPDEST DUP1 MLOAD PUSH2 0x56A SWAP1 PUSH1 0x6 SWAP1 PUSH1 0x20 DUP5 ADD SWAP1 PUSH2 0x13CF JUMP JUMPDEST PUSH1 0xD SLOAD PUSH1 0xFF AND ISZERO PUSH2 0xA32 JUMPI PUSH1 0x40 MLOAD PUSH3 0x461BCD PUSH1 0xE5 SHL DUP2 MSTORE PUSH1 0x4 ADD PUSH2 0x524 SWAP1 PUSH2 0x17C7 JUMP JUMPDEST PUSH1 0x0 SLOAD PUSH1 0x1 PUSH1 0x1 PUSH1 0xA0 SHL SUB AND CALLER EQ PUSH2 0xA5C JUMPI PUSH1 0x40 MLOAD PUSH3 0x461BCD PUSH1 0xE5 SHL DUP2 MSTORE PUSH1 0x4 ADD PUSH2 0x524 SWAP1 PUSH2 0x17F7 JUMP JUMPDEST PUSH1 0x9 SSTORE JUMP JUMPDEST PUSH1 0xB DUP1 SLOAD PUSH2 0x901 SWAP1 PUSH2 0x1858 JUMP JUMPDEST PUSH1 0xD SLOAD PUSH1 0xFF AND ISZERO PUSH2 0xA91 JUMPI PUSH1 0x40 MLOAD PUSH3 0x461BCD PUSH1 0xE5 SHL DUP2 MSTORE PUSH1 0x4 ADD PUSH2 0x524 SWAP1 PUSH2 0x17C7 JUMP JUMPDEST PUSH1 0x0 SLOAD PUSH1 0x1 PUSH1 0x1 PUSH1 0xA0 SHL SUB AND CALLER EQ PUSH2 0xABB JUMPI PUSH1 0x40 MLOAD PUSH3 0x461BCD PUSH1 0xE5 SHL DUP2 MSTORE PUSH1 0x4 ADD PUSH2 0x524 SWAP1 PUSH2 0x17F7 JUMP JUMPDEST PUSH1 0x0 JUMPDEST PUSH1 0xE SLOAD DUP2 LT ISZERO PUSH2 0x56A JUMPI DUP2 DUP1 MLOAD SWAP1 PUSH1 0x20 ADD KECCAK256 PUSH1 0xE DUP3 DUP2 SLOAD DUP2 LT PUSH2 0xAE3 JUMPI PUSH2 0xAE3 PUSH2 0x18AF JUMP JUMPDEST SWAP1 PUSH1 0x0 MSTORE PUSH1 0x20 PUSH1 0x0 KECCAK256 ADD PUSH1 0x40 MLOAD PUSH2 0xAFA SWAP2 SWAP1 PUSH2 0x18C5 JUMP JUMPDEST PUSH1 0x40 MLOAD DUP1 SWAP2 SUB SWAP1 KECCAK256 SUB PUSH2 0xC26 JUMPI PUSH1 0xE SLOAD PUSH1 0x0 SWAP1 PUSH2 0xB19 SWAP1 PUSH1 0x1 SWAP1 PUSH2 0x194D JUMP JUMPDEST PUSH1 0x1 SLOAD PUSH1 0xE DUP1 SLOAD SWAP3 SWAP4 POP PUSH1 0x1 PUSH1 0x1 PUSH1 0xA0 SHL SUB SWAP1 SWAP2 AND SWAP2 PUSH4 0x11357471 SWAP2 SWAP1 DUP6 SWAP1 DUP2 LT PUSH2 0xB46 JUMPI PUSH2 0xB46 PUSH2 0x18AF JUMP JUMPDEST SWAP1 PUSH1 0x0 MSTORE PUSH1 0x20 PUSH1 0x0 KECCAK256 ADD ADDRESS PUSH1 0x40 MLOAD DUP4 PUSH4 0xFFFFFFFF AND PUSH1 0xE0 SHL DUP2 MSTORE PUSH1 0x4 ADD PUSH2 0xB6E SWAP3 SWAP2 SWAP1 PUSH2 0x1964 JUMP JUMPDEST PUSH1 0x0 PUSH1 0x40 MLOAD DUP1 DUP4 SUB DUP2 PUSH1 0x0 DUP8 DUP1 EXTCODESIZE ISZERO DUP1 ISZERO PUSH2 0xB88 JUMPI PUSH1 0x0 DUP1 REVERT JUMPDEST POP GAS CALL ISZERO DUP1 ISZERO PUSH2 0xB9C JUMPI RETURNDATASIZE PUSH1 0x0 DUP1 RETURNDATACOPY RETURNDATASIZE PUSH1 0x0 REVERT JUMPDEST POP POP POP POP PUSH1 0xE DUP2 DUP2 SLOAD DUP2 LT PUSH2 0xBB3 JUMPI PUSH2 0xBB3 PUSH2 0x18AF JUMP JUMPDEST SWAP1 PUSH1 0x0 MSTORE PUSH1 0x20 PUSH1 0x0 KECCAK256 ADD PUSH1 0xE DUP4 DUP2 SLOAD DUP2 LT PUSH2 0xBD0 JUMPI PUSH2 0xBD0 PUSH2 0x18AF JUMP JUMPDEST SWAP1 PUSH1 0x0 MSTORE PUSH1 0x20 PUSH1 0x0 KECCAK256 ADD SWAP1 DUP1 SLOAD PUSH2 0xBE6 SWAP1 PUSH2 0x1858 JUMP JUMPDEST PUSH2 0xBF1 SWAP3 SWAP2 SWAP1 PUSH2 0x1453 JUMP JUMPDEST POP PUSH1 0xE DUP1 SLOAD DUP1 PUSH2 0xC03 JUMPI PUSH2 0xC03 PUSH2 0x19FE JUMP JUMPDEST PUSH1 0x1 SWAP1 SUB DUP2 DUP2 SWAP1 PUSH1 0x0 MSTORE PUSH1 0x20 PUSH1 0x0 KECCAK256 ADD PUSH1 0x0 PUSH2 0xC1F SWAP2 SWAP1 PUSH2 0x14CE JUMP JUMPDEST SWAP1 SSTORE POP POP POP JUMP JUMPDEST DUP1 PUSH2 0xC30 DUP2 PUSH2 0x1A14 JUMP JUMPDEST SWAP2 POP POP PUSH2 0xABE JUMP JUMPDEST PUSH1 0xD SLOAD PUSH1 0xFF AND ISZERO PUSH2 0xC5B JUMPI PUSH1 0x40 MLOAD PUSH3 0x461BCD PUSH1 0xE5 SHL DUP2 MSTORE PUSH1 0x4 ADD PUSH2 0x524 SWAP1 PUSH2 0x17C7 JUMP JUMPDEST PUSH1 0x0 SLOAD PUSH1 0x1 PUSH1 0x1 PUSH1 0xA0 SHL SUB AND CALLER EQ PUSH2 0xC85 JUMPI PUSH1 0x40 MLOAD PUSH3 0x461BCD PUSH1 0xE5 SHL DUP2 MSTORE PUSH1 0x4 ADD PUSH2 0x524 SWAP1 PUSH2 0x17F7 JUMP JUMPDEST PUSH1 0x0 JUMPDEST PUSH1 0xF SLOAD DUP2 LT ISZERO PUSH2 0x56A JUMPI DUP2 PUSH1 0xF DUP3 DUP2 SLOAD DUP2 LT PUSH2 0xCA6 JUMPI PUSH2 0xCA6 PUSH2 0x18AF JUMP JUMPDEST SWAP1 PUSH1 0x0 MSTORE PUSH1 0x20 PUSH1 0x0 KECCAK256 ADD SLOAD SUB PUSH2 0xD33 JUMPI PUSH1 0xF SLOAD PUSH1 0x0 SWAP1 PUSH2 0xCC8 SWAP1 PUSH1 0x1 SWAP1 PUSH2 0x194D JUMP JUMPDEST SWAP1 POP PUSH1 0xF DUP2 DUP2 SLOAD DUP2 LT PUSH2 0xCDD JUMPI PUSH2 0xCDD PUSH2 0x18AF JUMP JUMPDEST SWAP1 PUSH1 0x0 MSTORE PUSH1 0x20 PUSH1 0x0 KECCAK256 ADD SLOAD PUSH1 0xF DUP4 DUP2 SLOAD DUP2 LT PUSH2 0xCFB JUMPI PUSH2 0xCFB PUSH2 0x18AF JUMP JUMPDEST PUSH1 0x0 SWAP2 DUP3 MSTORE PUSH1 0x20 SWAP1 SWAP2 KECCAK256 ADD SSTORE PUSH1 0xF DUP1 SLOAD DUP1 PUSH2 0xD18 JUMPI PUSH2 0xD18 PUSH2 0x19FE JUMP JUMPDEST PUSH1 0x1 SWAP1 SUB DUP2 DUP2 SWAP1 PUSH1 0x0 MSTORE PUSH1 0x20 PUSH1 0x0 KECCAK256 ADD PUSH1 0x0 SWAP1 SSTORE SWAP1 SSTORE POP POP POP JUMP JUMPDEST DUP1 PUSH2 0xD3D DUP2 PUSH2 0x1A14 JUMP JUMPDEST SWAP2 POP POP PUSH2 0xC88 JUMP JUMPDEST PUSH1 0xD SLOAD PUSH1 0xFF AND ISZERO PUSH2 0xD68 JUMPI PUSH1 0x40 MLOAD PUSH3 0x461BCD PUSH1 0xE5 SHL DUP2 MSTORE PUSH1 0x4 ADD PUSH2 0x524 SWAP1 PUSH2 0x17C7 JUMP JUMPDEST ADDRESS PUSH1 0x1 PUSH1 0x1 PUSH1 0xA0 SHL SUB AND PUSH4 0x4EB2B29D PUSH1 0x40 MLOAD DUP2 PUSH4 0xFFFFFFFF AND PUSH1 0xE0 SHL DUP2 MSTORE PUSH1 0x4 ADD PUSH1 0x20 PUSH1 0x40 MLOAD DUP1 DUP4 SUB DUP2 DUP7 GAS STATICCALL ISZERO DUP1 ISZERO PUSH2 0xDA6 JUMPI RETURNDATASIZE PUSH1 0x0 DUP1 RETURNDATACOPY RETURNDATASIZE PUSH1 0x0 REVERT JUMPDEST POP POP POP POP PUSH1 0x40 MLOAD RETURNDATASIZE PUSH1 0x1F NOT PUSH1 0x1F DUP3 ADD AND DUP3 ADD DUP1 PUSH1 0x40 MSTORE POP DUP2 ADD SWAP1 PUSH2 0xDCA SWAP2 SWAP1 PUSH2 0x1892 JUMP JUMPDEST ISZERO ISZERO PUSH1 0x1 EQ DUP1 ISZERO PUSH2 0xDDB JUMPI POP PUSH1 0x0 SELFBALANCE GT JUMPDEST PUSH2 0xE46 JUMPI PUSH1 0x40 MLOAD PUSH3 0x461BCD PUSH1 0xE5 SHL DUP2 MSTORE PUSH1 0x20 PUSH1 0x4 DUP3 ADD MSTORE PUSH1 0x36 PUSH1 0x24 DUP3 ADD MSTORE PUSH32 0x50726F6A65637420686173206E6F74206661696C6564207965742C206F722064 PUSH1 0x44 DUP3 ADD MSTORE PUSH22 0x37B2B9B713BA103430BB329030B73C90333AB7323997 PUSH1 0x51 SHL PUSH1 0x64 DUP3 ADD MSTORE PUSH1 0x84 ADD PUSH2 0x524 JUMP JUMPDEST PUSH1 0x0 JUMPDEST PUSH1 0x2 SLOAD DUP2 LT ISZERO PUSH2 0x8E4 JUMPI PUSH1 0x2 DUP2 DUP2 SLOAD DUP2 LT PUSH2 0xE66 JUMPI PUSH2 0xE66 PUSH2 0x18AF JUMP JUMPDEST PUSH1 0x0 SWAP2 DUP3 MSTORE PUSH1 0x20 DUP3 KECCAK256 ADD SLOAD PUSH1 0x2 DUP1 SLOAD PUSH1 0x1 PUSH1 0x1 PUSH1 0xA0 SHL SUB SWAP1 SWAP3 AND SWAP3 PUSH2 0x8FC SWAP3 PUSH1 0x4 SWAP3 SWAP1 DUP7 SWAP1 DUP2 LT PUSH2 0xE99 JUMPI PUSH2 0xE99 PUSH2 0x18AF JUMP JUMPDEST PUSH1 0x0 SWAP2 DUP3 MSTORE PUSH1 0x20 DUP1 DUP4 KECCAK256 SWAP1 SWAP2 ADD SLOAD PUSH1 0x1 PUSH1 0x1 PUSH1 0xA0 SHL SUB AND DUP4 MSTORE DUP3 ADD SWAP3 SWAP1 SWAP3 MSTORE PUSH1 0x40 SWAP1 DUP2 ADD DUP3 KECCAK256 SLOAD SWAP1 MLOAD DUP2 ISZERO SWAP1 SWAP4 MUL SWAP3 SWAP1 SWAP2 DUP2 DUP2 DUP2 DUP6 DUP9 DUP9 CALL SWAP4 POP POP POP POP ISZERO DUP1 ISZERO PUSH2 0xEE7 JUMPI RETURNDATASIZE PUSH1 0x0 DUP1 RETURNDATACOPY RETURNDATASIZE PUSH1 0x0 REVERT JUMPDEST POP DUP1 PUSH2 0xEF2 DUP2 PUSH2 0x1A14 JUMP JUMPDEST SWAP2 POP POP PUSH2 0xE49 JUMP JUMPDEST PUSH1 0xF DUP2 DUP2 SLOAD DUP2 LT PUSH2 0xF0A JUMPI PUSH1 0x0 DUP1 REVERT JUMPDEST PUSH1 0x0 SWAP2 DUP3 MSTORE PUSH1 0x20 SWAP1 SWAP2 KECCAK256 ADD SLOAD SWAP1 POP DUP2 JUMP JUMPDEST PUSH1 0x8 SLOAD PUSH1 0x0 SWAP1 SELFBALANCE SWAP1 DUP2 LT PUSH2 0x9A7 JUMPI PUSH1 0x1 SWAP2 POP POP SWAP1 JUMP JUMPDEST PUSH1 0xE DUP2 DUP2 SLOAD DUP2 LT PUSH2 0xF41 JUMPI PUSH1 0x0 DUP1 REVERT JUMPDEST SWAP1 PUSH1 0x0 MSTORE PUSH1 0x20 PUSH1 0x0 KECCAK256 ADD PUSH1 0x0 SWAP2 POP SWAP1 POP DUP1 SLOAD PUSH2 0x901 SWAP1 PUSH2 0x1858 JUMP JUMPDEST PUSH1 0x6 DUP1 SLOAD PUSH2 0x901 SWAP1 PUSH2 0x1858 JUMP JUMPDEST PUSH1 0x60 DUP1 PUSH1 0x0 PUSH1 0x2 DUP1 SLOAD SWAP1 POP PUSH8 0xFFFFFFFFFFFFFFFF DUP2 GT ISZERO PUSH2 0xF8C JUMPI PUSH2 0xF8C PUSH2 0x1575 JUMP JUMPDEST PUSH1 0x40 MLOAD SWAP1 DUP1 DUP3 MSTORE DUP1 PUSH1 0x20 MUL PUSH1 0x20 ADD DUP3 ADD PUSH1 0x40 MSTORE DUP1 ISZERO PUSH2 0xFBF JUMPI DUP2 PUSH1 0x20 ADD JUMPDEST PUSH1 0x60 DUP2 MSTORE PUSH1 0x20 ADD SWAP1 PUSH1 0x1 SWAP1 SUB SWAP1 DUP2 PUSH2 0xFAA JUMPI SWAP1 POP JUMPDEST POP PUSH1 0x2 SLOAD SWAP1 SWAP2 POP PUSH1 0x0 SWAP1 PUSH8 0xFFFFFFFFFFFFFFFF DUP2 GT ISZERO PUSH2 0xFE1 JUMPI PUSH2 0xFE1 PUSH2 0x1575 JUMP JUMPDEST PUSH1 0x40 MLOAD SWAP1 DUP1 DUP3 MSTORE DUP1 PUSH1 0x20 MUL PUSH1 0x20 ADD DUP3 ADD PUSH1 0x40 MSTORE DUP1 ISZERO PUSH2 0x100A JUMPI DUP2 PUSH1 0x20 ADD PUSH1 0x20 DUP3 MUL DUP1 CALLDATASIZE DUP4 CALLDATACOPY ADD SWAP1 POP JUMPDEST POP SWAP1 POP PUSH1 0x0 JUMPDEST PUSH1 0x2 SLOAD DUP2 LT ISZERO PUSH2 0x1168 JUMPI PUSH1 0x5 PUSH1 0x0 PUSH1 0x2 DUP4 DUP2 SLOAD DUP2 LT PUSH2 0x1031 JUMPI PUSH2 0x1031 PUSH2 0x18AF JUMP JUMPDEST PUSH1 0x0 SWAP2 DUP3 MSTORE PUSH1 0x20 DUP1 DUP4 KECCAK256 SWAP1 SWAP2 ADD SLOAD PUSH1 0x1 PUSH1 0x1 PUSH1 0xA0 SHL SUB AND DUP4 MSTORE DUP3 ADD SWAP3 SWAP1 SWAP3 MSTORE PUSH1 0x40 ADD SWAP1 KECCAK256 DUP1 SLOAD PUSH2 0x1060 SWAP1 PUSH2 0x1858 JUMP JUMPDEST DUP1 PUSH1 0x1F ADD PUSH1 0x20 DUP1 SWAP2 DIV MUL PUSH1 0x20 ADD PUSH1 0x40 MLOAD SWAP1 DUP2 ADD PUSH1 0x40 MSTORE DUP1 SWAP3 SWAP2 SWAP1 DUP2 DUP2 MSTORE PUSH1 0x20 ADD DUP3 DUP1 SLOAD PUSH2 0x108C SWAP1 PUSH2 0x1858 JUMP JUMPDEST DUP1 ISZERO PUSH2 0x10D9 JUMPI DUP1 PUSH1 0x1F LT PUSH2 0x10AE JUMPI PUSH2 0x100 DUP1 DUP4 SLOAD DIV MUL DUP4 MSTORE SWAP2 PUSH1 0x20 ADD SWAP2 PUSH2 0x10D9 JUMP JUMPDEST DUP3 ADD SWAP2 SWAP1 PUSH1 0x0 MSTORE PUSH1 0x20 PUSH1 0x0 KECCAK256 SWAP1 JUMPDEST DUP2 SLOAD DUP2 MSTORE SWAP1 PUSH1 0x1 ADD SWAP1 PUSH1 0x20 ADD DUP1 DUP4 GT PUSH2 0x10BC JUMPI DUP3 SWAP1 SUB PUSH1 0x1F AND DUP3 ADD SWAP2 JUMPDEST POP POP POP POP POP DUP4 DUP3 DUP2 MLOAD DUP2 LT PUSH2 0x10F0 JUMPI PUSH2 0x10F0 PUSH2 0x18AF JUMP JUMPDEST PUSH1 0x20 MUL PUSH1 0x20 ADD ADD DUP2 SWAP1 MSTORE POP PUSH1 0x4 PUSH1 0x0 PUSH1 0x2 DUP4 DUP2 SLOAD DUP2 LT PUSH2 0x1112 JUMPI PUSH2 0x1112 PUSH2 0x18AF JUMP JUMPDEST PUSH1 0x0 SWAP2 DUP3 MSTORE PUSH1 0x20 DUP1 DUP4 KECCAK256 SWAP1 SWAP2 ADD SLOAD PUSH1 0x1 PUSH1 0x1 PUSH1 0xA0 SHL SUB AND DUP4 MSTORE DUP3 ADD SWAP3 SWAP1 SWAP3 MSTORE PUSH1 0x40 ADD SWAP1 KECCAK256 SLOAD DUP3 MLOAD DUP4 SWAP1 DUP4 SWAP1 DUP2 LT PUSH2 0x114B JUMPI PUSH2 0x114B PUSH2 0x18AF JUMP JUMPDEST PUSH1 0x20 SWAP1 DUP2 MUL SWAP2 SWAP1 SWAP2 ADD ADD MSTORE DUP1 PUSH2 0x1160 DUP2 PUSH2 0x1A14 JUMP JUMPDEST SWAP2 POP POP PUSH2 0x1010 JUMP JUMPDEST POP SWAP1 SWAP4 SWAP1 SWAP3 POP SWAP1 POP JUMP JUMPDEST PUSH1 0xD SLOAD PUSH1 0xFF AND ISZERO PUSH2 0x1195 JUMPI PUSH1 0x40 MLOAD PUSH3 0x461BCD PUSH1 0xE5 SHL DUP2 MSTORE PUSH1 0x4 ADD PUSH2 0x524 SWAP1 PUSH2 0x17C7 JUMP JUMPDEST PUSH1 0x0 SLOAD PUSH1 0x1 PUSH1 0x1 PUSH1 0xA0 SHL SUB AND CALLER EQ PUSH2 0x11BF JUMPI PUSH1 0x40 MLOAD PUSH3 0x461BCD PUSH1 0xE5 SHL DUP2 MSTORE PUSH1 0x4 ADD PUSH2 0x524 SWAP1 PUSH2 0x17F7 JUMP JUMPDEST PUSH1 0xF DUP1 SLOAD PUSH1 0x1 DUP2 ADD DUP3 SSTORE PUSH1 0x0 SWAP2 SWAP1 SWAP2 MSTORE PUSH32 0x8D1108E10BCB7C27DDDFC02ED9D693A074039D026CF4EA4240B40F7D581AC802 ADD SSTORE JUMP JUMPDEST PUSH1 0xD SLOAD PUSH1 0xFF AND ISZERO PUSH2 0x1217 JUMPI PUSH1 0x40 MLOAD PUSH3 0x461BCD PUSH1 0xE5 SHL DUP2 MSTORE PUSH1 0x4 ADD PUSH2 0x524 SWAP1 PUSH2 0x17C7 JUMP JUMPDEST ADDRESS PUSH1 0x1 PUSH1 0x1 PUSH1 0xA0 SHL SUB AND PUSH4 0x4EB2B29D PUSH1 0x40 MLOAD DUP2 PUSH4 0xFFFFFFFF AND PUSH1 0xE0 SHL DUP2 MSTORE PUSH1 0x4 ADD PUSH1 0x20 PUSH1 0x40 MLOAD DUP1 DUP4 SUB DUP2 DUP7 GAS STATICCALL ISZERO DUP1 ISZERO PUSH2 0x1255 JUMPI RETURNDATASIZE PUSH1 0x0 DUP1 RETURNDATACOPY RETURNDATASIZE PUSH1 0x0 REVERT JUMPDEST POP POP POP POP PUSH1 0x40 MLOAD RETURNDATASIZE PUSH1 0x1F NOT PUSH1 0x1F DUP3 ADD AND DUP3 ADD DUP1 PUSH1 0x40 MSTORE POP DUP2 ADD SWAP1 PUSH2 0x1279 SWAP2 SWAP1 PUSH2 0x1892 JUMP JUMPDEST ISZERO PUSH2 0x12C6 JUMPI PUSH1 0x40 MLOAD PUSH3 0x461BCD PUSH1 0xE5 SHL DUP2 MSTORE PUSH1 0x20 PUSH1 0x4 DUP3 ADD MSTORE PUSH1 0x18 PUSH1 0x24 DUP3 ADD MSTORE PUSH32 0x546869732070726F6A65637420776173206661696C65642E0000000000000000 PUSH1 0x44 DUP3 ADD MSTORE PUSH1 0x64 ADD PUSH2 0x524 JUMP JUMPDEST CALLER PUSH1 0x0 SWAP1 DUP2 MSTORE PUSH1 0x4 PUSH1 0x20 MSTORE PUSH1 0x40 DUP2 KECCAK256 DUP1 SLOAD CALLVALUE SWAP3 SWAP1 PUSH2 0x12E5 SWAP1 DUP5 SWAP1 PUSH2 0x1A2D JUMP JUMPDEST SWAP1 SWAP2 SSTORE POP POP CALLER PUSH1 0x0 SWAP1 DUP2 MSTORE PUSH1 0x3 PUSH1 0x20 MSTORE PUSH1 0x40 SWAP1 KECCAK256 SLOAD PUSH1 0xFF AND PUSH2 0x135C JUMPI PUSH1 0x2 DUP1 SLOAD PUSH1 0x1 DUP2 DUP2 ADD SWAP1 SWAP3 SSTORE PUSH32 0x405787FA12A823E0F2B7631CC41B3BA8828B3321CA811111FA75CD3AA3BB5ACE ADD DUP1 SLOAD PUSH1 0x1 PUSH1 0x1 PUSH1 0xA0 SHL SUB NOT AND CALLER SWAP1 DUP2 OR SWAP1 SWAP2 SSTORE PUSH1 0x0 SWAP1 DUP2 MSTORE PUSH1 0x3 PUSH1 0x20 MSTORE PUSH1 0x40 SWAP1 KECCAK256 DUP1 SLOAD PUSH1 0xFF NOT AND SWAP1 SWAP2 OR SWAP1 SSTORE JUMPDEST DUP1 ISZERO PUSH2 0x13A5 JUMPI PUSH1 0x40 DUP1 MLOAD DUP1 DUP3 ADD DUP3 MSTORE PUSH1 0x9 DUP2 MSTORE PUSH9 0x416E6F6E796D6F7573 PUSH1 0xB8 SHL PUSH1 0x20 DUP1 DUP4 ADD SWAP2 DUP3 MSTORE CALLER PUSH1 0x0 SWAP1 DUP2 MSTORE PUSH1 0x5 SWAP1 SWAP2 MSTORE SWAP3 SWAP1 SWAP3 KECCAK256 SWAP1 MLOAD PUSH2 0x139F SWAP3 SWAP1 PUSH2 0x13CF JUMP JUMPDEST POP PUSH2 0x13C7 JUMP JUMPDEST CALLER PUSH1 0x0 SWAP1 DUP2 MSTORE PUSH1 0x5 PUSH1 0x20 SWAP1 DUP2 MSTORE PUSH1 0x40 SWAP1 SWAP2 KECCAK256 DUP4 MLOAD PUSH2 0x13C5 SWAP3 DUP6 ADD SWAP1 PUSH2 0x13CF JUMP JUMPDEST POP JUMPDEST POP POP SELFBALANCE PUSH1 0xA SSTORE JUMP JUMPDEST DUP3 DUP1 SLOAD PUSH2 0x13DB SWAP1 PUSH2 0x1858 JUMP JUMPDEST SWAP1 PUSH1 0x0 MSTORE PUSH1 0x20 PUSH1 0x0 KECCAK256 SWAP1 PUSH1 0x1F ADD PUSH1 0x20 SWAP1 DIV DUP2 ADD SWAP3 DUP3 PUSH2 0x13FD JUMPI PUSH1 0x0 DUP6 SSTORE PUSH2 0x1443 JUMP JUMPDEST DUP3 PUSH1 0x1F LT PUSH2 0x1416 JUMPI DUP1 MLOAD PUSH1 0xFF NOT AND DUP4 DUP1 ADD OR DUP6 SSTORE PUSH2 0x1443 JUMP JUMPDEST DUP3 DUP1 ADD PUSH1 0x1 ADD DUP6 SSTORE DUP3 ISZERO PUSH2 0x1443 JUMPI SWAP2 DUP3 ADD JUMPDEST DUP3 DUP2 GT ISZERO PUSH2 0x1443 JUMPI DUP3 MLOAD DUP3 SSTORE SWAP2 PUSH1 0x20 ADD SWAP2 SWAP1 PUSH1 0x1 ADD SWAP1 PUSH2 0x1428 JUMP JUMPDEST POP PUSH2 0x144F SWAP3 SWAP2 POP PUSH2 0x150B JUMP JUMPDEST POP SWAP1 JUMP JUMPDEST DUP3 DUP1 SLOAD PUSH2 0x145F SWAP1 PUSH2 0x1858 JUMP JUMPDEST SWAP1 PUSH1 0x0 MSTORE PUSH1 0x20 PUSH1 0x0 KECCAK256 SWAP1 PUSH1 0x1F ADD PUSH1 0x20 SWAP1 DIV DUP2 ADD SWAP3 DUP3 PUSH2 0x1481 JUMPI PUSH1 0x0 DUP6 SSTORE PUSH2 0x1443 JUMP JUMPDEST DUP3 PUSH1 0x1F LT PUSH2 0x1492 JUMPI DUP1 SLOAD DUP6 SSTORE PUSH2 0x1443 JUMP JUMPDEST DUP3 DUP1 ADD PUSH1 0x1 ADD DUP6 SSTORE DUP3 ISZERO PUSH2 0x1443 JUMPI PUSH1 0x0 MSTORE PUSH1 0x20 PUSH1 0x0 KECCAK256 SWAP2 PUSH1 0x1F ADD PUSH1 0x20 SWAP1 DIV DUP3 ADD JUMPDEST DUP3 DUP2 GT ISZERO PUSH2 0x1443 JUMPI DUP3 SLOAD DUP3 SSTORE SWAP2 PUSH1 0x1 ADD SWAP2 SWAP1 PUSH1 0x1 ADD SWAP1 PUSH2 0x14B3 JUMP JUMPDEST POP DUP1 SLOAD PUSH2 0x14DA SWAP1 PUSH2 0x1858 JUMP JUMPDEST PUSH1 0x0 DUP3 SSTORE DUP1 PUSH1 0x1F LT PUSH2 0x14EA JUMPI POP POP JUMP JUMPDEST PUSH1 0x1F ADD PUSH1 0x20 SWAP1 DIV SWAP1 PUSH1 0x0 MSTORE PUSH1 0x20 PUSH1 0x0 KECCAK256 SWAP1 DUP2 ADD SWAP1 PUSH2 0x1508 SWAP2 SWAP1 PUSH2 0x150B JUMP JUMPDEST POP JUMP JUMPDEST JUMPDEST DUP1 DUP3 GT ISZERO PUSH2 0x144F JUMPI PUSH1 0x0 DUP2 SSTORE PUSH1 0x1 ADD PUSH2 0x150C JUMP JUMPDEST PUSH1 0x0 DUP2 MLOAD DUP1 DUP5 MSTORE PUSH1 0x20 DUP1 DUP6 ADD SWAP5 POP DUP1 DUP5 ADD PUSH1 0x0 JUMPDEST DUP4 DUP2 LT ISZERO PUSH2 0x1550 JUMPI DUP2 MLOAD DUP8 MSTORE SWAP6 DUP3 ADD SWAP6 SWAP1 DUP3 ADD SWAP1 PUSH1 0x1 ADD PUSH2 0x1534 JUMP JUMPDEST POP SWAP5 SWAP6 SWAP5 POP POP POP POP POP JUMP JUMPDEST PUSH1 0x20 DUP2 MSTORE PUSH1 0x0 PUSH2 0x156E PUSH1 0x20 DUP4 ADD DUP5 PUSH2 0x1520 JUMP JUMPDEST SWAP4 SWAP3 POP POP POP JUMP JUMPDEST PUSH4 0x4E487B71 PUSH1 0xE0 SHL PUSH1 0x0 MSTORE PUSH1 0x41 PUSH1 0x4 MSTORE PUSH1 0x24 PUSH1 0x0 REVERT JUMPDEST PUSH1 0x0 DUP3 PUSH1 0x1F DUP4 ADD SLT PUSH2 0x159C JUMPI PUSH1 0x0 DUP1 REVERT JUMPDEST DUP2 CALLDATALOAD PUSH8 0xFFFFFFFFFFFFFFFF DUP1 DUP3 GT ISZERO PUSH2 0x15B7 JUMPI PUSH2 0x15B7 PUSH2 0x1575 JUMP JUMPDEST PUSH1 0x40 MLOAD PUSH1 0x1F DUP4 ADD PUSH1 0x1F NOT SWAP1 DUP2 AND PUSH1 0x3F ADD AND DUP2 ADD SWAP1 DUP3 DUP3 GT DUP2 DUP4 LT OR ISZERO PUSH2 0x15DF JUMPI PUSH2 0x15DF PUSH2 0x1575 JUMP JUMPDEST DUP2 PUSH1 0x40 MSTORE DUP4 DUP2 MSTORE DUP7 PUSH1 0x20 DUP6 DUP9 ADD ADD GT ISZERO PUSH2 0x15F8 JUMPI PUSH1 0x0 DUP1 REVERT JUMPDEST DUP4 PUSH1 0x20 DUP8 ADD PUSH1 0x20 DUP4 ADD CALLDATACOPY PUSH1 0x0 PUSH1 0x20 DUP6 DUP4 ADD ADD MSTORE DUP1 SWAP5 POP POP POP POP POP SWAP3 SWAP2 POP POP JUMP JUMPDEST PUSH1 0x0 PUSH1 0x20 DUP3 DUP5 SUB SLT ISZERO PUSH2 0x162A JUMPI PUSH1 0x0 DUP1 REVERT JUMPDEST DUP2 CALLDATALOAD PUSH8 0xFFFFFFFFFFFFFFFF DUP2 GT ISZERO PUSH2 0x1641 JUMPI PUSH1 0x0 DUP1 REVERT JUMPDEST PUSH2 0x164D DUP5 DUP3 DUP6 ADD PUSH2 0x158B JUMP JUMPDEST SWAP5 SWAP4 POP POP POP POP JUMP JUMPDEST PUSH1 0x0 DUP2 MLOAD DUP1 DUP5 MSTORE PUSH1 0x0 JUMPDEST DUP2 DUP2 LT ISZERO PUSH2 0x167B JUMPI PUSH1 0x20 DUP2 DUP6 ADD DUP2 ADD MLOAD DUP7 DUP4 ADD DUP3 ADD MSTORE ADD PUSH2 0x165F JUMP JUMPDEST DUP2 DUP2 GT ISZERO PUSH2 0x168D JUMPI PUSH1 0x0 PUSH1 0x20 DUP4 DUP8 ADD ADD MSTORE JUMPDEST POP PUSH1 0x1F ADD PUSH1 0x1F NOT AND SWAP3 SWAP1 SWAP3 ADD PUSH1 0x20 ADD SWAP3 SWAP2 POP POP JUMP JUMPDEST PUSH1 0x0 DUP3 DUP3 MLOAD DUP1 DUP6 MSTORE PUSH1 0x20 DUP1 DUP7 ADD SWAP6 POP DUP1 DUP3 PUSH1 0x5 SHL DUP5 ADD ADD DUP2 DUP7 ADD PUSH1 0x0 JUMPDEST DUP5 DUP2 LT ISZERO PUSH2 0x16ED JUMPI PUSH1 0x1F NOT DUP7 DUP5 SUB ADD DUP10 MSTORE PUSH2 0x16DB DUP4 DUP4 MLOAD PUSH2 0x1655 JUMP JUMPDEST SWAP9 DUP5 ADD SWAP9 SWAP3 POP SWAP1 DUP4 ADD SWAP1 PUSH1 0x1 ADD PUSH2 0x16BF JUMP JUMPDEST POP SWAP1 SWAP8 SWAP7 POP POP POP POP POP POP POP JUMP JUMPDEST PUSH1 0x20 DUP2 MSTORE PUSH1 0x0 PUSH2 0x156E PUSH1 0x20 DUP4 ADD DUP5 PUSH2 0x16A2 JUMP JUMPDEST PUSH1 0x20 DUP2 MSTORE PUSH1 0x0 PUSH2 0x156E PUSH1 0x20 DUP4 ADD DUP5 PUSH2 0x1655 JUMP JUMPDEST PUSH1 0x0 PUSH1 0x20 DUP3 DUP5 SUB SLT ISZERO PUSH2 0x1732 JUMPI PUSH1 0x0 DUP1 REVERT JUMPDEST POP CALLDATALOAD SWAP2 SWAP1 POP JUMP JUMPDEST PUSH1 0x40 DUP2 MSTORE PUSH1 0x0 PUSH2 0x174C PUSH1 0x40 DUP4 ADD DUP6 PUSH2 0x16A2 JUMP JUMPDEST DUP3 DUP2 SUB PUSH1 0x20 DUP5 ADD MSTORE PUSH2 0x175E DUP2 DUP6 PUSH2 0x1520 JUMP JUMPDEST SWAP6 SWAP5 POP POP POP POP POP JUMP JUMPDEST DUP1 ISZERO ISZERO DUP2 EQ PUSH2 0x1508 JUMPI PUSH1 0x0 DUP1 REVERT JUMPDEST PUSH1 0x0 DUP1 PUSH1 0x40 DUP4 DUP6 SUB SLT ISZERO PUSH2 0x1788 JUMPI PUSH1 0x0 DUP1 REVERT JUMPDEST DUP3 CALLDATALOAD PUSH8 0xFFFFFFFFFFFFFFFF DUP2 GT ISZERO PUSH2 0x179F JUMPI PUSH1 0x0 DUP1 REVERT JUMPDEST PUSH2 0x17AB DUP6 DUP3 DUP7 ADD PUSH2 0x158B JUMP JUMPDEST SWAP3 POP POP PUSH1 0x20 DUP4 ADD CALLDATALOAD PUSH2 0x17BC DUP2 PUSH2 0x1767 JUMP JUMPDEST DUP1 SWAP2 POP POP SWAP3 POP SWAP3 SWAP1 POP JUMP JUMPDEST PUSH1 0x20 DUP1 DUP3 MSTORE PUSH1 0x16 SWAP1 DUP3 ADD MSTORE PUSH22 0x2A3434B990383937B532B1BA1034B99031B637B9B297 PUSH1 0x51 SHL PUSH1 0x40 DUP3 ADD MSTORE PUSH1 0x60 ADD SWAP1 JUMP JUMPDEST PUSH1 0x20 DUP1 DUP3 MSTORE PUSH1 0x17 SWAP1 DUP3 ADD MSTORE PUSH32 0x4E656564206F776E6572207065726D697373696F6E732E000000000000000000 PUSH1 0x40 DUP3 ADD MSTORE PUSH1 0x60 ADD SWAP1 JUMP JUMPDEST PUSH1 0x40 DUP2 MSTORE PUSH1 0x0 PUSH2 0x1841 PUSH1 0x40 DUP4 ADD DUP6 PUSH2 0x1655 JUMP JUMPDEST SWAP1 POP PUSH1 0x1 DUP1 PUSH1 0xA0 SHL SUB DUP4 AND PUSH1 0x20 DUP4 ADD MSTORE SWAP4 SWAP3 POP POP POP JUMP JUMPDEST PUSH1 0x1 DUP2 DUP2 SHR SWAP1 DUP3 AND DUP1 PUSH2 0x186C JUMPI PUSH1 0x7F DUP3 AND SWAP2 POP JUMPDEST PUSH1 0x20 DUP3 LT DUP2 SUB PUSH2 0x188C JUMPI PUSH4 0x4E487B71 PUSH1 0xE0 SHL PUSH1 0x0 MSTORE PUSH1 0x22 PUSH1 0x4 MSTORE PUSH1 0x24 PUSH1 0x0 REVERT JUMPDEST POP SWAP2 SWAP1 POP JUMP JUMPDEST PUSH1 0x0 PUSH1 0x20 DUP3 DUP5 SUB SLT ISZERO PUSH2 0x18A4 JUMPI PUSH1 0x0 DUP1 REVERT JUMPDEST DUP2 MLOAD PUSH2 0x156E DUP2 PUSH2 0x1767 JUMP JUMPDEST PUSH4 0x4E487B71 PUSH1 0xE0 SHL PUSH1 0x0 MSTORE PUSH1 0x32 PUSH1 0x4 MSTORE PUSH1 0x24 PUSH1 0x0 REVERT JUMPDEST PUSH1 0x0 DUP1 DUP4 SLOAD PUSH2 0x18D3 DUP2 PUSH2 0x1858 JUMP JUMPDEST PUSH1 0x1 DUP3 DUP2 AND DUP1 ISZERO PUSH2 0x18EB JUMPI PUSH1 0x1 DUP2 EQ PUSH2 0x18FC JUMPI PUSH2 0x192B JUMP JUMPDEST PUSH1 0xFF NOT DUP5 AND DUP8 MSTORE DUP3 DUP8 ADD SWAP5 POP PUSH2 0x192B JUMP JUMPDEST DUP8 PUSH1 0x0 MSTORE PUSH1 0x20 DUP1 PUSH1 0x0 KECCAK256 PUSH1 0x0 JUMPDEST DUP6 DUP2 LT ISZERO PUSH2 0x1922 JUMPI DUP2 SLOAD DUP11 DUP3 ADD MSTORE SWAP1 DUP5 ADD SWAP1 DUP3 ADD PUSH2 0x1909 JUMP JUMPDEST POP POP POP DUP3 DUP8 ADD SWAP5 POP JUMPDEST POP SWAP3 SWAP7 SWAP6 POP POP POP POP POP POP JUMP JUMPDEST PUSH4 0x4E487B71 PUSH1 0xE0 SHL PUSH1 0x0 MSTORE PUSH1 0x11 PUSH1 0x4 MSTORE PUSH1 0x24 PUSH1 0x0 REVERT JUMPDEST PUSH1 0x0 DUP3 DUP3 LT ISZERO PUSH2 0x195F JUMPI PUSH2 0x195F PUSH2 0x1937 JUMP JUMPDEST POP SUB SWAP1 JUMP JUMPDEST PUSH1 0x40 DUP2 MSTORE PUSH1 0x0 DUP1 DUP5 SLOAD PUSH2 0x1976 DUP2 PUSH2 0x1858 JUMP JUMPDEST DUP1 PUSH1 0x40 DUP7 ADD MSTORE PUSH1 0x60 PUSH1 0x1 DUP1 DUP5 AND PUSH1 0x0 DUP2 EQ PUSH2 0x1998 JUMPI PUSH1 0x1 DUP2 EQ PUSH2 0x19AC JUMPI PUSH2 0x19DD JUMP JUMPDEST PUSH1 0xFF NOT DUP6 AND DUP9 DUP5 ADD MSTORE PUSH1 0x80 DUP9 ADD SWAP6 POP PUSH2 0x19DD JUMP JUMPDEST DUP10 PUSH1 0x0 MSTORE PUSH1 0x20 DUP1 PUSH1 0x0 KECCAK256 PUSH1 0x0 JUMPDEST DUP7 DUP2 LT ISZERO PUSH2 0x19D4 JUMPI DUP2 SLOAD DUP12 DUP3 ADD DUP8 ADD MSTORE SWAP1 DUP5 ADD SWAP1 DUP3 ADD PUSH2 0x19B9 JUMP JUMPDEST DUP11 ADD DUP6 ADD SWAP8 POP POP POP JUMPDEST POP POP POP POP PUSH1 0x1 PUSH1 0x1 PUSH1 0xA0 SHL SUB SWAP5 SWAP1 SWAP5 AND PUSH1 0x20 SWAP4 SWAP1 SWAP4 ADD SWAP3 SWAP1 SWAP3 MSTORE POP SWAP3 SWAP2 POP POP JUMP JUMPDEST PUSH4 0x4E487B71 PUSH1 0xE0 SHL PUSH1 0x0 MSTORE PUSH1 0x31 PUSH1 0x4 MSTORE PUSH1 0x24 PUSH1 0x0 REVERT JUMPDEST PUSH1 0x0 PUSH1 0x1 DUP3 ADD PUSH2 0x1A26 JUMPI PUSH2 0x1A26 PUSH2 0x1937 JUMP JUMPDEST POP PUSH1 0x1 ADD SWAP1 JUMP JUMPDEST PUSH1 0x0 DUP3 NOT DUP3 GT ISZERO PUSH2 0x1A40 JUMPI PUSH2 0x1A40 PUSH2 0x1937 JUMP JUMPDEST POP ADD SWAP1 JUMP INVALID LOG2 PUSH5 0x6970667358 0x22 SLT KECCAK256 0xBD PC DUP9 LT SUB PUSH27 0x6F2F3ABCB7A51F6723153A1112D8524F5192A324A005877DC8BD64 PUSH20 0x6F6C634300080E00330000000000000000000000 ",
  "sha1": "1861a0db682fd44121b9e72c0e62a54ab26cd361",
  "source": "// SPDX-License-Identifier: MIT\n\npragma solidity ^0.8.13;\n\nimport '../interfaces/CrowdfundingWithTypes.sol';\n\ncontract Project {\n\n    // private attributes \n    address payable project_owner;\n    CrowdfundingWithTypes main_app;\n\n    address payable[] funders;\n    mapping(address=>bool) funder_exists;\n    mapping(address=>uint256) funder_to_amount;\n    mapping(address=>string) funder_to_name;\n\n    // public attributes\n    string public project_name;\n    string public project_description;\n    uint256 public target_amount;\n    uint256 public date_limit;\n    uint256 public max_recorded_amount;\n    string public image_url;\n    uint256 public created;\n    bool public is_closed;\n\n    string[] public types;\n    uint256[] public fixed_amounts_to_donate;\n\n    constructor(\n        address owner,\n        string memory name,\n        string memory desc,\n        uint256 target,\n        uint256 end_date,\n        string memory image_add,\n        string[] memory types_arr,\n        uint256[] memory amounts_to_donate,\n        address app) {\n            /* \n             * main app project factory will activate this constuctor.\n            */\n            project_owner = payable(owner);\n            project_name = name;\n            project_description = desc;\n            target_amount = target;\n            date_limit = end_date;\n            image_url = image_add;\n            types = types_arr;\n            fixed_amounts_to_donate = amounts_to_donate;\n            main_app = CrowdfundingWithTypes(app);\n            created = block.timestamp;\n            is_closed = false;\n    }\n\n    function fund_project(string memory funder_name, bool is_anonymous) \n    public payable {\n        /* \n         * this function will be used bu users to fund this project.\n         * - add the funder to project's funders if it is his first funding \n         *   for this project.\n         * - add the funder name or \"Anonymous\" to the funders history.\n         * - update max recorded balance for this project.\n        */\n        require(is_closed == false, \"This project is close.\");\n        require(this.is_fail() == false, \"This project was failed.\");\n\n        funder_to_amount[msg.sender] += msg.value;\n\n        if(!funder_exists[msg.sender]){\n            funders.push(payable(msg.sender));\n            funder_exists[msg.sender] = true;\n        }\n        \n        if(is_anonymous){\n            funder_to_name[msg.sender] = \"Anonymous\"; \n        }\n        else{\n            funder_to_name[msg.sender] = funder_name;\n        }\n        \n        max_recorded_amount = address(this).balance;\n    }\n\n    function return_funds_to_funders() public {\n        /*\n         * everyone can demand refund.\n         * refund can be activated only if those two conditions fulfiled:\n         * 1. project has fail.\n         * 2. current project blance is above 0.\n        */\n        require(is_closed == false, \"This project is close.\");\n        require((this.is_fail() == true) && (address(this).balance > 0),\n        \"Project has not failed yet, or doesn't have any funds.\");\n\n        for(uint i=0; i<funders.length; i++){\n            funders[i].transfer(funder_to_amount[funders[i]]);\n        }\n\n        is_closed = true;\n    }\n\n    function owner_withdraw() public {\n        /*\n         * only the owner can withdraw funds uppon success.\n         * withdraw can be made only if those two conditions fulfiled:\n         * 1. project has succeed \n         * 2. the owner sent the request.\n        */\n        require(is_closed == false, \"This project is close.\");\n        require((this.is_success() == true) && (msg.sender == project_owner),\n        \"Project has not succeed yet, or you are not the owner.\");\n\n        project_owner.transfer(address(this).balance);\n\n        is_closed = true;\n    }\n\n    function get_curr_total_funds() public view returns(uint256){\n\n        return address(this).balance;\n    }\n\n    function is_success() public view returns(bool){\n        /*\n         * if timie limit is bigger than now (didn't reach)\n         * and curr total funds is bigger or equale than target amount,\n         * then project was succeed.\n        */\n        uint256 curr_amount = get_curr_total_funds();\n        if(curr_amount >= target_amount){\n            return true;\n        }\n        return false;\n    }\n\n    function is_fail() public view returns(bool){\n        /*\n         * if timie limit is less than now (didn't reach)\n         * and curr total funds is less than target amount,\n         * then project was failed.\n         */\n        uint256 curr_amount = get_curr_total_funds();\n        if((date_limit < block.timestamp) && (curr_amount < target_amount)){\n            return true;\n        }\n        return false;\n    }\n\n    function add_fix_amount(uint256 amount) public {\n\n        require(is_closed == false, \"This project is close.\");\n        require(msg.sender == project_owner, \"Need owner permissions.\");\n\n        fixed_amounts_to_donate.push(amount);\n    }\n\n    function remove_fix_amount(uint256 amount) public {\n\n        require(is_closed == false, \"This project is close.\");\n        require(msg.sender == project_owner, \"Need owner permissions.\");\n\n        for(uint i=0; i<fixed_amounts_to_donate.length; i++){\n            if(fixed_amounts_to_donate[i] == amount){\n                uint256 last_index = fixed_amounts_to_donate.length - 1;\n                fixed_amounts_to_donate[i] = fixed_amounts_to_donate[last_index];\n                fixed_amounts_to_donate.pop();\n                break;\n            }\n        }\n    }\n\n    function add_type(string memory project_type) public {\n        \n        require(is_closed == false, \"This project is close.\"); \n        require(msg.sender == project_owner, \"Need owner permissions.\");\n\n        types.push(project_type);\n        main_app.add_project_to_type_mapping(project_type, address(this));\n    }\n\n    \n    function remove_type(string memory project_type) public {\n        \n        require(is_closed == false, \"This project is close.\"); \n        require(msg.sender == project_owner, \"Need owner permissions.\");\n\n        /*\n         * the conversion inside the condition is needed,\n         * since soldity don't comapre memory str with storage str.\n        */\n        for(uint i=0; i<types.length; i++){\n            if(keccak256(bytes(types[i])) == keccak256(bytes(project_type))){\n                uint256 last_index = types.length - 1;\n                main_app.remove_project_from_type_mapping(types[i], address(this));\n                types[i] = types[last_index];\n                types.pop();\n                break;\n            }\n        }\n    }\n\n    function change_picture(string memory picture_url) public {\n        \n        require(is_closed == false, \"This project is close.\"); \n        require(msg.sender == project_owner, \"Need owner permissions.\");\n        \n        image_url = picture_url;\n    }\n\n    function change_project_name(string memory new_name) public {\n        \n        require(is_closed == false, \"This project is close.\"); \n        require(msg.sender == project_owner, \"Need owner permissions.\");\n        \n        project_name = new_name;\n    }\n\n    function change_project_description(string memory new_desc) public {\n        \n        require(is_closed == false, \"This project is close.\"); \n        require(msg.sender == project_owner, \"Need owner permissions.\");\n        \n        project_description = new_desc;\n    }\n\n    function get_project_types() public view returns(string[] memory){\n        return types;\n    }\n\n    function get_fixed_amounts() public view returns(uint256[] memory){\n        return fixed_amounts_to_donate;\n    }\n\n    function get_name_to_amount() public view \n    returns(string[] memory,\n            uint256[] memory){\n        /* \n         * This function will be used to get funding history.\n         * returns arrays of funders names and funders amounts.\n         * for example funder named funders_names[i] donate to this project\n         * funders_amounts[i].\n         * the front end will get those arrays and will display funding history.\n        */\n        string[] memory funders_names = new string[](funders.length);\n        uint256[] memory funders_amounts = new uint256[](funders.length);\n\n        for(uint i=0; i<funders.length; i++){\n            funders_names[i] = funder_to_name[funders[i]];\n            funders_amounts[i] = funder_to_amount[funders[i]];\n        }\n        return (funders_names, funders_amounts);\n    }\n\n    function set_time_limit(uint256 new_time) public{\n        \n        require(is_closed == false, \"This project is close.\"); \n        require(msg.sender == project_owner, \"Need owner permissions.\");\n\n        date_limit = new_time;\n    }\n}",
  "sourcePath": "contracts/Project.sol",
  "type": "contract"
}