{
  "abi": [
    {
      "inputs": [
        {
          "internalType": "address",
          "name": "owner",
          "type": "address"
        },
        {
          "internalType": "string",
          "name": "name",
          "type": "string"
        },
        {
          "internalType": "string",
          "name": "desc",
          "type": "string"
        },
        {
          "internalType": "uint256",
          "name": "target",
          "type": "uint256"
        },
        {
          "internalType": "uint256",
          "name": "end_date",
          "type": "uint256"
        },
        {
          "internalType": "string",
          "name": "image_add",
          "type": "string"
        },
        {
          "internalType": "string[]",
          "name": "types_arr",
          "type": "string[]"
        },
        {
          "internalType": "uint256[]",
          "name": "amounts_to_donate",
          "type": "uint256[]"
        },
        {
          "internalType": "address",
          "name": "app",
          "type": "address"
        }
      ],
      "stateMutability": "nonpayable",
      "type": "constructor"
    },
    {
      "inputs": [
        {
          "internalType": "uint256",
          "name": "amount",
          "type": "uint256"
        }
      ],
      "name": "add_fix_amount",
      "outputs": [],
      "stateMutability": "nonpayable",
      "type": "function"
    },
    {
      "inputs": [
        {
          "internalType": "string",
          "name": "project_type",
          "type": "string"
        }
      ],
      "name": "add_type",
      "outputs": [],
      "stateMutability": "nonpayable",
      "type": "function"
    },
    {
      "inputs": [
        {
          "internalType": "string",
          "name": "picture_url",
          "type": "string"
        }
      ],
      "name": "change_picture",
      "outputs": [],
      "stateMutability": "nonpayable",
      "type": "function"
    },
    {
      "inputs": [
        {
          "internalType": "string",
          "name": "new_desc",
          "type": "string"
        }
      ],
      "name": "change_project_description",
      "outputs": [],
      "stateMutability": "nonpayable",
      "type": "function"
    },
    {
      "inputs": [
        {
          "internalType": "string",
          "name": "new_name",
          "type": "string"
        }
      ],
      "name": "change_project_name",
      "outputs": [],
      "stateMutability": "nonpayable",
      "type": "function"
    },
    {
      "inputs": [],
      "name": "created",
      "outputs": [
        {
          "internalType": "uint256",
          "name": "",
          "type": "uint256"
        }
      ],
      "stateMutability": "view",
      "type": "function"
    },
    {
      "inputs": [],
      "name": "date_limit",
      "outputs": [
        {
          "internalType": "uint256",
          "name": "",
          "type": "uint256"
        }
      ],
      "stateMutability": "view",
      "type": "function"
    },
    {
      "inputs": [
        {
          "internalType": "uint256",
          "name": "",
          "type": "uint256"
        }
      ],
      "name": "fixed_amounts_to_donate",
      "outputs": [
        {
          "internalType": "uint256",
          "name": "",
          "type": "uint256"
        }
      ],
      "stateMutability": "view",
      "type": "function"
    },
    {
      "inputs": [
        {
          "internalType": "string",
          "name": "funder_name",
          "type": "string"
        },
        {
          "internalType": "bool",
          "name": "is_anonymous",
          "type": "bool"
        }
      ],
      "name": "fund_project",
      "outputs": [],
      "stateMutability": "payable",
      "type": "function"
    },
    {
      "inputs": [],
      "name": "get_curr_total_funds",
      "outputs": [
        {
          "internalType": "uint256",
          "name": "",
          "type": "uint256"
        }
      ],
      "stateMutability": "view",
      "type": "function"
    },
    {
      "inputs": [],
      "name": "get_fixed_amounts",
      "outputs": [
        {
          "internalType": "uint256[]",
          "name": "",
          "type": "uint256[]"
        }
      ],
      "stateMutability": "view",
      "type": "function"
    },
    {
      "inputs": [],
      "name": "get_name_to_amount",
      "outputs": [
        {
          "internalType": "string[]",
          "name": "",
          "type": "string[]"
        },
        {
          "internalType": "uint256[]",
          "name": "",
          "type": "uint256[]"
        }
      ],
      "stateMutability": "view",
      "type": "function"
    },
    {
      "inputs": [],
      "name": "get_project_types",
      "outputs": [
        {
          "internalType": "string[]",
          "name": "",
          "type": "string[]"
        }
      ],
      "stateMutability": "view",
      "type": "function"
    },
    {
      "inputs": [],
      "name": "image_url",
      "outputs": [
        {
          "internalType": "string",
          "name": "",
          "type": "string"
        }
      ],
      "stateMutability": "view",
      "type": "function"
    },
    {
      "inputs": [],
      "name": "is_closed",
      "outputs": [
        {
          "internalType": "bool",
          "name": "",
          "type": "bool"
        }
      ],
      "stateMutability": "view",
      "type": "function"
    },
    {
      "inputs": [],
      "name": "is_fail",
      "outputs": [
        {
          "internalType": "bool",
          "name": "",
          "type": "bool"
        }
      ],
      "stateMutability": "view",
      "type": "function"
    },
    {
      "inputs": [],
      "name": "is_success",
      "outputs": [
        {
          "internalType": "bool",
          "name": "",
          "type": "bool"
        }
      ],
      "stateMutability": "view",
      "type": "function"
    },
    {
      "inputs": [],
      "name": "max_recorded_amount",
      "outputs": [
        {
          "internalType": "uint256",
          "name": "",
          "type": "uint256"
        }
      ],
      "stateMutability": "view",
      "type": "function"
    },
    {
      "inputs": [],
      "name": "owner_withdraw",
      "outputs": [],
      "stateMutability": "nonpayable",
      "type": "function"
    },
    {
      "inputs": [],
      "name": "project_description",
      "outputs": [
        {
          "internalType": "string",
          "name": "",
          "type": "string"
        }
      ],
      "stateMutability": "view",
      "type": "function"
    },
    {
      "inputs": [],
      "name": "project_name",
      "outputs": [
        {
          "internalType": "string",
          "name": "",
          "type": "string"
        }
      ],
      "stateMutability": "view",
      "type": "function"
    },
    {
      "inputs": [
        {
          "internalType": "uint256",
          "name": "amount",
          "type": "uint256"
        }
      ],
      "name": "remove_fix_amount",
      "outputs": [],
      "stateMutability": "nonpayable",
      "type": "function"
    },
    {
      "inputs": [
        {
          "internalType": "string",
          "name": "project_type",
          "type": "string"
        }
      ],
      "name": "remove_type",
      "outputs": [],
      "stateMutability": "nonpayable",
      "type": "function"
    },
    {
      "inputs": [],
      "name": "return_funds_to_funders",
      "outputs": [],
      "stateMutability": "nonpayable",
      "type": "function"
    },
    {
      "inputs": [
        {
          "internalType": "address payable",
          "name": "funder_add",
          "type": "address"
        }
      ],
      "name": "return_funds_to_single_funder",
      "outputs": [],
      "stateMutability": "nonpayable",
      "type": "function"
    },
    {
      "inputs": [
        {
          "internalType": "uint256",
          "name": "new_time",
          "type": "uint256"
        }
      ],
      "name": "set_time_limit",
      "outputs": [],
      "stateMutability": "nonpayable",
      "type": "function"
    },
    {
      "inputs": [],
      "name": "target_amount",
      "outputs": [
        {
          "internalType": "uint256",
          "name": "",
          "type": "uint256"
        }
      ],
      "stateMutability": "view",
      "type": "function"
    },
    {
      "inputs": [
        {
          "internalType": "uint256",
          "name": "",
          "type": "uint256"
        }
      ],
      "name": "types",
      "outputs": [
        {
          "internalType": "string",
          "name": "",
          "type": "string"
        }
      ],
      "stateMutability": "view",
      "type": "function"
    }
  ],
  "bytecode": "60806040523480156200001157600080fd5b5060405162002312380380620023128339810160408190526200003491620004c7565b600080546001600160a01b0319166001600160a01b038b161790558751620000649060079060208b019062000104565b5086516200007a9060089060208a019062000104565b506009869055600a85905583516200009a90600c90602087019062000104565b508251620000b090600f90602086019062000193565b508151620000c6906010906020850190620001f3565b50600180546001600160a01b0319166001600160a01b0392909216919091179055505042600d555050600e805460ff19169055506200061e92505050565b8280546200011290620005e2565b90600052602060002090601f01602090048101928262000136576000855562000181565b82601f106200015157805160ff191683800117855562000181565b8280016001018555821562000181579182015b828111156200018157825182559160200191906001019062000164565b506200018f92915062000230565b5090565b828054828255906000526020600020908101928215620001e5579160200282015b82811115620001e55782518051620001d491849160209091019062000104565b5091602001919060010190620001b4565b506200018f92915062000247565b8280548282559060005260206000209081019282156200018157916020028201828111156200018157825182559160200191906001019062000164565b5b808211156200018f576000815560010162000231565b808211156200018f5760006200025e828262000268565b5060010162000247565b5080546200027690620005e2565b6000825580601f1062000287575050565b601f016020900490600052602060002090810190620002a7919062000230565b50565b80516001600160a01b0381168114620002c257600080fd5b919050565b634e487b7160e01b600052604160045260246000fd5b604051601f8201601f191681016001600160401b0381118282101715620003085762000308620002c7565b604052919050565b600082601f8301126200032257600080fd5b81516001600160401b038111156200033e576200033e620002c7565b602062000354601f8301601f19168201620002dd565b82815285828487010111156200036957600080fd5b60005b83811015620003895785810183015182820184015282016200036c565b838111156200039b5760008385840101525b5095945050505050565b60006001600160401b03821115620003c157620003c1620002c7565b5060051b60200190565b600082601f830112620003dd57600080fd5b81516020620003f6620003f083620003a5565b620002dd565b82815260059290921b840181019181810190868411156200041657600080fd5b8286015b848110156200045a5780516001600160401b038111156200043b5760008081fd5b6200044b8986838b010162000310565b8452509183019183016200041a565b509695505050505050565b600082601f8301126200047757600080fd5b815160206200048a620003f083620003a5565b82815260059290921b84018101918181019086841115620004aa57600080fd5b8286015b848110156200045a5780518352918301918301620004ae565b60008060008060008060008060006101208a8c031215620004e757600080fd5b620004f28a620002aa565b60208b01519099506001600160401b03808211156200051057600080fd5b6200051e8d838e0162000310565b995060408c01519150808211156200053557600080fd5b620005438d838e0162000310565b985060608c0151975060808c0151965060a08c01519150808211156200056857600080fd5b620005768d838e0162000310565b955060c08c01519150808211156200058d57600080fd5b6200059b8d838e01620003cb565b945060e08c0151915080821115620005b257600080fd5b50620005c18c828d0162000465565b925050620005d36101008b01620002aa565b90509295985092959850929598565b600181811c90821680620005f757607f821691505b6020821081036200061857634e487b7160e01b600052602260045260246000fd5b50919050565b611ce4806200062e6000396000f3fe6080604052600436106101b75760003560e01c8063824f4baf116100ec578063cefbfa361161008a578063e68ec6b711610064578063e68ec6b714610478578063ece241cb1461049b578063f0528f83146104b1578063fa112567146104d157600080fd5b8063cefbfa3614610429578063cfd9866b14610449578063dc9c9f331461046357600080fd5b8063b774a6c6116100c6578063b774a6c6146103bf578063bc65fc5f146103df578063bcccba14146103f4578063c6b0ffd01461041457600080fd5b8063824f4baf146103745780638c234298146103895780639f0826c41461039f57600080fd5b806334ef39f111610159578063539e366c11610133578063539e366c1461030b57806363391f8a1461032b5780636bbeefea1461033e57806381e0ffae1461035e57600080fd5b806334ef39f1146102af57806345f93331146102c45780634eb2b29d146102e657600080fd5b806326e56d5e1161019557806326e56d5e146102295780632b85eb5f146102495780632bb602c81461026b578063325a19f11461028b57600080fd5b80630ffffec4146101bc5780631fd47b7e146101e75780632277620614610209575b600080fd5b3480156101c857600080fd5b506101d16104e4565b6040516101de9190611745565b60405180910390f35b3480156101f357600080fd5b50610207610202366004611802565b61053c565b005b34801561021557600080fd5b50610207610224366004611802565b6105a9565b34801561023557600080fd5b50610207610244366004611802565b610609565b34801561025557600080fd5b5061025e610701565b6040516101de91906118e4565b34801561027757600080fd5b506102076102863660046118f7565b6107da565b34801561029757600080fd5b506102a1600d5481565b6040519081526020016101de565b3480156102bb57600080fd5b5061020761091a565b3480156102d057600080fd5b506102d9610a6f565b6040516101de9190611920565b3480156102f257600080fd5b506102fb610afd565b60405190151581526020016101de565b34801561031757600080fd5b50610207610326366004611802565b610b2a565b34801561033757600080fd5b50476102a1565b34801561034a57600080fd5b50610207610359366004611933565b610b8a565b34801561036a57600080fd5b506102a160095481565b34801561038057600080fd5b506102d9610bdc565b34801561039557600080fd5b506102a1600a5481565b3480156103ab57600080fd5b506102076103ba366004611802565b610be9565b3480156103cb57600080fd5b506102076103da366004611933565b610db3565b3480156103eb57600080fd5b50610207610ec0565b34801561040057600080fd5b506102a161040f366004611933565b611073565b34801561042057600080fd5b506102fb611094565b34801561043557600080fd5b506102d9610444366004611933565b6110aa565b34801561045557600080fd5b50600e546102fb9060ff1681565b34801561046f57600080fd5b506102d96110d5565b34801561048457600080fd5b5061048d6110e2565b6040516101de92919061194c565b3480156104a757600080fd5b506102a1600b5481565b3480156104bd57600080fd5b506102076104cc366004611933565b6112eb565b6102076104df366004611988565b61136d565b6060601080548060200260200160405190810160405280929190818152602001828054801561053257602002820191906000526020600020905b81548152602001906001019080831161051e575b5050505050905090565b600e5460ff16156105685760405162461bcd60e51b815260040161055f906119da565b60405180910390fd5b6000546001600160a01b031633146105925760405162461bcd60e51b815260040161055f90611a0a565b80516105a59060089060208401906115c0565b5050565b600e5460ff16156105cc5760405162461bcd60e51b815260040161055f906119da565b6000546001600160a01b031633146105f65760405162461bcd60e51b815260040161055f90611a0a565b80516105a590600c9060208401906115c0565b600e5460ff161561062c5760405162461bcd60e51b815260040161055f906119da565b6000546001600160a01b031633146106565760405162461bcd60e51b815260040161055f90611a0a565b600f80546001810182556000919091528151610699917f8d1108e10bcb7c27dddfc02ed9d693a074039d026cf4ea4240b40f7d581ac802019060208401906115c0565b5060015460405163302d379360e11b81526001600160a01b039091169063605a6f26906106cc9084903090600401611a41565b600060405180830381600087803b1580156106e657600080fd5b505af11580156106fa573d6000803e3d6000fd5b5050505050565b6060600f805480602002602001604051908101604052809291908181526020016000905b828210156107d157838290600052602060002001805461074490611a6b565b80601f016020809104026020016040519081016040528092919081815260200182805461077090611a6b565b80156107bd5780601f10610792576101008083540402835291602001916107bd565b820191906000526020600020905b8154815290600101906020018083116107a057829003601f168201915b505050505081526020019060010190610725565b50505050905090565b600e5460ff16156107fd5760405162461bcd60e51b815260040161055f906119da565b306001600160a01b0316634eb2b29d6040518163ffffffff1660e01b8152600401602060405180830381865afa15801561083b573d6000803e3d6000fd5b505050506040513d601f19601f8201168201806040525081019061085f9190611aa5565b151560011480156108705750600047115b61088c5760405162461bcd60e51b815260040161055f90611ac2565b6001600160a01b0381166000908152600460205260409020541561090f576001600160a01b03811660008181526004602052604080822054905181156108fc0292818181858888f193505050501580156108ea573d6000803e3d6000fd5b506001600160a01b0381166000908152600660205260409020805460ff191660011790555b61091761155b565b50565b600e5460ff161561093d5760405162461bcd60e51b815260040161055f906119da565b306001600160a01b031663c6b0ffd06040518163ffffffff1660e01b8152600401602060405180830381865afa15801561097b573d6000803e3d6000fd5b505050506040513d601f19601f8201168201806040525081019061099f9190611aa5565b151560011480156109ba57506000546001600160a01b031633145b610a255760405162461bcd60e51b815260206004820152603660248201527f50726f6a65637420686173206e6f742073756363656564207965742c206f72206044820152753cb7ba9030b932903737ba103a34329037bbb732b91760511b606482015260840161055f565b600080546040516001600160a01b03909116914780156108fc02929091818181858888f19350505050158015610a5f573d6000803e3d6000fd5b50600e805460ff19166001179055565b60088054610a7c90611a6b565b80601f0160208091040260200160405190810160405280929190818152602001828054610aa890611a6b565b8015610af55780601f10610aca57610100808354040283529160200191610af5565b820191906000526020600020905b815481529060010190602001808311610ad857829003601f168201915b505050505081565b60008047905042600a54108015610b15575060095481105b15610b2257600191505090565b600091505090565b600e5460ff1615610b4d5760405162461bcd60e51b815260040161055f906119da565b6000546001600160a01b03163314610b775760405162461bcd60e51b815260040161055f90611a0a565b80516105a59060079060208401906115c0565b600e5460ff1615610bad5760405162461bcd60e51b815260040161055f906119da565b6000546001600160a01b03163314610bd75760405162461bcd60e51b815260040161055f90611a0a565b600a55565b600c8054610a7c90611a6b565b600e5460ff1615610c0c5760405162461bcd60e51b815260040161055f906119da565b6000546001600160a01b03163314610c365760405162461bcd60e51b815260040161055f90611a0a565b60005b600f548110156105a5578180519060200120600f8281548110610c5e57610c5e611b18565b90600052602060002001604051610c759190611b2e565b604051809103902003610da157600f54600090610c9490600190611bb6565b600154600f80549293506001600160a01b03909116916311357471919085908110610cc157610cc1611b18565b90600052602060002001306040518363ffffffff1660e01b8152600401610ce9929190611bcd565b600060405180830381600087803b158015610d0357600080fd5b505af1158015610d17573d6000803e3d6000fd5b50505050600f8181548110610d2e57610d2e611b18565b90600052602060002001600f8381548110610d4b57610d4b611b18565b90600052602060002001908054610d6190611a6b565b610d6c929190611644565b50600f805480610d7e57610d7e611c67565b600190038181906000526020600020016000610d9a91906116bf565b9055505050565b80610dab81611c7d565b915050610c39565b600e5460ff1615610dd65760405162461bcd60e51b815260040161055f906119da565b6000546001600160a01b03163314610e005760405162461bcd60e51b815260040161055f90611a0a565b60005b6010548110156105a5578160108281548110610e2157610e21611b18565b906000526020600020015403610eae57601054600090610e4390600190611bb6565b905060108181548110610e5857610e58611b18565b906000526020600020015460108381548110610e7657610e76611b18565b6000918252602090912001556010805480610e9357610e93611c67565b60019003818190600052602060002001600090559055505050565b80610eb881611c7d565b915050610e03565b600e5460ff1615610ee35760405162461bcd60e51b815260040161055f906119da565b306001600160a01b0316634eb2b29d6040518163ffffffff1660e01b8152600401602060405180830381865afa158015610f21573d6000803e3d6000fd5b505050506040513d601f19601f82011682018060405250810190610f459190611aa5565b15156001148015610f565750600047115b610f725760405162461bcd60e51b815260040161055f90611ac2565b60005b600254811015610a5f5760028181548110610f9257610f92611b18565b6000918252602082200154600280546001600160a01b03909216926108fc926004929086908110610fc557610fc5611b18565b60009182526020808320909101546001600160a01b03168352820192909252604090810182205490518115909302929091818181858888f19350505050158015611013573d6000803e3d6000fd5b506001600660006002848154811061102d5761102d611b18565b6000918252602080832091909101546001600160a01b031683528201929092526040019020805460ff19169115159190911790558061106b81611c7d565b915050610f75565b6010818154811061108357600080fd5b600091825260209091200154905081565b60095460009047908110610b2257600191505090565b600f81815481106110ba57600080fd5b906000526020600020016000915090508054610a7c90611a6b565b60078054610a7c90611a6b565b606080600060028054905067ffffffffffffffff8111156111055761110561175f565b60405190808252806020026020018201604052801561113857816020015b60608152602001906001900390816111235790505b5060025490915060009067ffffffffffffffff81111561115a5761115a61175f565b604051908082528060200260200182016040528015611183578160200160208202803683370190505b50905060005b6002548110156112e15760056000600283815481106111aa576111aa611b18565b60009182526020808320909101546001600160a01b03168352820192909252604001902080546111d990611a6b565b80601f016020809104026020016040519081016040528092919081815260200182805461120590611a6b565b80156112525780601f1061122757610100808354040283529160200191611252565b820191906000526020600020905b81548152906001019060200180831161123557829003601f168201915b505050505083828151811061126957611269611b18565b6020026020010181905250600460006002838154811061128b5761128b611b18565b60009182526020808320909101546001600160a01b0316835282019290925260400190205482518390839081106112c4576112c4611b18565b6020908102919091010152806112d981611c7d565b915050611189565b5090939092509050565b600e5460ff161561130e5760405162461bcd60e51b815260040161055f906119da565b6000546001600160a01b031633146113385760405162461bcd60e51b815260040161055f90611a0a565b601080546001810182556000919091527f1b6847dc741a1b0cd08d278845f9d819d87b734759afb55fe2de5cb82a9ae6720155565b600e5460ff16156113905760405162461bcd60e51b815260040161055f906119da565b306001600160a01b0316634eb2b29d6040518163ffffffff1660e01b8152600401602060405180830381865afa1580156113ce573d6000803e3d6000fd5b505050506040513d601f19601f820116820180604052508101906113f29190611aa5565b1561143f5760405162461bcd60e51b815260206004820152601860248201527f546869732070726f6a65637420776173206661696c65642e0000000000000000604482015260640161055f565b336000908152600460205260408120805434929061145e908490611c96565b90915550503360009081526003602052604090205460ff166114e8576002805460018181019092557f405787fa12a823e0f2b7631cc41b3ba8828b3321ca811111fa75cd3aa3bb5ace0180546001600160a01b031916339081179091556000908152600360209081526040808320805460ff19908116909517905560069091529020805490911690555b8015611531576040805180820182526009815268416e6f6e796d6f757360b81b6020808301918252336000908152600590915292909220905161152b92906115c0565b50611553565b3360009081526005602090815260409091208351611551928501906115c0565b505b505047600b55565b60005b600254811015610a5f57600660006002838154811061157f5761157f611b18565b60009182526020808320909101546001600160a01b0316835282019290925260400190205460ff166115ae5750565b806115b881611c7d565b91505061155e565b8280546115cc90611a6b565b90600052602060002090601f0160209004810192826115ee5760008555611634565b82601f1061160757805160ff1916838001178555611634565b82800160010185558215611634579182015b82811115611634578251825591602001919060010190611619565b506116409291506116f5565b5090565b82805461165090611a6b565b90600052602060002090601f0160209004810192826116725760008555611634565b82601f106116835780548555611634565b8280016001018555821561163457600052602060002091601f016020900482015b828111156116345782548255916001019190600101906116a4565b5080546116cb90611a6b565b6000825580601f106116db575050565b601f01602090049060005260206000209081019061091791905b5b8082111561164057600081556001016116f6565b600081518084526020808501945080840160005b8381101561173a5781518752958201959082019060010161171e565b509495945050505050565b602081526000611758602083018461170a565b9392505050565b634e487b7160e01b600052604160045260246000fd5b600082601f83011261178657600080fd5b813567ffffffffffffffff808211156117a1576117a161175f565b604051601f8301601f19908116603f011681019082821181831017156117c9576117c961175f565b816040528381528660208588010111156117e257600080fd5b836020870160208301376000602085830101528094505050505092915050565b60006020828403121561181457600080fd5b813567ffffffffffffffff81111561182b57600080fd5b61183784828501611775565b949350505050565b6000815180845260005b8181101561186557602081850181015186830182015201611849565b81811115611877576000602083870101525b50601f01601f19169290920160200192915050565b600082825180855260208086019550808260051b84010181860160005b848110156118d757601f198684030189526118c583835161183f565b988401989250908301906001016118a9565b5090979650505050505050565b602081526000611758602083018461188c565b60006020828403121561190957600080fd5b81356001600160a01b038116811461175857600080fd5b602081526000611758602083018461183f565b60006020828403121561194557600080fd5b5035919050565b60408152600061195f604083018561188c565b8281036020840152611971818561170a565b95945050505050565b801515811461091757600080fd5b6000806040838503121561199b57600080fd5b823567ffffffffffffffff8111156119b257600080fd5b6119be85828601611775565b92505060208301356119cf8161197a565b809150509250929050565b6020808252601690820152752a3434b990383937b532b1ba1034b99031b637b9b29760511b604082015260600190565b60208082526017908201527f4e656564206f776e6572207065726d697373696f6e732e000000000000000000604082015260600190565b604081526000611a54604083018561183f565b905060018060a01b03831660208301529392505050565b600181811c90821680611a7f57607f821691505b602082108103611a9f57634e487b7160e01b600052602260045260246000fd5b50919050565b600060208284031215611ab757600080fd5b81516117588161197a565b60208082526036908201527f50726f6a65637420686173206e6f74206661696c6564207965742c206f72206460408201527537b2b9b713ba103430bb329030b73c90333ab732399760511b606082015260800190565b634e487b7160e01b600052603260045260246000fd5b6000808354611b3c81611a6b565b60018281168015611b545760018114611b6557611b94565b60ff19841687528287019450611b94565b8760005260208060002060005b85811015611b8b5781548a820152908401908201611b72565b50505082870194505b50929695505050505050565b634e487b7160e01b600052601160045260246000fd5b600082821015611bc857611bc8611ba0565b500390565b604081526000808454611bdf81611a6b565b8060408601526060600180841660008114611c015760018114611c1557611c46565b60ff19851688840152608088019550611c46565b8960005260208060002060005b86811015611c3d5781548b8201870152908401908201611c22565b8a018501975050505b505050506001600160a01b0394909416602093909301929092525092915050565b634e487b7160e01b600052603160045260246000fd5b600060018201611c8f57611c8f611ba0565b5060010190565b60008219821115611ca957611ca9611ba0565b50019056fea2646970667358221220c70ff73974345981ed37d9fa274a023872bc7a1fd4c9a56f194389a52159411564736f6c634300080e0033",
  "bytecodeSha1": "16fd3992b569a4b0d34bba8a555756ee7e9985a5",
  "compiler": {
    "evm_version": "istanbul",
    "optimizer": {
      "enabled": true,
      "runs": 200
    },
    "version": "0.8.14+commit.80d49f37"
  },
  "contractName": "Project",
  "language": "Solidity",
  "natspec": {
    "kind": "dev",
    "methods": {},
    "version": 1
  },
  "opcodes": "PUSH1 0x80 PUSH1 0x40 MSTORE PUSH1 0x4 CALLDATASIZE LT PUSH2 0x1B7 JUMPI PUSH1 0x0 CALLDATALOAD PUSH1 0xE0 SHR DUP1 PUSH4 0x824F4BAF GT PUSH2 0xEC JUMPI DUP1 PUSH4 0xCEFBFA36 GT PUSH2 0x8A JUMPI DUP1 PUSH4 0xE68EC6B7 GT PUSH2 0x64 JUMPI DUP1 PUSH4 0xE68EC6B7 EQ PUSH2 0x478 JUMPI DUP1 PUSH4 0xECE241CB EQ PUSH2 0x49B JUMPI DUP1 PUSH4 0xF0528F83 EQ PUSH2 0x4B1 JUMPI DUP1 PUSH4 0xFA112567 EQ PUSH2 0x4D1 JUMPI PUSH1 0x0 DUP1 REVERT JUMPDEST DUP1 PUSH4 0xCEFBFA36 EQ PUSH2 0x429 JUMPI DUP1 PUSH4 0xCFD9866B EQ PUSH2 0x449 JUMPI DUP1 PUSH4 0xDC9C9F33 EQ PUSH2 0x463 JUMPI PUSH1 0x0 DUP1 REVERT JUMPDEST DUP1 PUSH4 0xB774A6C6 GT PUSH2 0xC6 JUMPI DUP1 PUSH4 0xB774A6C6 EQ PUSH2 0x3BF JUMPI DUP1 PUSH4 0xBC65FC5F EQ PUSH2 0x3DF JUMPI DUP1 PUSH4 0xBCCCBA14 EQ PUSH2 0x3F4 JUMPI DUP1 PUSH4 0xC6B0FFD0 EQ PUSH2 0x414 JUMPI PUSH1 0x0 DUP1 REVERT JUMPDEST DUP1 PUSH4 0x824F4BAF EQ PUSH2 0x374 JUMPI DUP1 PUSH4 0x8C234298 EQ PUSH2 0x389 JUMPI DUP1 PUSH4 0x9F0826C4 EQ PUSH2 0x39F JUMPI PUSH1 0x0 DUP1 REVERT JUMPDEST DUP1 PUSH4 0x34EF39F1 GT PUSH2 0x159 JUMPI DUP1 PUSH4 0x539E366C GT PUSH2 0x133 JUMPI DUP1 PUSH4 0x539E366C EQ PUSH2 0x30B JUMPI DUP1 PUSH4 0x63391F8A EQ PUSH2 0x32B JUMPI DUP1 PUSH4 0x6BBEEFEA EQ PUSH2 0x33E JUMPI DUP1 PUSH4 0x81E0FFAE EQ PUSH2 0x35E JUMPI PUSH1 0x0 DUP1 REVERT JUMPDEST DUP1 PUSH4 0x34EF39F1 EQ PUSH2 0x2AF JUMPI DUP1 PUSH4 0x45F93331 EQ PUSH2 0x2C4 JUMPI DUP1 PUSH4 0x4EB2B29D EQ PUSH2 0x2E6 JUMPI PUSH1 0x0 DUP1 REVERT JUMPDEST DUP1 PUSH4 0x26E56D5E GT PUSH2 0x195 JUMPI DUP1 PUSH4 0x26E56D5E EQ PUSH2 0x229 JUMPI DUP1 PUSH4 0x2B85EB5F EQ PUSH2 0x249 JUMPI DUP1 PUSH4 0x2BB602C8 EQ PUSH2 0x26B JUMPI DUP1 PUSH4 0x325A19F1 EQ PUSH2 0x28B JUMPI PUSH1 0x0 DUP1 REVERT JUMPDEST DUP1 PUSH4 0xFFFFEC4 EQ PUSH2 0x1BC JUMPI DUP1 PUSH4 0x1FD47B7E EQ PUSH2 0x1E7 JUMPI DUP1 PUSH4 0x22776206 EQ PUSH2 0x209 JUMPI JUMPDEST PUSH1 0x0 DUP1 REVERT JUMPDEST CALLVALUE DUP1 ISZERO PUSH2 0x1C8 JUMPI PUSH1 0x0 DUP1 REVERT JUMPDEST POP PUSH2 0x1D1 PUSH2 0x4E4 JUMP JUMPDEST PUSH1 0x40 MLOAD PUSH2 0x1DE SWAP2 SWAP1 PUSH2 0x1745 JUMP JUMPDEST PUSH1 0x40 MLOAD DUP1 SWAP2 SUB SWAP1 RETURN JUMPDEST CALLVALUE DUP1 ISZERO PUSH2 0x1F3 JUMPI PUSH1 0x0 DUP1 REVERT JUMPDEST POP PUSH2 0x207 PUSH2 0x202 CALLDATASIZE PUSH1 0x4 PUSH2 0x1802 JUMP JUMPDEST PUSH2 0x53C JUMP JUMPDEST STOP JUMPDEST CALLVALUE DUP1 ISZERO PUSH2 0x215 JUMPI PUSH1 0x0 DUP1 REVERT JUMPDEST POP PUSH2 0x207 PUSH2 0x224 CALLDATASIZE PUSH1 0x4 PUSH2 0x1802 JUMP JUMPDEST PUSH2 0x5A9 JUMP JUMPDEST CALLVALUE DUP1 ISZERO PUSH2 0x235 JUMPI PUSH1 0x0 DUP1 REVERT JUMPDEST POP PUSH2 0x207 PUSH2 0x244 CALLDATASIZE PUSH1 0x4 PUSH2 0x1802 JUMP JUMPDEST PUSH2 0x609 JUMP JUMPDEST CALLVALUE DUP1 ISZERO PUSH2 0x255 JUMPI PUSH1 0x0 DUP1 REVERT JUMPDEST POP PUSH2 0x25E PUSH2 0x701 JUMP JUMPDEST PUSH1 0x40 MLOAD PUSH2 0x1DE SWAP2 SWAP1 PUSH2 0x18E4 JUMP JUMPDEST CALLVALUE DUP1 ISZERO PUSH2 0x277 JUMPI PUSH1 0x0 DUP1 REVERT JUMPDEST POP PUSH2 0x207 PUSH2 0x286 CALLDATASIZE PUSH1 0x4 PUSH2 0x18F7 JUMP JUMPDEST PUSH2 0x7DA JUMP JUMPDEST CALLVALUE DUP1 ISZERO PUSH2 0x297 JUMPI PUSH1 0x0 DUP1 REVERT JUMPDEST POP PUSH2 0x2A1 PUSH1 0xD SLOAD DUP2 JUMP JUMPDEST PUSH1 0x40 MLOAD SWAP1 DUP2 MSTORE PUSH1 0x20 ADD PUSH2 0x1DE JUMP JUMPDEST CALLVALUE DUP1 ISZERO PUSH2 0x2BB JUMPI PUSH1 0x0 DUP1 REVERT JUMPDEST POP PUSH2 0x207 PUSH2 0x91A JUMP JUMPDEST CALLVALUE DUP1 ISZERO PUSH2 0x2D0 JUMPI PUSH1 0x0 DUP1 REVERT JUMPDEST POP PUSH2 0x2D9 PUSH2 0xA6F JUMP JUMPDEST PUSH1 0x40 MLOAD PUSH2 0x1DE SWAP2 SWAP1 PUSH2 0x1920 JUMP JUMPDEST CALLVALUE DUP1 ISZERO PUSH2 0x2F2 JUMPI PUSH1 0x0 DUP1 REVERT JUMPDEST POP PUSH2 0x2FB PUSH2 0xAFD JUMP JUMPDEST PUSH1 0x40 MLOAD SWAP1 ISZERO ISZERO DUP2 MSTORE PUSH1 0x20 ADD PUSH2 0x1DE JUMP JUMPDEST CALLVALUE DUP1 ISZERO PUSH2 0x317 JUMPI PUSH1 0x0 DUP1 REVERT JUMPDEST POP PUSH2 0x207 PUSH2 0x326 CALLDATASIZE PUSH1 0x4 PUSH2 0x1802 JUMP JUMPDEST PUSH2 0xB2A JUMP JUMPDEST CALLVALUE DUP1 ISZERO PUSH2 0x337 JUMPI PUSH1 0x0 DUP1 REVERT JUMPDEST POP SELFBALANCE PUSH2 0x2A1 JUMP JUMPDEST CALLVALUE DUP1 ISZERO PUSH2 0x34A JUMPI PUSH1 0x0 DUP1 REVERT JUMPDEST POP PUSH2 0x207 PUSH2 0x359 CALLDATASIZE PUSH1 0x4 PUSH2 0x1933 JUMP JUMPDEST PUSH2 0xB8A JUMP JUMPDEST CALLVALUE DUP1 ISZERO PUSH2 0x36A JUMPI PUSH1 0x0 DUP1 REVERT JUMPDEST POP PUSH2 0x2A1 PUSH1 0x9 SLOAD DUP2 JUMP JUMPDEST CALLVALUE DUP1 ISZERO PUSH2 0x380 JUMPI PUSH1 0x0 DUP1 REVERT JUMPDEST POP PUSH2 0x2D9 PUSH2 0xBDC JUMP JUMPDEST CALLVALUE DUP1 ISZERO PUSH2 0x395 JUMPI PUSH1 0x0 DUP1 REVERT JUMPDEST POP PUSH2 0x2A1 PUSH1 0xA SLOAD DUP2 JUMP JUMPDEST CALLVALUE DUP1 ISZERO PUSH2 0x3AB JUMPI PUSH1 0x0 DUP1 REVERT JUMPDEST POP PUSH2 0x207 PUSH2 0x3BA CALLDATASIZE PUSH1 0x4 PUSH2 0x1802 JUMP JUMPDEST PUSH2 0xBE9 JUMP JUMPDEST CALLVALUE DUP1 ISZERO PUSH2 0x3CB JUMPI PUSH1 0x0 DUP1 REVERT JUMPDEST POP PUSH2 0x207 PUSH2 0x3DA CALLDATASIZE PUSH1 0x4 PUSH2 0x1933 JUMP JUMPDEST PUSH2 0xDB3 JUMP JUMPDEST CALLVALUE DUP1 ISZERO PUSH2 0x3EB JUMPI PUSH1 0x0 DUP1 REVERT JUMPDEST POP PUSH2 0x207 PUSH2 0xEC0 JUMP JUMPDEST CALLVALUE DUP1 ISZERO PUSH2 0x400 JUMPI PUSH1 0x0 DUP1 REVERT JUMPDEST POP PUSH2 0x2A1 PUSH2 0x40F CALLDATASIZE PUSH1 0x4 PUSH2 0x1933 JUMP JUMPDEST PUSH2 0x1073 JUMP JUMPDEST CALLVALUE DUP1 ISZERO PUSH2 0x420 JUMPI PUSH1 0x0 DUP1 REVERT JUMPDEST POP PUSH2 0x2FB PUSH2 0x1094 JUMP JUMPDEST CALLVALUE DUP1 ISZERO PUSH2 0x435 JUMPI PUSH1 0x0 DUP1 REVERT JUMPDEST POP PUSH2 0x2D9 PUSH2 0x444 CALLDATASIZE PUSH1 0x4 PUSH2 0x1933 JUMP JUMPDEST PUSH2 0x10AA JUMP JUMPDEST CALLVALUE DUP1 ISZERO PUSH2 0x455 JUMPI PUSH1 0x0 DUP1 REVERT JUMPDEST POP PUSH1 0xE SLOAD PUSH2 0x2FB SWAP1 PUSH1 0xFF AND DUP2 JUMP JUMPDEST CALLVALUE DUP1 ISZERO PUSH2 0x46F JUMPI PUSH1 0x0 DUP1 REVERT JUMPDEST POP PUSH2 0x2D9 PUSH2 0x10D5 JUMP JUMPDEST CALLVALUE DUP1 ISZERO PUSH2 0x484 JUMPI PUSH1 0x0 DUP1 REVERT JUMPDEST POP PUSH2 0x48D PUSH2 0x10E2 JUMP JUMPDEST PUSH1 0x40 MLOAD PUSH2 0x1DE SWAP3 SWAP2 SWAP1 PUSH2 0x194C JUMP JUMPDEST CALLVALUE DUP1 ISZERO PUSH2 0x4A7 JUMPI PUSH1 0x0 DUP1 REVERT JUMPDEST POP PUSH2 0x2A1 PUSH1 0xB SLOAD DUP2 JUMP JUMPDEST CALLVALUE DUP1 ISZERO PUSH2 0x4BD JUMPI PUSH1 0x0 DUP1 REVERT JUMPDEST POP PUSH2 0x207 PUSH2 0x4CC CALLDATASIZE PUSH1 0x4 PUSH2 0x1933 JUMP JUMPDEST PUSH2 0x12EB JUMP JUMPDEST PUSH2 0x207 PUSH2 0x4DF CALLDATASIZE PUSH1 0x4 PUSH2 0x1988 JUMP JUMPDEST PUSH2 0x136D JUMP JUMPDEST PUSH1 0x60 PUSH1 0x10 DUP1 SLOAD DUP1 PUSH1 0x20 MUL PUSH1 0x20 ADD PUSH1 0x40 MLOAD SWAP1 DUP2 ADD PUSH1 0x40 MSTORE DUP1 SWAP3 SWAP2 SWAP1 DUP2 DUP2 MSTORE PUSH1 0x20 ADD DUP3 DUP1 SLOAD DUP1 ISZERO PUSH2 0x532 JUMPI PUSH1 0x20 MUL DUP3 ADD SWAP2 SWAP1 PUSH1 0x0 MSTORE PUSH1 0x20 PUSH1 0x0 KECCAK256 SWAP1 JUMPDEST DUP2 SLOAD DUP2 MSTORE PUSH1 0x20 ADD SWAP1 PUSH1 0x1 ADD SWAP1 DUP1 DUP4 GT PUSH2 0x51E JUMPI JUMPDEST POP POP POP POP POP SWAP1 POP SWAP1 JUMP JUMPDEST PUSH1 0xE SLOAD PUSH1 0xFF AND ISZERO PUSH2 0x568 JUMPI PUSH1 0x40 MLOAD PUSH3 0x461BCD PUSH1 0xE5 SHL DUP2 MSTORE PUSH1 0x4 ADD PUSH2 0x55F SWAP1 PUSH2 0x19DA JUMP JUMPDEST PUSH1 0x40 MLOAD DUP1 SWAP2 SUB SWAP1 REVERT JUMPDEST PUSH1 0x0 SLOAD PUSH1 0x1 PUSH1 0x1 PUSH1 0xA0 SHL SUB AND CALLER EQ PUSH2 0x592 JUMPI PUSH1 0x40 MLOAD PUSH3 0x461BCD PUSH1 0xE5 SHL DUP2 MSTORE PUSH1 0x4 ADD PUSH2 0x55F SWAP1 PUSH2 0x1A0A JUMP JUMPDEST DUP1 MLOAD PUSH2 0x5A5 SWAP1 PUSH1 0x8 SWAP1 PUSH1 0x20 DUP5 ADD SWAP1 PUSH2 0x15C0 JUMP JUMPDEST POP POP JUMP JUMPDEST PUSH1 0xE SLOAD PUSH1 0xFF AND ISZERO PUSH2 0x5CC JUMPI PUSH1 0x40 MLOAD PUSH3 0x461BCD PUSH1 0xE5 SHL DUP2 MSTORE PUSH1 0x4 ADD PUSH2 0x55F SWAP1 PUSH2 0x19DA JUMP JUMPDEST PUSH1 0x0 SLOAD PUSH1 0x1 PUSH1 0x1 PUSH1 0xA0 SHL SUB AND CALLER EQ PUSH2 0x5F6 JUMPI PUSH1 0x40 MLOAD PUSH3 0x461BCD PUSH1 0xE5 SHL DUP2 MSTORE PUSH1 0x4 ADD PUSH2 0x55F SWAP1 PUSH2 0x1A0A JUMP JUMPDEST DUP1 MLOAD PUSH2 0x5A5 SWAP1 PUSH1 0xC SWAP1 PUSH1 0x20 DUP5 ADD SWAP1 PUSH2 0x15C0 JUMP JUMPDEST PUSH1 0xE SLOAD PUSH1 0xFF AND ISZERO PUSH2 0x62C JUMPI PUSH1 0x40 MLOAD PUSH3 0x461BCD PUSH1 0xE5 SHL DUP2 MSTORE PUSH1 0x4 ADD PUSH2 0x55F SWAP1 PUSH2 0x19DA JUMP JUMPDEST PUSH1 0x0 SLOAD PUSH1 0x1 PUSH1 0x1 PUSH1 0xA0 SHL SUB AND CALLER EQ PUSH2 0x656 JUMPI PUSH1 0x40 MLOAD PUSH3 0x461BCD PUSH1 0xE5 SHL DUP2 MSTORE PUSH1 0x4 ADD PUSH2 0x55F SWAP1 PUSH2 0x1A0A JUMP JUMPDEST PUSH1 0xF DUP1 SLOAD PUSH1 0x1 DUP2 ADD DUP3 SSTORE PUSH1 0x0 SWAP2 SWAP1 SWAP2 MSTORE DUP2 MLOAD PUSH2 0x699 SWAP2 PUSH32 0x8D1108E10BCB7C27DDDFC02ED9D693A074039D026CF4EA4240B40F7D581AC802 ADD SWAP1 PUSH1 0x20 DUP5 ADD SWAP1 PUSH2 0x15C0 JUMP JUMPDEST POP PUSH1 0x1 SLOAD PUSH1 0x40 MLOAD PUSH4 0x302D3793 PUSH1 0xE1 SHL DUP2 MSTORE PUSH1 0x1 PUSH1 0x1 PUSH1 0xA0 SHL SUB SWAP1 SWAP2 AND SWAP1 PUSH4 0x605A6F26 SWAP1 PUSH2 0x6CC SWAP1 DUP5 SWAP1 ADDRESS SWAP1 PUSH1 0x4 ADD PUSH2 0x1A41 JUMP JUMPDEST PUSH1 0x0 PUSH1 0x40 MLOAD DUP1 DUP4 SUB DUP2 PUSH1 0x0 DUP8 DUP1 EXTCODESIZE ISZERO DUP1 ISZERO PUSH2 0x6E6 JUMPI PUSH1 0x0 DUP1 REVERT JUMPDEST POP GAS CALL ISZERO DUP1 ISZERO PUSH2 0x6FA JUMPI RETURNDATASIZE PUSH1 0x0 DUP1 RETURNDATACOPY RETURNDATASIZE PUSH1 0x0 REVERT JUMPDEST POP POP POP POP POP JUMP JUMPDEST PUSH1 0x60 PUSH1 0xF DUP1 SLOAD DUP1 PUSH1 0x20 MUL PUSH1 0x20 ADD PUSH1 0x40 MLOAD SWAP1 DUP2 ADD PUSH1 0x40 MSTORE DUP1 SWAP3 SWAP2 SWAP1 DUP2 DUP2 MSTORE PUSH1 0x20 ADD PUSH1 0x0 SWAP1 JUMPDEST DUP3 DUP3 LT ISZERO PUSH2 0x7D1 JUMPI DUP4 DUP3 SWAP1 PUSH1 0x0 MSTORE PUSH1 0x20 PUSH1 0x0 KECCAK256 ADD DUP1 SLOAD PUSH2 0x744 SWAP1 PUSH2 0x1A6B JUMP JUMPDEST DUP1 PUSH1 0x1F ADD PUSH1 0x20 DUP1 SWAP2 DIV MUL PUSH1 0x20 ADD PUSH1 0x40 MLOAD SWAP1 DUP2 ADD PUSH1 0x40 MSTORE DUP1 SWAP3 SWAP2 SWAP1 DUP2 DUP2 MSTORE PUSH1 0x20 ADD DUP3 DUP1 SLOAD PUSH2 0x770 SWAP1 PUSH2 0x1A6B JUMP JUMPDEST DUP1 ISZERO PUSH2 0x7BD JUMPI DUP1 PUSH1 0x1F LT PUSH2 0x792 JUMPI PUSH2 0x100 DUP1 DUP4 SLOAD DIV MUL DUP4 MSTORE SWAP2 PUSH1 0x20 ADD SWAP2 PUSH2 0x7BD JUMP JUMPDEST DUP3 ADD SWAP2 SWAP1 PUSH1 0x0 MSTORE PUSH1 0x20 PUSH1 0x0 KECCAK256 SWAP1 JUMPDEST DUP2 SLOAD DUP2 MSTORE SWAP1 PUSH1 0x1 ADD SWAP1 PUSH1 0x20 ADD DUP1 DUP4 GT PUSH2 0x7A0 JUMPI DUP3 SWAP1 SUB PUSH1 0x1F AND DUP3 ADD SWAP2 JUMPDEST POP POP POP POP POP DUP2 MSTORE PUSH1 0x20 ADD SWAP1 PUSH1 0x1 ADD SWAP1 PUSH2 0x725 JUMP JUMPDEST POP POP POP POP SWAP1 POP SWAP1 JUMP JUMPDEST PUSH1 0xE SLOAD PUSH1 0xFF AND ISZERO PUSH2 0x7FD JUMPI PUSH1 0x40 MLOAD PUSH3 0x461BCD PUSH1 0xE5 SHL DUP2 MSTORE PUSH1 0x4 ADD PUSH2 0x55F SWAP1 PUSH2 0x19DA JUMP JUMPDEST ADDRESS PUSH1 0x1 PUSH1 0x1 PUSH1 0xA0 SHL SUB AND PUSH4 0x4EB2B29D PUSH1 0x40 MLOAD DUP2 PUSH4 0xFFFFFFFF AND PUSH1 0xE0 SHL DUP2 MSTORE PUSH1 0x4 ADD PUSH1 0x20 PUSH1 0x40 MLOAD DUP1 DUP4 SUB DUP2 DUP7 GAS STATICCALL ISZERO DUP1 ISZERO PUSH2 0x83B JUMPI RETURNDATASIZE PUSH1 0x0 DUP1 RETURNDATACOPY RETURNDATASIZE PUSH1 0x0 REVERT JUMPDEST POP POP POP POP PUSH1 0x40 MLOAD RETURNDATASIZE PUSH1 0x1F NOT PUSH1 0x1F DUP3 ADD AND DUP3 ADD DUP1 PUSH1 0x40 MSTORE POP DUP2 ADD SWAP1 PUSH2 0x85F SWAP2 SWAP1 PUSH2 0x1AA5 JUMP JUMPDEST ISZERO ISZERO PUSH1 0x1 EQ DUP1 ISZERO PUSH2 0x870 JUMPI POP PUSH1 0x0 SELFBALANCE GT JUMPDEST PUSH2 0x88C JUMPI PUSH1 0x40 MLOAD PUSH3 0x461BCD PUSH1 0xE5 SHL DUP2 MSTORE PUSH1 0x4 ADD PUSH2 0x55F SWAP1 PUSH2 0x1AC2 JUMP JUMPDEST PUSH1 0x1 PUSH1 0x1 PUSH1 0xA0 SHL SUB DUP2 AND PUSH1 0x0 SWAP1 DUP2 MSTORE PUSH1 0x4 PUSH1 0x20 MSTORE PUSH1 0x40 SWAP1 KECCAK256 SLOAD ISZERO PUSH2 0x90F JUMPI PUSH1 0x1 PUSH1 0x1 PUSH1 0xA0 SHL SUB DUP2 AND PUSH1 0x0 DUP2 DUP2 MSTORE PUSH1 0x4 PUSH1 0x20 MSTORE PUSH1 0x40 DUP1 DUP3 KECCAK256 SLOAD SWAP1 MLOAD DUP2 ISZERO PUSH2 0x8FC MUL SWAP3 DUP2 DUP2 DUP2 DUP6 DUP9 DUP9 CALL SWAP4 POP POP POP POP ISZERO DUP1 ISZERO PUSH2 0x8EA JUMPI RETURNDATASIZE PUSH1 0x0 DUP1 RETURNDATACOPY RETURNDATASIZE PUSH1 0x0 REVERT JUMPDEST POP PUSH1 0x1 PUSH1 0x1 PUSH1 0xA0 SHL SUB DUP2 AND PUSH1 0x0 SWAP1 DUP2 MSTORE PUSH1 0x6 PUSH1 0x20 MSTORE PUSH1 0x40 SWAP1 KECCAK256 DUP1 SLOAD PUSH1 0xFF NOT AND PUSH1 0x1 OR SWAP1 SSTORE JUMPDEST PUSH2 0x917 PUSH2 0x155B JUMP JUMPDEST POP JUMP JUMPDEST PUSH1 0xE SLOAD PUSH1 0xFF AND ISZERO PUSH2 0x93D JUMPI PUSH1 0x40 MLOAD PUSH3 0x461BCD PUSH1 0xE5 SHL DUP2 MSTORE PUSH1 0x4 ADD PUSH2 0x55F SWAP1 PUSH2 0x19DA JUMP JUMPDEST ADDRESS PUSH1 0x1 PUSH1 0x1 PUSH1 0xA0 SHL SUB AND PUSH4 0xC6B0FFD0 PUSH1 0x40 MLOAD DUP2 PUSH4 0xFFFFFFFF AND PUSH1 0xE0 SHL DUP2 MSTORE PUSH1 0x4 ADD PUSH1 0x20 PUSH1 0x40 MLOAD DUP1 DUP4 SUB DUP2 DUP7 GAS STATICCALL ISZERO DUP1 ISZERO PUSH2 0x97B JUMPI RETURNDATASIZE PUSH1 0x0 DUP1 RETURNDATACOPY RETURNDATASIZE PUSH1 0x0 REVERT JUMPDEST POP POP POP POP PUSH1 0x40 MLOAD RETURNDATASIZE PUSH1 0x1F NOT PUSH1 0x1F DUP3 ADD AND DUP3 ADD DUP1 PUSH1 0x40 MSTORE POP DUP2 ADD SWAP1 PUSH2 0x99F SWAP2 SWAP1 PUSH2 0x1AA5 JUMP JUMPDEST ISZERO ISZERO PUSH1 0x1 EQ DUP1 ISZERO PUSH2 0x9BA JUMPI POP PUSH1 0x0 SLOAD PUSH1 0x1 PUSH1 0x1 PUSH1 0xA0 SHL SUB AND CALLER EQ JUMPDEST PUSH2 0xA25 JUMPI PUSH1 0x40 MLOAD PUSH3 0x461BCD PUSH1 0xE5 SHL DUP2 MSTORE PUSH1 0x20 PUSH1 0x4 DUP3 ADD MSTORE PUSH1 0x36 PUSH1 0x24 DUP3 ADD MSTORE PUSH32 0x50726F6A65637420686173206E6F742073756363656564207965742C206F7220 PUSH1 0x44 DUP3 ADD MSTORE PUSH22 0x3CB7BA9030B932903737BA103A34329037BBB732B917 PUSH1 0x51 SHL PUSH1 0x64 DUP3 ADD MSTORE PUSH1 0x84 ADD PUSH2 0x55F JUMP JUMPDEST PUSH1 0x0 DUP1 SLOAD PUSH1 0x40 MLOAD PUSH1 0x1 PUSH1 0x1 PUSH1 0xA0 SHL SUB SWAP1 SWAP2 AND SWAP2 SELFBALANCE DUP1 ISZERO PUSH2 0x8FC MUL SWAP3 SWAP1 SWAP2 DUP2 DUP2 DUP2 DUP6 DUP9 DUP9 CALL SWAP4 POP POP POP POP ISZERO DUP1 ISZERO PUSH2 0xA5F JUMPI RETURNDATASIZE PUSH1 0x0 DUP1 RETURNDATACOPY RETURNDATASIZE PUSH1 0x0 REVERT JUMPDEST POP PUSH1 0xE DUP1 SLOAD PUSH1 0xFF NOT AND PUSH1 0x1 OR SWAP1 SSTORE JUMP JUMPDEST PUSH1 0x8 DUP1 SLOAD PUSH2 0xA7C SWAP1 PUSH2 0x1A6B JUMP JUMPDEST DUP1 PUSH1 0x1F ADD PUSH1 0x20 DUP1 SWAP2 DIV MUL PUSH1 0x20 ADD PUSH1 0x40 MLOAD SWAP1 DUP2 ADD PUSH1 0x40 MSTORE DUP1 SWAP3 SWAP2 SWAP1 DUP2 DUP2 MSTORE PUSH1 0x20 ADD DUP3 DUP1 SLOAD PUSH2 0xAA8 SWAP1 PUSH2 0x1A6B JUMP JUMPDEST DUP1 ISZERO PUSH2 0xAF5 JUMPI DUP1 PUSH1 0x1F LT PUSH2 0xACA JUMPI PUSH2 0x100 DUP1 DUP4 SLOAD DIV MUL DUP4 MSTORE SWAP2 PUSH1 0x20 ADD SWAP2 PUSH2 0xAF5 JUMP JUMPDEST DUP3 ADD SWAP2 SWAP1 PUSH1 0x0 MSTORE PUSH1 0x20 PUSH1 0x0 KECCAK256 SWAP1 JUMPDEST DUP2 SLOAD DUP2 MSTORE SWAP1 PUSH1 0x1 ADD SWAP1 PUSH1 0x20 ADD DUP1 DUP4 GT PUSH2 0xAD8 JUMPI DUP3 SWAP1 SUB PUSH1 0x1F AND DUP3 ADD SWAP2 JUMPDEST POP POP POP POP POP DUP2 JUMP JUMPDEST PUSH1 0x0 DUP1 SELFBALANCE SWAP1 POP TIMESTAMP PUSH1 0xA SLOAD LT DUP1 ISZERO PUSH2 0xB15 JUMPI POP PUSH1 0x9 SLOAD DUP2 LT JUMPDEST ISZERO PUSH2 0xB22 JUMPI PUSH1 0x1 SWAP2 POP POP SWAP1 JUMP JUMPDEST PUSH1 0x0 SWAP2 POP POP SWAP1 JUMP JUMPDEST PUSH1 0xE SLOAD PUSH1 0xFF AND ISZERO PUSH2 0xB4D JUMPI PUSH1 0x40 MLOAD PUSH3 0x461BCD PUSH1 0xE5 SHL DUP2 MSTORE PUSH1 0x4 ADD PUSH2 0x55F SWAP1 PUSH2 0x19DA JUMP JUMPDEST PUSH1 0x0 SLOAD PUSH1 0x1 PUSH1 0x1 PUSH1 0xA0 SHL SUB AND CALLER EQ PUSH2 0xB77 JUMPI PUSH1 0x40 MLOAD PUSH3 0x461BCD PUSH1 0xE5 SHL DUP2 MSTORE PUSH1 0x4 ADD PUSH2 0x55F SWAP1 PUSH2 0x1A0A JUMP JUMPDEST DUP1 MLOAD PUSH2 0x5A5 SWAP1 PUSH1 0x7 SWAP1 PUSH1 0x20 DUP5 ADD SWAP1 PUSH2 0x15C0 JUMP JUMPDEST PUSH1 0xE SLOAD PUSH1 0xFF AND ISZERO PUSH2 0xBAD JUMPI PUSH1 0x40 MLOAD PUSH3 0x461BCD PUSH1 0xE5 SHL DUP2 MSTORE PUSH1 0x4 ADD PUSH2 0x55F SWAP1 PUSH2 0x19DA JUMP JUMPDEST PUSH1 0x0 SLOAD PUSH1 0x1 PUSH1 0x1 PUSH1 0xA0 SHL SUB AND CALLER EQ PUSH2 0xBD7 JUMPI PUSH1 0x40 MLOAD PUSH3 0x461BCD PUSH1 0xE5 SHL DUP2 MSTORE PUSH1 0x4 ADD PUSH2 0x55F SWAP1 PUSH2 0x1A0A JUMP JUMPDEST PUSH1 0xA SSTORE JUMP JUMPDEST PUSH1 0xC DUP1 SLOAD PUSH2 0xA7C SWAP1 PUSH2 0x1A6B JUMP JUMPDEST PUSH1 0xE SLOAD PUSH1 0xFF AND ISZERO PUSH2 0xC0C JUMPI PUSH1 0x40 MLOAD PUSH3 0x461BCD PUSH1 0xE5 SHL DUP2 MSTORE PUSH1 0x4 ADD PUSH2 0x55F SWAP1 PUSH2 0x19DA JUMP JUMPDEST PUSH1 0x0 SLOAD PUSH1 0x1 PUSH1 0x1 PUSH1 0xA0 SHL SUB AND CALLER EQ PUSH2 0xC36 JUMPI PUSH1 0x40 MLOAD PUSH3 0x461BCD PUSH1 0xE5 SHL DUP2 MSTORE PUSH1 0x4 ADD PUSH2 0x55F SWAP1 PUSH2 0x1A0A JUMP JUMPDEST PUSH1 0x0 JUMPDEST PUSH1 0xF SLOAD DUP2 LT ISZERO PUSH2 0x5A5 JUMPI DUP2 DUP1 MLOAD SWAP1 PUSH1 0x20 ADD KECCAK256 PUSH1 0xF DUP3 DUP2 SLOAD DUP2 LT PUSH2 0xC5E JUMPI PUSH2 0xC5E PUSH2 0x1B18 JUMP JUMPDEST SWAP1 PUSH1 0x0 MSTORE PUSH1 0x20 PUSH1 0x0 KECCAK256 ADD PUSH1 0x40 MLOAD PUSH2 0xC75 SWAP2 SWAP1 PUSH2 0x1B2E JUMP JUMPDEST PUSH1 0x40 MLOAD DUP1 SWAP2 SUB SWAP1 KECCAK256 SUB PUSH2 0xDA1 JUMPI PUSH1 0xF SLOAD PUSH1 0x0 SWAP1 PUSH2 0xC94 SWAP1 PUSH1 0x1 SWAP1 PUSH2 0x1BB6 JUMP JUMPDEST PUSH1 0x1 SLOAD PUSH1 0xF DUP1 SLOAD SWAP3 SWAP4 POP PUSH1 0x1 PUSH1 0x1 PUSH1 0xA0 SHL SUB SWAP1 SWAP2 AND SWAP2 PUSH4 0x11357471 SWAP2 SWAP1 DUP6 SWAP1 DUP2 LT PUSH2 0xCC1 JUMPI PUSH2 0xCC1 PUSH2 0x1B18 JUMP JUMPDEST SWAP1 PUSH1 0x0 MSTORE PUSH1 0x20 PUSH1 0x0 KECCAK256 ADD ADDRESS PUSH1 0x40 MLOAD DUP4 PUSH4 0xFFFFFFFF AND PUSH1 0xE0 SHL DUP2 MSTORE PUSH1 0x4 ADD PUSH2 0xCE9 SWAP3 SWAP2 SWAP1 PUSH2 0x1BCD JUMP JUMPDEST PUSH1 0x0 PUSH1 0x40 MLOAD DUP1 DUP4 SUB DUP2 PUSH1 0x0 DUP8 DUP1 EXTCODESIZE ISZERO DUP1 ISZERO PUSH2 0xD03 JUMPI PUSH1 0x0 DUP1 REVERT JUMPDEST POP GAS CALL ISZERO DUP1 ISZERO PUSH2 0xD17 JUMPI RETURNDATASIZE PUSH1 0x0 DUP1 RETURNDATACOPY RETURNDATASIZE PUSH1 0x0 REVERT JUMPDEST POP POP POP POP PUSH1 0xF DUP2 DUP2 SLOAD DUP2 LT PUSH2 0xD2E JUMPI PUSH2 0xD2E PUSH2 0x1B18 JUMP JUMPDEST SWAP1 PUSH1 0x0 MSTORE PUSH1 0x20 PUSH1 0x0 KECCAK256 ADD PUSH1 0xF DUP4 DUP2 SLOAD DUP2 LT PUSH2 0xD4B JUMPI PUSH2 0xD4B PUSH2 0x1B18 JUMP JUMPDEST SWAP1 PUSH1 0x0 MSTORE PUSH1 0x20 PUSH1 0x0 KECCAK256 ADD SWAP1 DUP1 SLOAD PUSH2 0xD61 SWAP1 PUSH2 0x1A6B JUMP JUMPDEST PUSH2 0xD6C SWAP3 SWAP2 SWAP1 PUSH2 0x1644 JUMP JUMPDEST POP PUSH1 0xF DUP1 SLOAD DUP1 PUSH2 0xD7E JUMPI PUSH2 0xD7E PUSH2 0x1C67 JUMP JUMPDEST PUSH1 0x1 SWAP1 SUB DUP2 DUP2 SWAP1 PUSH1 0x0 MSTORE PUSH1 0x20 PUSH1 0x0 KECCAK256 ADD PUSH1 0x0 PUSH2 0xD9A SWAP2 SWAP1 PUSH2 0x16BF JUMP JUMPDEST SWAP1 SSTORE POP POP POP JUMP JUMPDEST DUP1 PUSH2 0xDAB DUP2 PUSH2 0x1C7D JUMP JUMPDEST SWAP2 POP POP PUSH2 0xC39 JUMP JUMPDEST PUSH1 0xE SLOAD PUSH1 0xFF AND ISZERO PUSH2 0xDD6 JUMPI PUSH1 0x40 MLOAD PUSH3 0x461BCD PUSH1 0xE5 SHL DUP2 MSTORE PUSH1 0x4 ADD PUSH2 0x55F SWAP1 PUSH2 0x19DA JUMP JUMPDEST PUSH1 0x0 SLOAD PUSH1 0x1 PUSH1 0x1 PUSH1 0xA0 SHL SUB AND CALLER EQ PUSH2 0xE00 JUMPI PUSH1 0x40 MLOAD PUSH3 0x461BCD PUSH1 0xE5 SHL DUP2 MSTORE PUSH1 0x4 ADD PUSH2 0x55F SWAP1 PUSH2 0x1A0A JUMP JUMPDEST PUSH1 0x0 JUMPDEST PUSH1 0x10 SLOAD DUP2 LT ISZERO PUSH2 0x5A5 JUMPI DUP2 PUSH1 0x10 DUP3 DUP2 SLOAD DUP2 LT PUSH2 0xE21 JUMPI PUSH2 0xE21 PUSH2 0x1B18 JUMP JUMPDEST SWAP1 PUSH1 0x0 MSTORE PUSH1 0x20 PUSH1 0x0 KECCAK256 ADD SLOAD SUB PUSH2 0xEAE JUMPI PUSH1 0x10 SLOAD PUSH1 0x0 SWAP1 PUSH2 0xE43 SWAP1 PUSH1 0x1 SWAP1 PUSH2 0x1BB6 JUMP JUMPDEST SWAP1 POP PUSH1 0x10 DUP2 DUP2 SLOAD DUP2 LT PUSH2 0xE58 JUMPI PUSH2 0xE58 PUSH2 0x1B18 JUMP JUMPDEST SWAP1 PUSH1 0x0 MSTORE PUSH1 0x20 PUSH1 0x0 KECCAK256 ADD SLOAD PUSH1 0x10 DUP4 DUP2 SLOAD DUP2 LT PUSH2 0xE76 JUMPI PUSH2 0xE76 PUSH2 0x1B18 JUMP JUMPDEST PUSH1 0x0 SWAP2 DUP3 MSTORE PUSH1 0x20 SWAP1 SWAP2 KECCAK256 ADD SSTORE PUSH1 0x10 DUP1 SLOAD DUP1 PUSH2 0xE93 JUMPI PUSH2 0xE93 PUSH2 0x1C67 JUMP JUMPDEST PUSH1 0x1 SWAP1 SUB DUP2 DUP2 SWAP1 PUSH1 0x0 MSTORE PUSH1 0x20 PUSH1 0x0 KECCAK256 ADD PUSH1 0x0 SWAP1 SSTORE SWAP1 SSTORE POP POP POP JUMP JUMPDEST DUP1 PUSH2 0xEB8 DUP2 PUSH2 0x1C7D JUMP JUMPDEST SWAP2 POP POP PUSH2 0xE03 JUMP JUMPDEST PUSH1 0xE SLOAD PUSH1 0xFF AND ISZERO PUSH2 0xEE3 JUMPI PUSH1 0x40 MLOAD PUSH3 0x461BCD PUSH1 0xE5 SHL DUP2 MSTORE PUSH1 0x4 ADD PUSH2 0x55F SWAP1 PUSH2 0x19DA JUMP JUMPDEST ADDRESS PUSH1 0x1 PUSH1 0x1 PUSH1 0xA0 SHL SUB AND PUSH4 0x4EB2B29D PUSH1 0x40 MLOAD DUP2 PUSH4 0xFFFFFFFF AND PUSH1 0xE0 SHL DUP2 MSTORE PUSH1 0x4 ADD PUSH1 0x20 PUSH1 0x40 MLOAD DUP1 DUP4 SUB DUP2 DUP7 GAS STATICCALL ISZERO DUP1 ISZERO PUSH2 0xF21 JUMPI RETURNDATASIZE PUSH1 0x0 DUP1 RETURNDATACOPY RETURNDATASIZE PUSH1 0x0 REVERT JUMPDEST POP POP POP POP PUSH1 0x40 MLOAD RETURNDATASIZE PUSH1 0x1F NOT PUSH1 0x1F DUP3 ADD AND DUP3 ADD DUP1 PUSH1 0x40 MSTORE POP DUP2 ADD SWAP1 PUSH2 0xF45 SWAP2 SWAP1 PUSH2 0x1AA5 JUMP JUMPDEST ISZERO ISZERO PUSH1 0x1 EQ DUP1 ISZERO PUSH2 0xF56 JUMPI POP PUSH1 0x0 SELFBALANCE GT JUMPDEST PUSH2 0xF72 JUMPI PUSH1 0x40 MLOAD PUSH3 0x461BCD PUSH1 0xE5 SHL DUP2 MSTORE PUSH1 0x4 ADD PUSH2 0x55F SWAP1 PUSH2 0x1AC2 JUMP JUMPDEST PUSH1 0x0 JUMPDEST PUSH1 0x2 SLOAD DUP2 LT ISZERO PUSH2 0xA5F JUMPI PUSH1 0x2 DUP2 DUP2 SLOAD DUP2 LT PUSH2 0xF92 JUMPI PUSH2 0xF92 PUSH2 0x1B18 JUMP JUMPDEST PUSH1 0x0 SWAP2 DUP3 MSTORE PUSH1 0x20 DUP3 KECCAK256 ADD SLOAD PUSH1 0x2 DUP1 SLOAD PUSH1 0x1 PUSH1 0x1 PUSH1 0xA0 SHL SUB SWAP1 SWAP3 AND SWAP3 PUSH2 0x8FC SWAP3 PUSH1 0x4 SWAP3 SWAP1 DUP7 SWAP1 DUP2 LT PUSH2 0xFC5 JUMPI PUSH2 0xFC5 PUSH2 0x1B18 JUMP JUMPDEST PUSH1 0x0 SWAP2 DUP3 MSTORE PUSH1 0x20 DUP1 DUP4 KECCAK256 SWAP1 SWAP2 ADD SLOAD PUSH1 0x1 PUSH1 0x1 PUSH1 0xA0 SHL SUB AND DUP4 MSTORE DUP3 ADD SWAP3 SWAP1 SWAP3 MSTORE PUSH1 0x40 SWAP1 DUP2 ADD DUP3 KECCAK256 SLOAD SWAP1 MLOAD DUP2 ISZERO SWAP1 SWAP4 MUL SWAP3 SWAP1 SWAP2 DUP2 DUP2 DUP2 DUP6 DUP9 DUP9 CALL SWAP4 POP POP POP POP ISZERO DUP1 ISZERO PUSH2 0x1013 JUMPI RETURNDATASIZE PUSH1 0x0 DUP1 RETURNDATACOPY RETURNDATASIZE PUSH1 0x0 REVERT JUMPDEST POP PUSH1 0x1 PUSH1 0x6 PUSH1 0x0 PUSH1 0x2 DUP5 DUP2 SLOAD DUP2 LT PUSH2 0x102D JUMPI PUSH2 0x102D PUSH2 0x1B18 JUMP JUMPDEST PUSH1 0x0 SWAP2 DUP3 MSTORE PUSH1 0x20 DUP1 DUP4 KECCAK256 SWAP2 SWAP1 SWAP2 ADD SLOAD PUSH1 0x1 PUSH1 0x1 PUSH1 0xA0 SHL SUB AND DUP4 MSTORE DUP3 ADD SWAP3 SWAP1 SWAP3 MSTORE PUSH1 0x40 ADD SWAP1 KECCAK256 DUP1 SLOAD PUSH1 0xFF NOT AND SWAP2 ISZERO ISZERO SWAP2 SWAP1 SWAP2 OR SWAP1 SSTORE DUP1 PUSH2 0x106B DUP2 PUSH2 0x1C7D JUMP JUMPDEST SWAP2 POP POP PUSH2 0xF75 JUMP JUMPDEST PUSH1 0x10 DUP2 DUP2 SLOAD DUP2 LT PUSH2 0x1083 JUMPI PUSH1 0x0 DUP1 REVERT JUMPDEST PUSH1 0x0 SWAP2 DUP3 MSTORE PUSH1 0x20 SWAP1 SWAP2 KECCAK256 ADD SLOAD SWAP1 POP DUP2 JUMP JUMPDEST PUSH1 0x9 SLOAD PUSH1 0x0 SWAP1 SELFBALANCE SWAP1 DUP2 LT PUSH2 0xB22 JUMPI PUSH1 0x1 SWAP2 POP POP SWAP1 JUMP JUMPDEST PUSH1 0xF DUP2 DUP2 SLOAD DUP2 LT PUSH2 0x10BA JUMPI PUSH1 0x0 DUP1 REVERT JUMPDEST SWAP1 PUSH1 0x0 MSTORE PUSH1 0x20 PUSH1 0x0 KECCAK256 ADD PUSH1 0x0 SWAP2 POP SWAP1 POP DUP1 SLOAD PUSH2 0xA7C SWAP1 PUSH2 0x1A6B JUMP JUMPDEST PUSH1 0x7 DUP1 SLOAD PUSH2 0xA7C SWAP1 PUSH2 0x1A6B JUMP JUMPDEST PUSH1 0x60 DUP1 PUSH1 0x0 PUSH1 0x2 DUP1 SLOAD SWAP1 POP PUSH8 0xFFFFFFFFFFFFFFFF DUP2 GT ISZERO PUSH2 0x1105 JUMPI PUSH2 0x1105 PUSH2 0x175F JUMP JUMPDEST PUSH1 0x40 MLOAD SWAP1 DUP1 DUP3 MSTORE DUP1 PUSH1 0x20 MUL PUSH1 0x20 ADD DUP3 ADD PUSH1 0x40 MSTORE DUP1 ISZERO PUSH2 0x1138 JUMPI DUP2 PUSH1 0x20 ADD JUMPDEST PUSH1 0x60 DUP2 MSTORE PUSH1 0x20 ADD SWAP1 PUSH1 0x1 SWAP1 SUB SWAP1 DUP2 PUSH2 0x1123 JUMPI SWAP1 POP JUMPDEST POP PUSH1 0x2 SLOAD SWAP1 SWAP2 POP PUSH1 0x0 SWAP1 PUSH8 0xFFFFFFFFFFFFFFFF DUP2 GT ISZERO PUSH2 0x115A JUMPI PUSH2 0x115A PUSH2 0x175F JUMP JUMPDEST PUSH1 0x40 MLOAD SWAP1 DUP1 DUP3 MSTORE DUP1 PUSH1 0x20 MUL PUSH1 0x20 ADD DUP3 ADD PUSH1 0x40 MSTORE DUP1 ISZERO PUSH2 0x1183 JUMPI DUP2 PUSH1 0x20 ADD PUSH1 0x20 DUP3 MUL DUP1 CALLDATASIZE DUP4 CALLDATACOPY ADD SWAP1 POP JUMPDEST POP SWAP1 POP PUSH1 0x0 JUMPDEST PUSH1 0x2 SLOAD DUP2 LT ISZERO PUSH2 0x12E1 JUMPI PUSH1 0x5 PUSH1 0x0 PUSH1 0x2 DUP4 DUP2 SLOAD DUP2 LT PUSH2 0x11AA JUMPI PUSH2 0x11AA PUSH2 0x1B18 JUMP JUMPDEST PUSH1 0x0 SWAP2 DUP3 MSTORE PUSH1 0x20 DUP1 DUP4 KECCAK256 SWAP1 SWAP2 ADD SLOAD PUSH1 0x1 PUSH1 0x1 PUSH1 0xA0 SHL SUB AND DUP4 MSTORE DUP3 ADD SWAP3 SWAP1 SWAP3 MSTORE PUSH1 0x40 ADD SWAP1 KECCAK256 DUP1 SLOAD PUSH2 0x11D9 SWAP1 PUSH2 0x1A6B JUMP JUMPDEST DUP1 PUSH1 0x1F ADD PUSH1 0x20 DUP1 SWAP2 DIV MUL PUSH1 0x20 ADD PUSH1 0x40 MLOAD SWAP1 DUP2 ADD PUSH1 0x40 MSTORE DUP1 SWAP3 SWAP2 SWAP1 DUP2 DUP2 MSTORE PUSH1 0x20 ADD DUP3 DUP1 SLOAD PUSH2 0x1205 SWAP1 PUSH2 0x1A6B JUMP JUMPDEST DUP1 ISZERO PUSH2 0x1252 JUMPI DUP1 PUSH1 0x1F LT PUSH2 0x1227 JUMPI PUSH2 0x100 DUP1 DUP4 SLOAD DIV MUL DUP4 MSTORE SWAP2 PUSH1 0x20 ADD SWAP2 PUSH2 0x1252 JUMP JUMPDEST DUP3 ADD SWAP2 SWAP1 PUSH1 0x0 MSTORE PUSH1 0x20 PUSH1 0x0 KECCAK256 SWAP1 JUMPDEST DUP2 SLOAD DUP2 MSTORE SWAP1 PUSH1 0x1 ADD SWAP1 PUSH1 0x20 ADD DUP1 DUP4 GT PUSH2 0x1235 JUMPI DUP3 SWAP1 SUB PUSH1 0x1F AND DUP3 ADD SWAP2 JUMPDEST POP POP POP POP POP DUP4 DUP3 DUP2 MLOAD DUP2 LT PUSH2 0x1269 JUMPI PUSH2 0x1269 PUSH2 0x1B18 JUMP JUMPDEST PUSH1 0x20 MUL PUSH1 0x20 ADD ADD DUP2 SWAP1 MSTORE POP PUSH1 0x4 PUSH1 0x0 PUSH1 0x2 DUP4 DUP2 SLOAD DUP2 LT PUSH2 0x128B JUMPI PUSH2 0x128B PUSH2 0x1B18 JUMP JUMPDEST PUSH1 0x0 SWAP2 DUP3 MSTORE PUSH1 0x20 DUP1 DUP4 KECCAK256 SWAP1 SWAP2 ADD SLOAD PUSH1 0x1 PUSH1 0x1 PUSH1 0xA0 SHL SUB AND DUP4 MSTORE DUP3 ADD SWAP3 SWAP1 SWAP3 MSTORE PUSH1 0x40 ADD SWAP1 KECCAK256 SLOAD DUP3 MLOAD DUP4 SWAP1 DUP4 SWAP1 DUP2 LT PUSH2 0x12C4 JUMPI PUSH2 0x12C4 PUSH2 0x1B18 JUMP JUMPDEST PUSH1 0x20 SWAP1 DUP2 MUL SWAP2 SWAP1 SWAP2 ADD ADD MSTORE DUP1 PUSH2 0x12D9 DUP2 PUSH2 0x1C7D JUMP JUMPDEST SWAP2 POP POP PUSH2 0x1189 JUMP JUMPDEST POP SWAP1 SWAP4 SWAP1 SWAP3 POP SWAP1 POP JUMP JUMPDEST PUSH1 0xE SLOAD PUSH1 0xFF AND ISZERO PUSH2 0x130E JUMPI PUSH1 0x40 MLOAD PUSH3 0x461BCD PUSH1 0xE5 SHL DUP2 MSTORE PUSH1 0x4 ADD PUSH2 0x55F SWAP1 PUSH2 0x19DA JUMP JUMPDEST PUSH1 0x0 SLOAD PUSH1 0x1 PUSH1 0x1 PUSH1 0xA0 SHL SUB AND CALLER EQ PUSH2 0x1338 JUMPI PUSH1 0x40 MLOAD PUSH3 0x461BCD PUSH1 0xE5 SHL DUP2 MSTORE PUSH1 0x4 ADD PUSH2 0x55F SWAP1 PUSH2 0x1A0A JUMP JUMPDEST PUSH1 0x10 DUP1 SLOAD PUSH1 0x1 DUP2 ADD DUP3 SSTORE PUSH1 0x0 SWAP2 SWAP1 SWAP2 MSTORE PUSH32 0x1B6847DC741A1B0CD08D278845F9D819D87B734759AFB55FE2DE5CB82A9AE672 ADD SSTORE JUMP JUMPDEST PUSH1 0xE SLOAD PUSH1 0xFF AND ISZERO PUSH2 0x1390 JUMPI PUSH1 0x40 MLOAD PUSH3 0x461BCD PUSH1 0xE5 SHL DUP2 MSTORE PUSH1 0x4 ADD PUSH2 0x55F SWAP1 PUSH2 0x19DA JUMP JUMPDEST ADDRESS PUSH1 0x1 PUSH1 0x1 PUSH1 0xA0 SHL SUB AND PUSH4 0x4EB2B29D PUSH1 0x40 MLOAD DUP2 PUSH4 0xFFFFFFFF AND PUSH1 0xE0 SHL DUP2 MSTORE PUSH1 0x4 ADD PUSH1 0x20 PUSH1 0x40 MLOAD DUP1 DUP4 SUB DUP2 DUP7 GAS STATICCALL ISZERO DUP1 ISZERO PUSH2 0x13CE JUMPI RETURNDATASIZE PUSH1 0x0 DUP1 RETURNDATACOPY RETURNDATASIZE PUSH1 0x0 REVERT JUMPDEST POP POP POP POP PUSH1 0x40 MLOAD RETURNDATASIZE PUSH1 0x1F NOT PUSH1 0x1F DUP3 ADD AND DUP3 ADD DUP1 PUSH1 0x40 MSTORE POP DUP2 ADD SWAP1 PUSH2 0x13F2 SWAP2 SWAP1 PUSH2 0x1AA5 JUMP JUMPDEST ISZERO PUSH2 0x143F JUMPI PUSH1 0x40 MLOAD PUSH3 0x461BCD PUSH1 0xE5 SHL DUP2 MSTORE PUSH1 0x20 PUSH1 0x4 DUP3 ADD MSTORE PUSH1 0x18 PUSH1 0x24 DUP3 ADD MSTORE PUSH32 0x546869732070726F6A65637420776173206661696C65642E0000000000000000 PUSH1 0x44 DUP3 ADD MSTORE PUSH1 0x64 ADD PUSH2 0x55F JUMP JUMPDEST CALLER PUSH1 0x0 SWAP1 DUP2 MSTORE PUSH1 0x4 PUSH1 0x20 MSTORE PUSH1 0x40 DUP2 KECCAK256 DUP1 SLOAD CALLVALUE SWAP3 SWAP1 PUSH2 0x145E SWAP1 DUP5 SWAP1 PUSH2 0x1C96 JUMP JUMPDEST SWAP1 SWAP2 SSTORE POP POP CALLER PUSH1 0x0 SWAP1 DUP2 MSTORE PUSH1 0x3 PUSH1 0x20 MSTORE PUSH1 0x40 SWAP1 KECCAK256 SLOAD PUSH1 0xFF AND PUSH2 0x14E8 JUMPI PUSH1 0x2 DUP1 SLOAD PUSH1 0x1 DUP2 DUP2 ADD SWAP1 SWAP3 SSTORE PUSH32 0x405787FA12A823E0F2B7631CC41B3BA8828B3321CA811111FA75CD3AA3BB5ACE ADD DUP1 SLOAD PUSH1 0x1 PUSH1 0x1 PUSH1 0xA0 SHL SUB NOT AND CALLER SWAP1 DUP2 OR SWAP1 SWAP2 SSTORE PUSH1 0x0 SWAP1 DUP2 MSTORE PUSH1 0x3 PUSH1 0x20 SWAP1 DUP2 MSTORE PUSH1 0x40 DUP1 DUP4 KECCAK256 DUP1 SLOAD PUSH1 0xFF NOT SWAP1 DUP2 AND SWAP1 SWAP6 OR SWAP1 SSTORE PUSH1 0x6 SWAP1 SWAP2 MSTORE SWAP1 KECCAK256 DUP1 SLOAD SWAP1 SWAP2 AND SWAP1 SSTORE JUMPDEST DUP1 ISZERO PUSH2 0x1531 JUMPI PUSH1 0x40 DUP1 MLOAD DUP1 DUP3 ADD DUP3 MSTORE PUSH1 0x9 DUP2 MSTORE PUSH9 0x416E6F6E796D6F7573 PUSH1 0xB8 SHL PUSH1 0x20 DUP1 DUP4 ADD SWAP2 DUP3 MSTORE CALLER PUSH1 0x0 SWAP1 DUP2 MSTORE PUSH1 0x5 SWAP1 SWAP2 MSTORE SWAP3 SWAP1 SWAP3 KECCAK256 SWAP1 MLOAD PUSH2 0x152B SWAP3 SWAP1 PUSH2 0x15C0 JUMP JUMPDEST POP PUSH2 0x1553 JUMP JUMPDEST CALLER PUSH1 0x0 SWAP1 DUP2 MSTORE PUSH1 0x5 PUSH1 0x20 SWAP1 DUP2 MSTORE PUSH1 0x40 SWAP1 SWAP2 KECCAK256 DUP4 MLOAD PUSH2 0x1551 SWAP3 DUP6 ADD SWAP1 PUSH2 0x15C0 JUMP JUMPDEST POP JUMPDEST POP POP SELFBALANCE PUSH1 0xB SSTORE JUMP JUMPDEST PUSH1 0x0 JUMPDEST PUSH1 0x2 SLOAD DUP2 LT ISZERO PUSH2 0xA5F JUMPI PUSH1 0x6 PUSH1 0x0 PUSH1 0x2 DUP4 DUP2 SLOAD DUP2 LT PUSH2 0x157F JUMPI PUSH2 0x157F PUSH2 0x1B18 JUMP JUMPDEST PUSH1 0x0 SWAP2 DUP3 MSTORE PUSH1 0x20 DUP1 DUP4 KECCAK256 SWAP1 SWAP2 ADD SLOAD PUSH1 0x1 PUSH1 0x1 PUSH1 0xA0 SHL SUB AND DUP4 MSTORE DUP3 ADD SWAP3 SWAP1 SWAP3 MSTORE PUSH1 0x40 ADD SWAP1 KECCAK256 SLOAD PUSH1 0xFF AND PUSH2 0x15AE JUMPI POP JUMP JUMPDEST DUP1 PUSH2 0x15B8 DUP2 PUSH2 0x1C7D JUMP JUMPDEST SWAP2 POP POP PUSH2 0x155E JUMP JUMPDEST DUP3 DUP1 SLOAD PUSH2 0x15CC SWAP1 PUSH2 0x1A6B JUMP JUMPDEST SWAP1 PUSH1 0x0 MSTORE PUSH1 0x20 PUSH1 0x0 KECCAK256 SWAP1 PUSH1 0x1F ADD PUSH1 0x20 SWAP1 DIV DUP2 ADD SWAP3 DUP3 PUSH2 0x15EE JUMPI PUSH1 0x0 DUP6 SSTORE PUSH2 0x1634 JUMP JUMPDEST DUP3 PUSH1 0x1F LT PUSH2 0x1607 JUMPI DUP1 MLOAD PUSH1 0xFF NOT AND DUP4 DUP1 ADD OR DUP6 SSTORE PUSH2 0x1634 JUMP JUMPDEST DUP3 DUP1 ADD PUSH1 0x1 ADD DUP6 SSTORE DUP3 ISZERO PUSH2 0x1634 JUMPI SWAP2 DUP3 ADD JUMPDEST DUP3 DUP2 GT ISZERO PUSH2 0x1634 JUMPI DUP3 MLOAD DUP3 SSTORE SWAP2 PUSH1 0x20 ADD SWAP2 SWAP1 PUSH1 0x1 ADD SWAP1 PUSH2 0x1619 JUMP JUMPDEST POP PUSH2 0x1640 SWAP3 SWAP2 POP PUSH2 0x16F5 JUMP JUMPDEST POP SWAP1 JUMP JUMPDEST DUP3 DUP1 SLOAD PUSH2 0x1650 SWAP1 PUSH2 0x1A6B JUMP JUMPDEST SWAP1 PUSH1 0x0 MSTORE PUSH1 0x20 PUSH1 0x0 KECCAK256 SWAP1 PUSH1 0x1F ADD PUSH1 0x20 SWAP1 DIV DUP2 ADD SWAP3 DUP3 PUSH2 0x1672 JUMPI PUSH1 0x0 DUP6 SSTORE PUSH2 0x1634 JUMP JUMPDEST DUP3 PUSH1 0x1F LT PUSH2 0x1683 JUMPI DUP1 SLOAD DUP6 SSTORE PUSH2 0x1634 JUMP JUMPDEST DUP3 DUP1 ADD PUSH1 0x1 ADD DUP6 SSTORE DUP3 ISZERO PUSH2 0x1634 JUMPI PUSH1 0x0 MSTORE PUSH1 0x20 PUSH1 0x0 KECCAK256 SWAP2 PUSH1 0x1F ADD PUSH1 0x20 SWAP1 DIV DUP3 ADD JUMPDEST DUP3 DUP2 GT ISZERO PUSH2 0x1634 JUMPI DUP3 SLOAD DUP3 SSTORE SWAP2 PUSH1 0x1 ADD SWAP2 SWAP1 PUSH1 0x1 ADD SWAP1 PUSH2 0x16A4 JUMP JUMPDEST POP DUP1 SLOAD PUSH2 0x16CB SWAP1 PUSH2 0x1A6B JUMP JUMPDEST PUSH1 0x0 DUP3 SSTORE DUP1 PUSH1 0x1F LT PUSH2 0x16DB JUMPI POP POP JUMP JUMPDEST PUSH1 0x1F ADD PUSH1 0x20 SWAP1 DIV SWAP1 PUSH1 0x0 MSTORE PUSH1 0x20 PUSH1 0x0 KECCAK256 SWAP1 DUP2 ADD SWAP1 PUSH2 0x917 SWAP2 SWAP1 JUMPDEST JUMPDEST DUP1 DUP3 GT ISZERO PUSH2 0x1640 JUMPI PUSH1 0x0 DUP2 SSTORE PUSH1 0x1 ADD PUSH2 0x16F6 JUMP JUMPDEST PUSH1 0x0 DUP2 MLOAD DUP1 DUP5 MSTORE PUSH1 0x20 DUP1 DUP6 ADD SWAP5 POP DUP1 DUP5 ADD PUSH1 0x0 JUMPDEST DUP4 DUP2 LT ISZERO PUSH2 0x173A JUMPI DUP2 MLOAD DUP8 MSTORE SWAP6 DUP3 ADD SWAP6 SWAP1 DUP3 ADD SWAP1 PUSH1 0x1 ADD PUSH2 0x171E JUMP JUMPDEST POP SWAP5 SWAP6 SWAP5 POP POP POP POP POP JUMP JUMPDEST PUSH1 0x20 DUP2 MSTORE PUSH1 0x0 PUSH2 0x1758 PUSH1 0x20 DUP4 ADD DUP5 PUSH2 0x170A JUMP JUMPDEST SWAP4 SWAP3 POP POP POP JUMP JUMPDEST PUSH4 0x4E487B71 PUSH1 0xE0 SHL PUSH1 0x0 MSTORE PUSH1 0x41 PUSH1 0x4 MSTORE PUSH1 0x24 PUSH1 0x0 REVERT JUMPDEST PUSH1 0x0 DUP3 PUSH1 0x1F DUP4 ADD SLT PUSH2 0x1786 JUMPI PUSH1 0x0 DUP1 REVERT JUMPDEST DUP2 CALLDATALOAD PUSH8 0xFFFFFFFFFFFFFFFF DUP1 DUP3 GT ISZERO PUSH2 0x17A1 JUMPI PUSH2 0x17A1 PUSH2 0x175F JUMP JUMPDEST PUSH1 0x40 MLOAD PUSH1 0x1F DUP4 ADD PUSH1 0x1F NOT SWAP1 DUP2 AND PUSH1 0x3F ADD AND DUP2 ADD SWAP1 DUP3 DUP3 GT DUP2 DUP4 LT OR ISZERO PUSH2 0x17C9 JUMPI PUSH2 0x17C9 PUSH2 0x175F JUMP JUMPDEST DUP2 PUSH1 0x40 MSTORE DUP4 DUP2 MSTORE DUP7 PUSH1 0x20 DUP6 DUP9 ADD ADD GT ISZERO PUSH2 0x17E2 JUMPI PUSH1 0x0 DUP1 REVERT JUMPDEST DUP4 PUSH1 0x20 DUP8 ADD PUSH1 0x20 DUP4 ADD CALLDATACOPY PUSH1 0x0 PUSH1 0x20 DUP6 DUP4 ADD ADD MSTORE DUP1 SWAP5 POP POP POP POP POP SWAP3 SWAP2 POP POP JUMP JUMPDEST PUSH1 0x0 PUSH1 0x20 DUP3 DUP5 SUB SLT ISZERO PUSH2 0x1814 JUMPI PUSH1 0x0 DUP1 REVERT JUMPDEST DUP2 CALLDATALOAD PUSH8 0xFFFFFFFFFFFFFFFF DUP2 GT ISZERO PUSH2 0x182B JUMPI PUSH1 0x0 DUP1 REVERT JUMPDEST PUSH2 0x1837 DUP5 DUP3 DUP6 ADD PUSH2 0x1775 JUMP JUMPDEST SWAP5 SWAP4 POP POP POP POP JUMP JUMPDEST PUSH1 0x0 DUP2 MLOAD DUP1 DUP5 MSTORE PUSH1 0x0 JUMPDEST DUP2 DUP2 LT ISZERO PUSH2 0x1865 JUMPI PUSH1 0x20 DUP2 DUP6 ADD DUP2 ADD MLOAD DUP7 DUP4 ADD DUP3 ADD MSTORE ADD PUSH2 0x1849 JUMP JUMPDEST DUP2 DUP2 GT ISZERO PUSH2 0x1877 JUMPI PUSH1 0x0 PUSH1 0x20 DUP4 DUP8 ADD ADD MSTORE JUMPDEST POP PUSH1 0x1F ADD PUSH1 0x1F NOT AND SWAP3 SWAP1 SWAP3 ADD PUSH1 0x20 ADD SWAP3 SWAP2 POP POP JUMP JUMPDEST PUSH1 0x0 DUP3 DUP3 MLOAD DUP1 DUP6 MSTORE PUSH1 0x20 DUP1 DUP7 ADD SWAP6 POP DUP1 DUP3 PUSH1 0x5 SHL DUP5 ADD ADD DUP2 DUP7 ADD PUSH1 0x0 JUMPDEST DUP5 DUP2 LT ISZERO PUSH2 0x18D7 JUMPI PUSH1 0x1F NOT DUP7 DUP5 SUB ADD DUP10 MSTORE PUSH2 0x18C5 DUP4 DUP4 MLOAD PUSH2 0x183F JUMP JUMPDEST SWAP9 DUP5 ADD SWAP9 SWAP3 POP SWAP1 DUP4 ADD SWAP1 PUSH1 0x1 ADD PUSH2 0x18A9 JUMP JUMPDEST POP SWAP1 SWAP8 SWAP7 POP POP POP POP POP POP POP JUMP JUMPDEST PUSH1 0x20 DUP2 MSTORE PUSH1 0x0 PUSH2 0x1758 PUSH1 0x20 DUP4 ADD DUP5 PUSH2 0x188C JUMP JUMPDEST PUSH1 0x0 PUSH1 0x20 DUP3 DUP5 SUB SLT ISZERO PUSH2 0x1909 JUMPI PUSH1 0x0 DUP1 REVERT JUMPDEST DUP2 CALLDATALOAD PUSH1 0x1 PUSH1 0x1 PUSH1 0xA0 SHL SUB DUP2 AND DUP2 EQ PUSH2 0x1758 JUMPI PUSH1 0x0 DUP1 REVERT JUMPDEST PUSH1 0x20 DUP2 MSTORE PUSH1 0x0 PUSH2 0x1758 PUSH1 0x20 DUP4 ADD DUP5 PUSH2 0x183F JUMP JUMPDEST PUSH1 0x0 PUSH1 0x20 DUP3 DUP5 SUB SLT ISZERO PUSH2 0x1945 JUMPI PUSH1 0x0 DUP1 REVERT JUMPDEST POP CALLDATALOAD SWAP2 SWAP1 POP JUMP JUMPDEST PUSH1 0x40 DUP2 MSTORE PUSH1 0x0 PUSH2 0x195F PUSH1 0x40 DUP4 ADD DUP6 PUSH2 0x188C JUMP JUMPDEST DUP3 DUP2 SUB PUSH1 0x20 DUP5 ADD MSTORE PUSH2 0x1971 DUP2 DUP6 PUSH2 0x170A JUMP JUMPDEST SWAP6 SWAP5 POP POP POP POP POP JUMP JUMPDEST DUP1 ISZERO ISZERO DUP2 EQ PUSH2 0x917 JUMPI PUSH1 0x0 DUP1 REVERT JUMPDEST PUSH1 0x0 DUP1 PUSH1 0x40 DUP4 DUP6 SUB SLT ISZERO PUSH2 0x199B JUMPI PUSH1 0x0 DUP1 REVERT JUMPDEST DUP3 CALLDATALOAD PUSH8 0xFFFFFFFFFFFFFFFF DUP2 GT ISZERO PUSH2 0x19B2 JUMPI PUSH1 0x0 DUP1 REVERT JUMPDEST PUSH2 0x19BE DUP6 DUP3 DUP7 ADD PUSH2 0x1775 JUMP JUMPDEST SWAP3 POP POP PUSH1 0x20 DUP4 ADD CALLDATALOAD PUSH2 0x19CF DUP2 PUSH2 0x197A JUMP JUMPDEST DUP1 SWAP2 POP POP SWAP3 POP SWAP3 SWAP1 POP JUMP JUMPDEST PUSH1 0x20 DUP1 DUP3 MSTORE PUSH1 0x16 SWAP1 DUP3 ADD MSTORE PUSH22 0x2A3434B990383937B532B1BA1034B99031B637B9B297 PUSH1 0x51 SHL PUSH1 0x40 DUP3 ADD MSTORE PUSH1 0x60 ADD SWAP1 JUMP JUMPDEST PUSH1 0x20 DUP1 DUP3 MSTORE PUSH1 0x17 SWAP1 DUP3 ADD MSTORE PUSH32 0x4E656564206F776E6572207065726D697373696F6E732E000000000000000000 PUSH1 0x40 DUP3 ADD MSTORE PUSH1 0x60 ADD SWAP1 JUMP JUMPDEST PUSH1 0x40 DUP2 MSTORE PUSH1 0x0 PUSH2 0x1A54 PUSH1 0x40 DUP4 ADD DUP6 PUSH2 0x183F JUMP JUMPDEST SWAP1 POP PUSH1 0x1 DUP1 PUSH1 0xA0 SHL SUB DUP4 AND PUSH1 0x20 DUP4 ADD MSTORE SWAP4 SWAP3 POP POP POP JUMP JUMPDEST PUSH1 0x1 DUP2 DUP2 SHR SWAP1 DUP3 AND DUP1 PUSH2 0x1A7F JUMPI PUSH1 0x7F DUP3 AND SWAP2 POP JUMPDEST PUSH1 0x20 DUP3 LT DUP2 SUB PUSH2 0x1A9F JUMPI PUSH4 0x4E487B71 PUSH1 0xE0 SHL PUSH1 0x0 MSTORE PUSH1 0x22 PUSH1 0x4 MSTORE PUSH1 0x24 PUSH1 0x0 REVERT JUMPDEST POP SWAP2 SWAP1 POP JUMP JUMPDEST PUSH1 0x0 PUSH1 0x20 DUP3 DUP5 SUB SLT ISZERO PUSH2 0x1AB7 JUMPI PUSH1 0x0 DUP1 REVERT JUMPDEST DUP2 MLOAD PUSH2 0x1758 DUP2 PUSH2 0x197A JUMP JUMPDEST PUSH1 0x20 DUP1 DUP3 MSTORE PUSH1 0x36 SWAP1 DUP3 ADD MSTORE PUSH32 0x50726F6A65637420686173206E6F74206661696C6564207965742C206F722064 PUSH1 0x40 DUP3 ADD MSTORE PUSH22 0x37B2B9B713BA103430BB329030B73C90333AB7323997 PUSH1 0x51 SHL PUSH1 0x60 DUP3 ADD MSTORE PUSH1 0x80 ADD SWAP1 JUMP JUMPDEST PUSH4 0x4E487B71 PUSH1 0xE0 SHL PUSH1 0x0 MSTORE PUSH1 0x32 PUSH1 0x4 MSTORE PUSH1 0x24 PUSH1 0x0 REVERT JUMPDEST PUSH1 0x0 DUP1 DUP4 SLOAD PUSH2 0x1B3C DUP2 PUSH2 0x1A6B JUMP JUMPDEST PUSH1 0x1 DUP3 DUP2 AND DUP1 ISZERO PUSH2 0x1B54 JUMPI PUSH1 0x1 DUP2 EQ PUSH2 0x1B65 JUMPI PUSH2 0x1B94 JUMP JUMPDEST PUSH1 0xFF NOT DUP5 AND DUP8 MSTORE DUP3 DUP8 ADD SWAP5 POP PUSH2 0x1B94 JUMP JUMPDEST DUP8 PUSH1 0x0 MSTORE PUSH1 0x20 DUP1 PUSH1 0x0 KECCAK256 PUSH1 0x0 JUMPDEST DUP6 DUP2 LT ISZERO PUSH2 0x1B8B JUMPI DUP2 SLOAD DUP11 DUP3 ADD MSTORE SWAP1 DUP5 ADD SWAP1 DUP3 ADD PUSH2 0x1B72 JUMP JUMPDEST POP POP POP DUP3 DUP8 ADD SWAP5 POP JUMPDEST POP SWAP3 SWAP7 SWAP6 POP POP POP POP POP POP JUMP JUMPDEST PUSH4 0x4E487B71 PUSH1 0xE0 SHL PUSH1 0x0 MSTORE PUSH1 0x11 PUSH1 0x4 MSTORE PUSH1 0x24 PUSH1 0x0 REVERT JUMPDEST PUSH1 0x0 DUP3 DUP3 LT ISZERO PUSH2 0x1BC8 JUMPI PUSH2 0x1BC8 PUSH2 0x1BA0 JUMP JUMPDEST POP SUB SWAP1 JUMP JUMPDEST PUSH1 0x40 DUP2 MSTORE PUSH1 0x0 DUP1 DUP5 SLOAD PUSH2 0x1BDF DUP2 PUSH2 0x1A6B JUMP JUMPDEST DUP1 PUSH1 0x40 DUP7 ADD MSTORE PUSH1 0x60 PUSH1 0x1 DUP1 DUP5 AND PUSH1 0x0 DUP2 EQ PUSH2 0x1C01 JUMPI PUSH1 0x1 DUP2 EQ PUSH2 0x1C15 JUMPI PUSH2 0x1C46 JUMP JUMPDEST PUSH1 0xFF NOT DUP6 AND DUP9 DUP5 ADD MSTORE PUSH1 0x80 DUP9 ADD SWAP6 POP PUSH2 0x1C46 JUMP JUMPDEST DUP10 PUSH1 0x0 MSTORE PUSH1 0x20 DUP1 PUSH1 0x0 KECCAK256 PUSH1 0x0 JUMPDEST DUP7 DUP2 LT ISZERO PUSH2 0x1C3D JUMPI DUP2 SLOAD DUP12 DUP3 ADD DUP8 ADD MSTORE SWAP1 DUP5 ADD SWAP1 DUP3 ADD PUSH2 0x1C22 JUMP JUMPDEST DUP11 ADD DUP6 ADD SWAP8 POP POP POP JUMPDEST POP POP POP POP PUSH1 0x1 PUSH1 0x1 PUSH1 0xA0 SHL SUB SWAP5 SWAP1 SWAP5 AND PUSH1 0x20 SWAP4 SWAP1 SWAP4 ADD SWAP3 SWAP1 SWAP3 MSTORE POP SWAP3 SWAP2 POP POP JUMP JUMPDEST PUSH4 0x4E487B71 PUSH1 0xE0 SHL PUSH1 0x0 MSTORE PUSH1 0x31 PUSH1 0x4 MSTORE PUSH1 0x24 PUSH1 0x0 REVERT JUMPDEST PUSH1 0x0 PUSH1 0x1 DUP3 ADD PUSH2 0x1C8F JUMPI PUSH2 0x1C8F PUSH2 0x1BA0 JUMP JUMPDEST POP PUSH1 0x1 ADD SWAP1 JUMP JUMPDEST PUSH1 0x0 DUP3 NOT DUP3 GT ISZERO PUSH2 0x1CA9 JUMPI PUSH2 0x1CA9 PUSH2 0x1BA0 JUMP JUMPDEST POP ADD SWAP1 JUMP INVALID LOG2 PUSH5 0x6970667358 0x22 SLT KECCAK256 0xC7 0xF 0xF7 CODECOPY PUSH21 0x345981ED37D9FA274A023872BC7A1FD4C9A56F1943 DUP10 0xA5 0x21 MSIZE COINBASE ISZERO PUSH5 0x736F6C6343 STOP ADDMOD 0xE STOP CALLER ",
  "sha1": "a6d80b9a4b91dbdf2c29705218c795b44c0afb18",
  "source": "// SPDX-License-Identifier: MIT\n\npragma solidity ^0.8.13;\n\nimport '../interfaces/CrowdfundingWithTypes.sol';\nimport '../interfaces/ProjectInterface.sol';\n\ncontract Project is ProjectInterface{\n\n    // private attributes \n    address payable project_owner;\n    CrowdfundingWithTypes main_app;\n\n    address payable[] funders;\n    mapping(address=>bool) funder_exists;\n    mapping(address=>uint256) funder_to_amount;\n    mapping(address=>string) funder_to_name;\n    mapping(address=>bool) funder_got_refund;\n\n    // public attributes\n    string public project_name;\n    string public project_description;\n    uint256 public target_amount;\n    uint256 public date_limit;\n    uint256 public max_recorded_amount;\n    string public image_url;\n    uint256 public created;\n    bool public is_closed;\n\n    string[] public types;\n    uint256[] public fixed_amounts_to_donate;\n\n    constructor(\n        address owner,\n        string memory name,\n        string memory desc,\n        uint256 target,\n        uint256 end_date,\n        string memory image_add,\n        string[] memory types_arr,\n        uint256[] memory amounts_to_donate,\n        address app) {\n            /* \n             * main app project factory will activate this constuctor.\n            */\n            project_owner = payable(owner);\n            project_name = name;\n            project_description = desc;\n            target_amount = target;\n            date_limit = end_date;\n            image_url = image_add;\n            types = types_arr;\n            fixed_amounts_to_donate = amounts_to_donate;\n            main_app = CrowdfundingWithTypes(app);\n            created = block.timestamp;\n            is_closed = false;\n    }\n\n    function fund_project(string memory funder_name, bool is_anonymous) \n    external payable {\n        /* \n         * this function will be used bu users to fund this project.\n         * - add the funder to project's funders if it is his first funding \n         *   for this project.\n         * - add the funder name or \"Anonymous\" to the funders history.\n         * - update max recorded balance for this project.\n        */\n        require(is_closed == false, \"This project is close.\");\n        require(this.is_fail() == false, \"This project was failed.\");\n\n        funder_to_amount[msg.sender] += msg.value;\n\n        if(!funder_exists[msg.sender]){\n            funders.push(payable(msg.sender));\n            funder_exists[msg.sender] = true;\n            funder_got_refund[msg.sender] = false;\n        }\n        \n        if(is_anonymous){\n            funder_to_name[msg.sender] = \"Anonymous\"; \n        }\n        else{\n            funder_to_name[msg.sender] = funder_name;\n        }\n        \n        max_recorded_amount = address(this).balance;\n    }\n\n    function return_funds_to_funders() external {\n        /*\n         * everyone can demand refund.\n         * refund can be activated only if those two conditions fulfiled:\n         * 1. project has fail.\n         * 2. current project blance is above 0.\n        */\n        require(is_closed == false, \"This project is close.\");\n        require((this.is_fail() == true) && (address(this).balance > 0),\n        \"Project has not failed yet, or doesn't have any funds.\");\n\n        for(uint i=0; i<funders.length; i++){\n            funders[i].transfer(funder_to_amount[funders[i]]);\n            funder_got_refund[funders[i]] = true;\n        }\n\n        is_closed = true;\n    }\n\n    function close_project_if_no_funders() private{\n        /*\n        * this function verify that all funders got refund and close the porject if they are.\n        */\n        for(uint i=0; i<funders.length; i++){\n            if(!funder_got_refund[funders[i]]){\n                return;\n            }\n        }\n\n        is_closed = true;\n    }\n\n    function return_funds_to_single_funder(address payable funder_add) external{\n        /*\n         * in order to avoid situation of stuck ethereum, \n         * we need to enable enyone to demand refund for himself or another funder.\n         * refund can be activated only if those two conditions fulfiled:\n         * 1. project has fail.\n         * 2. current project blance is above 0.\n        */\n        require(is_closed == false, \"This project is close.\");\n        require((this.is_fail() == true) && (address(this).balance > 0),\n        \"Project has not failed yet, or doesn't have any funds.\");\n\n        if(funder_to_amount[funder_add] > 0){\n            funder_add.transfer(funder_to_amount[funder_add]);\n            funder_got_refund[funder_add] = true;\n        }\n        \n        close_project_if_no_funders();\n    }\n\n    function owner_withdraw() external {\n        /*\n         * only the owner can withdraw funds uppon success.\n         * withdraw can be made only if those two conditions fulfiled:\n         * 1. project has succeed \n         * 2. the owner sent the request.\n        */\n        require(is_closed == false, \"This project is close.\");\n        require((this.is_success() == true) && (msg.sender == project_owner),\n        \"Project has not succeed yet, or you are not the owner.\");\n\n        project_owner.transfer(address(this).balance);\n\n        is_closed = true;\n    }\n\n    function get_curr_total_funds() public view returns(uint256){\n\n        return address(this).balance;\n    }\n\n    function is_success() external view returns(bool){\n        /*\n         * if timie limit is bigger than now (didn't reach)\n         * and curr total funds is bigger or equale than target amount,\n         * then project was succeed.\n        */\n        uint256 curr_amount = get_curr_total_funds();\n        if(curr_amount >= target_amount){\n            return true;\n        }\n        return false;\n    }\n\n    function is_fail() external view returns(bool){\n        /*\n         * if timie limit is less than now (didn't reach)\n         * and curr total funds is less than target amount,\n         * then project was failed.\n         */\n        uint256 curr_amount = get_curr_total_funds();\n        if((date_limit < block.timestamp) && (curr_amount < target_amount)){\n            return true;\n        }\n        return false;\n    }\n\n    function add_fix_amount(uint256 amount) external {\n\n        require(is_closed == false, \"This project is close.\");\n        require(msg.sender == project_owner, \"Need owner permissions.\");\n\n        fixed_amounts_to_donate.push(amount);\n    }\n\n    function remove_fix_amount(uint256 amount) external {\n\n        require(is_closed == false, \"This project is close.\");\n        require(msg.sender == project_owner, \"Need owner permissions.\");\n\n        for(uint i=0; i<fixed_amounts_to_donate.length; i++){\n            if(fixed_amounts_to_donate[i] == amount){\n                uint256 last_index = fixed_amounts_to_donate.length - 1;\n                fixed_amounts_to_donate[i] = fixed_amounts_to_donate[last_index];\n                fixed_amounts_to_donate.pop();\n                break;\n            }\n        }\n    }\n\n    function add_type(string memory project_type) external {\n        \n        require(is_closed == false, \"This project is close.\"); \n        require(msg.sender == project_owner, \"Need owner permissions.\");\n\n        types.push(project_type);\n        main_app.add_project_to_type_mapping(project_type, address(this));\n    }\n\n    \n    function remove_type(string memory project_type) external {\n        \n        require(is_closed == false, \"This project is close.\"); \n        require(msg.sender == project_owner, \"Need owner permissions.\");\n\n        /*\n         * the conversion inside the condition is needed,\n         * since soldity don't comapre memory str with storage str.\n        */\n        for(uint i=0; i<types.length; i++){\n            if(keccak256(bytes(types[i])) == keccak256(bytes(project_type))){\n                uint256 last_index = types.length - 1;\n                main_app.remove_project_from_type_mapping(types[i], address(this));\n                types[i] = types[last_index];\n                types.pop();\n                break;\n            }\n        }\n    }\n\n    function change_picture(string memory picture_url) external {\n        \n        require(is_closed == false, \"This project is close.\"); \n        require(msg.sender == project_owner, \"Need owner permissions.\");\n        \n        image_url = picture_url;\n    }\n\n    function change_project_name(string memory new_name) external {\n        \n        require(is_closed == false, \"This project is close.\"); \n        require(msg.sender == project_owner, \"Need owner permissions.\");\n        \n        project_name = new_name;\n    }\n\n    function change_project_description(string memory new_desc) external {\n        \n        require(is_closed == false, \"This project is close.\"); \n        require(msg.sender == project_owner, \"Need owner permissions.\");\n        \n        project_description = new_desc;\n    }\n\n    function get_project_types() external view returns(string[] memory){\n        return types;\n    }\n\n    function get_fixed_amounts() external view returns(uint256[] memory){\n        return fixed_amounts_to_donate;\n    }\n\n    function get_name_to_amount() external view \n    returns(string[] memory,\n            uint256[] memory){\n        /* \n         * This function will be used to get funding history.\n         * returns arrays of funders names and funders amounts.\n         * for example funder named funders_names[i] donate to this project\n         * funders_amounts[i].\n         * the front end will get those arrays and will display funding history.\n        */\n        string[] memory funders_names = new string[](funders.length);\n        uint256[] memory funders_amounts = new uint256[](funders.length);\n\n        for(uint i=0; i<funders.length; i++){\n            funders_names[i] = funder_to_name[funders[i]];\n            funders_amounts[i] = funder_to_amount[funders[i]];\n        }\n        return (funders_names, funders_amounts);\n    }\n\n    function set_time_limit(uint256 new_time) external{\n        \n        require(is_closed == false, \"This project is close.\"); \n        require(msg.sender == project_owner, \"Need owner permissions.\");\n\n        date_limit = new_time;\n    }\n}",
  "sourcePath": "contracts/Project.sol",
  "type": "contract"
}