{"bytecode":"608060405234801561001057600080fd5b50613067806100206000396000f3fe60806040523480156200001157600080fd5b5060043610620000875760003560e01c80637407da9011620000625780637407da9014620000de5780637d96f83514620000f7578063a95bcc4c146200010e578063e97410af146200013e57600080fd5b806311357471146200008c5780632275398e14620000a5578063605a6f2614620000c7575b600080fd5b620000a36200009d366004620009f8565b62000148565b005b620000af62000325565b604051620000be919062000a5b565b60405180910390f35b620000a3620000d8366004620009f8565b62000392565b620000e862000437565b604051620000be919062000b67565b620000af6200010836600462000b83565b6200051d565b620001256200011f36600462000ce8565b6200059b565b6040516001600160a01b039091168152602001620000be565b620000af6200072e565b60005b6003836040516200015d919062000ddd565b908152604051908190036020019020548110156200032057816001600160a01b031660038460405162000191919062000ddd565b90815260200160405180910390208281548110620001b357620001b362000dfb565b6000918252602090912001546001600160a01b0316036200030b5760006001600385604051620001e4919062000ddd565b9081526040519081900360200190205462000200919062000e27565b905060038460405162000214919062000ddd565b9081526020016040518091039020818154811062000236576200023662000dfb565b6000918252602090912001546040516001600160a01b03909116906003906200026190879062000ddd565b9081526020016040518091039020838154811062000283576200028362000dfb565b9060005260206000200160006101000a8154816001600160a01b0302191690836001600160a01b03160217905550600384604051620002c3919062000ddd565b9081526020016040518091039020805480620002e357620002e362000e41565b600082815260209020810160001990810180546001600160a01b031916905501905550505050565b80620003178162000e57565b9150506200014b565b505050565b336000908152600260209081526040918290208054835181840281018401909452808452606093928301828280156200038857602002820191906000526020600020905b81546001600160a01b0316815260019091019060200180831162000369575b5050505050905090565b600382604051620003a4919062000ddd565b9081526040805160209281900383018120805460018082018355600092835285832090910180546001600160a01b0319166001600160a01b0388161790558083528284019093529290919082015b6060815260200190600190039081620003f2579050509050828160008151811062000421576200042162000dfb565b6020026020010181905250620003208162000790565b60606004600001805480602002602001604051908101604052809291908181526020016000905b8282101562000514578382906000526020600020018054620004809062000e73565b80601f0160208091040260200160405190810160405280929190818152602001828054620004ae9062000e73565b8015620004ff5780601f10620004d357610100808354040283529160200191620004ff565b820191906000526020600020905b815481529060010190602001808311620004e157829003601f168201915b5050505050815260200190600101906200045e565b50505050905090565b606060038260405162000531919062000ddd565b90815260408051918290036020908101832080548083028501830190935282845291908301828280156200058f57602002820191906000526020600020905b81546001600160a01b0316815260019091019060200180831162000570575b50505050509050919050565b600080338989898989898930604051620005b59062000883565b620005c99998979695949392919062000eaf565b604051809103906000f080158015620005e6573d6000803e3d6000fd5b5060008054600180820183557f290decd9548b62a8d60345a988386fc84ba6bc95484008f6362f93160ef3e5639091018054336001600160a01b03199182168117909255825480840184557fb10e2d527612073b26eecdfd717e6a320cf44b4afac2b0732d9fcbe2b7fa0cf601805482166001600160a01b0387169081179091559184526002602090815260408520805494850181558552842090920180549092161790559091505b845181101562000716576003858281518110620006b057620006b062000dfb565b6020026020010151604051620006c7919062000ddd565b90815260405160209181900382019020805460018101825560009182529190200180546001600160a01b0319166001600160a01b038416179055806200070d8162000e57565b9150506200068f565b50620007228462000790565b98975050505050505050565b6060600180548060200260200160405190810160405280929190818152602001828054801562000388576020028201919060005260206000209081546001600160a01b0316815260019091019060200180831162000369575050505050905090565b60005b81518110156200087f576000828281518110620007b457620007b462000dfb565b60200260200101519050600460010181604051620007d3919062000ddd565b9081526040519081900360200190205460ff16620008695760048054600181018255600091909152815162000830917f8a35acfbc15ff81a39ae7d344fd709f28e8600b4aa8c65c6b64bfe7fe36bd19b0190602084019062000891565b50600160046001018260405162000848919062000ddd565b908152604051908190036020019020805491151560ff199092169190911790555b5080620008768162000e57565b91505062000793565b5050565b6120a98062000f8983390190565b8280546200089f9062000e73565b90600052602060002090601f016020900481019282620008c357600085556200090e565b82601f10620008de57805160ff19168380011785556200090e565b828001600101855582156200090e579182015b828111156200090e578251825591602001919060010190620008f1565b506200091c92915062000920565b5090565b5b808211156200091c576000815560010162000921565b634e487b7160e01b600052604160045260246000fd5b604051601f8201601f1916810167ffffffffffffffff8111828210171562000979576200097962000937565b604052919050565b600082601f8301126200099357600080fd5b813567ffffffffffffffff811115620009b057620009b062000937565b620009c5601f8201601f19166020016200094d565b818152846020838601011115620009db57600080fd5b816020850160208301376000918101602001919091529392505050565b6000806040838503121562000a0c57600080fd5b823567ffffffffffffffff81111562000a2457600080fd5b62000a328582860162000981565b92505060208301356001600160a01b038116811462000a5057600080fd5b809150509250929050565b6020808252825182820181905260009190848201906040850190845b8181101562000a9e5783516001600160a01b03168352928401929184019160010162000a77565b50909695505050505050565b60005b8381101562000ac757818101518382015260200162000aad565b8381111562000ad7576000848401525b50505050565b6000815180845262000af781602086016020860162000aaa565b601f01601f19169290920160200192915050565b600082825180855260208086019550808260051b84010181860160005b8481101562000b5a57601f1986840301895262000b4783835162000add565b9884019892509083019060010162000b28565b5090979650505050505050565b60208152600062000b7c602083018462000b0b565b9392505050565b60006020828403121562000b9657600080fd5b813567ffffffffffffffff81111562000bae57600080fd5b62000bbc8482850162000981565b949350505050565b600067ffffffffffffffff82111562000be15762000be162000937565b5060051b60200190565b600082601f83011262000bfd57600080fd5b8135602062000c1662000c108362000bc4565b6200094d565b82815260059290921b8401810191818101908684111562000c3657600080fd5b8286015b8481101562000c7b57803567ffffffffffffffff81111562000c5c5760008081fd5b62000c6c8986838b010162000981565b84525091830191830162000c3a565b509695505050505050565b600082601f83011262000c9857600080fd5b8135602062000cab62000c108362000bc4565b82815260059290921b8401810191818101908684111562000ccb57600080fd5b8286015b8481101562000c7b578035835291830191830162000ccf565b600080600080600080600060e0888a03121562000d0457600080fd5b873567ffffffffffffffff8082111562000d1d57600080fd5b62000d2b8b838c0162000981565b985060208a013591508082111562000d4257600080fd5b62000d508b838c0162000981565b975060408a0135965060608a0135955060808a013591508082111562000d7557600080fd5b62000d838b838c0162000981565b945060a08a013591508082111562000d9a57600080fd5b62000da88b838c0162000beb565b935060c08a013591508082111562000dbf57600080fd5b5062000dce8a828b0162000c86565b91505092959891949750929550565b6000825162000df181846020870162000aaa565b9190910192915050565b634e487b7160e01b600052603260045260246000fd5b634e487b7160e01b600052601160045260246000fd5b60008282101562000e3c5762000e3c62000e11565b500390565b634e487b7160e01b600052603160045260246000fd5b60006001820162000e6c5762000e6c62000e11565b5060010190565b600181811c9082168062000e8857607f821691505b60208210810362000ea957634e487b7160e01b600052602260045260246000fd5b50919050565b6001600160a01b038a16815261012060208083018290526000919062000ed88483018d62000add565b9150838203604085015262000eee828c62000add565b915089606085015288608085015283820360a085015262000f10828962000add565b915083820360c085015262000f26828862000b0b565b84810360e0860152865180825282880193509082019060005b8181101562000f5d5784518352938301939183019160010162000f3f565b50506001600160a01b038616610100860152925062000f7a915050565b9a995050505050505050505056fe60806040523480156200001157600080fd5b50604051620020a9380380620020a98339810160408190526200003491620004c7565b600080546001600160a01b0319166001600160a01b038b161790558751620000649060069060208b019062000104565b5086516200007a9060079060208a019062000104565b506008869055600985905583516200009a90600b90602087019062000104565b508251620000b090600e90602086019062000193565b508151620000c690600f906020850190620001f3565b50600180546001600160a01b0319166001600160a01b0392909216919091179055505042600c555050600d805460ff19169055506200061e92505050565b8280546200011290620005e2565b90600052602060002090601f01602090048101928262000136576000855562000181565b82601f106200015157805160ff191683800117855562000181565b8280016001018555821562000181579182015b828111156200018157825182559160200191906001019062000164565b506200018f92915062000230565b5090565b828054828255906000526020600020908101928215620001e5579160200282015b82811115620001e55782518051620001d491849160209091019062000104565b5091602001919060010190620001b4565b506200018f92915062000247565b8280548282559060005260206000209081019282156200018157916020028201828111156200018157825182559160200191906001019062000164565b5b808211156200018f576000815560010162000231565b808211156200018f5760006200025e828262000268565b5060010162000247565b5080546200027690620005e2565b6000825580601f1062000287575050565b601f016020900490600052602060002090810190620002a7919062000230565b50565b80516001600160a01b0381168114620002c257600080fd5b919050565b634e487b7160e01b600052604160045260246000fd5b604051601f8201601f191681016001600160401b0381118282101715620003085762000308620002c7565b604052919050565b600082601f8301126200032257600080fd5b81516001600160401b038111156200033e576200033e620002c7565b602062000354601f8301601f19168201620002dd565b82815285828487010111156200036957600080fd5b60005b83811015620003895785810183015182820184015282016200036c565b838111156200039b5760008385840101525b5095945050505050565b60006001600160401b03821115620003c157620003c1620002c7565b5060051b60200190565b600082601f830112620003dd57600080fd5b81516020620003f6620003f083620003a5565b620002dd565b82815260059290921b840181019181810190868411156200041657600080fd5b8286015b848110156200045a5780516001600160401b038111156200043b5760008081fd5b6200044b8986838b010162000310565b8452509183019183016200041a565b509695505050505050565b600082601f8301126200047757600080fd5b815160206200048a620003f083620003a5565b82815260059290921b84018101918181019086841115620004aa57600080fd5b8286015b848110156200045a5780518352918301918301620004ae565b60008060008060008060008060006101208a8c031215620004e757600080fd5b620004f28a620002aa565b60208b01519099506001600160401b03808211156200051057600080fd5b6200051e8d838e0162000310565b995060408c01519150808211156200053557600080fd5b620005438d838e0162000310565b985060608c0151975060808c0151965060a08c01519150808211156200056857600080fd5b620005768d838e0162000310565b955060c08c01519150808211156200058d57600080fd5b6200059b8d838e01620003cb565b945060e08c0151915080821115620005b257600080fd5b50620005c18c828d0162000465565b925050620005d36101008b01620002aa565b90509295985092959850929598565b600181811c90821680620005f757607f821691505b6020821081036200061857634e487b7160e01b600052602260045260246000fd5b50919050565b611a7b806200062e6000396000f3fe60806040526004361061019c5760003560e01c8063824f4baf116100ec578063cefbfa361161008a578063e68ec6b711610064578063e68ec6b71461043d578063ece241cb14610460578063f0528f8314610476578063fa1125671461049657600080fd5b8063cefbfa36146103ee578063cfd9866b1461040e578063dc9c9f331461042857600080fd5b8063b774a6c6116100c6578063b774a6c614610384578063bc65fc5f146103a4578063bcccba14146103b9578063c6b0ffd0146103d957600080fd5b8063824f4baf146103395780638c2342981461034e5780639f0826c41461036457600080fd5b806334ef39f111610159578063539e366c11610133578063539e366c146102d057806363391f8a146102f05780636bbeefea1461030357806381e0ffae1461032357600080fd5b806334ef39f11461027457806345f93331146102895780634eb2b29d146102ab57600080fd5b80630ffffec4146101a15780631fd47b7e146101cc57806322776206146101ee57806326e56d5e1461020e5780632b85eb5f1461022e578063325a19f114610250575b600080fd5b3480156101ad57600080fd5b506101b66104a9565b6040516101c3919061155b565b60405180910390f35b3480156101d857600080fd5b506101ec6101e7366004611618565b610501565b005b3480156101fa57600080fd5b506101ec610209366004611618565b61056e565b34801561021a57600080fd5b506101ec610229366004611618565b6105ce565b34801561023a57600080fd5b506102436106c6565b6040516101c391906116fa565b34801561025c57600080fd5b50610266600c5481565b6040519081526020016101c3565b34801561028057600080fd5b506101ec61079f565b34801561029557600080fd5b5061029e6108f4565b6040516101c3919061170d565b3480156102b757600080fd5b506102c0610982565b60405190151581526020016101c3565b3480156102dc57600080fd5b506101ec6102eb366004611618565b6109af565b3480156102fc57600080fd5b5047610266565b34801561030f57600080fd5b506101ec61031e366004611720565b610a0f565b34801561032f57600080fd5b5061026660085481565b34801561034557600080fd5b5061029e610a61565b34801561035a57600080fd5b5061026660095481565b34801561037057600080fd5b506101ec61037f366004611618565b610a6e565b34801561039057600080fd5b506101ec61039f366004611720565b610c38565b3480156103b057600080fd5b506101ec610d45565b3480156103c557600080fd5b506102666103d4366004611720565b610efa565b3480156103e557600080fd5b506102c0610f1b565b3480156103fa57600080fd5b5061029e610409366004611720565b610f31565b34801561041a57600080fd5b50600d546102c09060ff1681565b34801561043457600080fd5b5061029e610f5c565b34801561044957600080fd5b50610452610f69565b6040516101c3929190611739565b34801561046c57600080fd5b50610266600a5481565b34801561048257600080fd5b506101ec610491366004611720565b611172565b6101ec6104a4366004611775565b6111f4565b6060600f8054806020026020016040519081016040528092919081815260200182805480156104f757602002820191906000526020600020905b8154815260200190600101908083116104e3575b5050505050905090565b600d5460ff161561052d5760405162461bcd60e51b8152600401610524906117c7565b60405180910390fd5b6000546001600160a01b031633146105575760405162461bcd60e51b8152600401610524906117f7565b805161056a9060079060208401906113cf565b5050565b600d5460ff16156105915760405162461bcd60e51b8152600401610524906117c7565b6000546001600160a01b031633146105bb5760405162461bcd60e51b8152600401610524906117f7565b805161056a90600b9060208401906113cf565b600d5460ff16156105f15760405162461bcd60e51b8152600401610524906117c7565b6000546001600160a01b0316331461061b5760405162461bcd60e51b8152600401610524906117f7565b600e8054600181018255600091909152815161065e917fbb7b4a454dc3493923482f07822329ed19e8244eff582cc204f8554c3620c3fd019060208401906113cf565b5060015460405163302d379360e11b81526001600160a01b039091169063605a6f2690610691908490309060040161182e565b600060405180830381600087803b1580156106ab57600080fd5b505af11580156106bf573d6000803e3d6000fd5b5050505050565b6060600e805480602002602001604051908101604052809291908181526020016000905b8282101561079657838290600052602060002001805461070990611858565b80601f016020809104026020016040519081016040528092919081815260200182805461073590611858565b80156107825780601f1061075757610100808354040283529160200191610782565b820191906000526020600020905b81548152906001019060200180831161076557829003601f168201915b5050505050815260200190600101906106ea565b50505050905090565b600d5460ff16156107c25760405162461bcd60e51b8152600401610524906117c7565b306001600160a01b031663c6b0ffd06040518163ffffffff1660e01b8152600401602060405180830381865afa158015610800573d6000803e3d6000fd5b505050506040513d601f19601f820116820180604052508101906108249190611892565b1515600114801561083f57506000546001600160a01b031633145b6108aa5760405162461bcd60e51b815260206004820152603660248201527f50726f6a65637420686173206e6f742073756363656564207965742c206f72206044820152753cb7ba9030b932903737ba103a34329037bbb732b91760511b6064820152608401610524565b600080546040516001600160a01b03909116914780156108fc02929091818181858888f193505050501580156108e4573d6000803e3d6000fd5b50600d805460ff19166001179055565b6007805461090190611858565b80601f016020809104026020016040519081016040528092919081815260200182805461092d90611858565b801561097a5780601f1061094f5761010080835404028352916020019161097a565b820191906000526020600020905b81548152906001019060200180831161095d57829003601f168201915b505050505081565b6000804790504260095410801561099a575060085481105b156109a757600191505090565b600091505090565b600d5460ff16156109d25760405162461bcd60e51b8152600401610524906117c7565b6000546001600160a01b031633146109fc5760405162461bcd60e51b8152600401610524906117f7565b805161056a9060069060208401906113cf565b600d5460ff1615610a325760405162461bcd60e51b8152600401610524906117c7565b6000546001600160a01b03163314610a5c5760405162461bcd60e51b8152600401610524906117f7565b600955565b600b805461090190611858565b600d5460ff1615610a915760405162461bcd60e51b8152600401610524906117c7565b6000546001600160a01b03163314610abb5760405162461bcd60e51b8152600401610524906117f7565b60005b600e5481101561056a578180519060200120600e8281548110610ae357610ae36118af565b90600052602060002001604051610afa91906118c5565b604051809103902003610c2657600e54600090610b199060019061194d565b600154600e80549293506001600160a01b03909116916311357471919085908110610b4657610b466118af565b90600052602060002001306040518363ffffffff1660e01b8152600401610b6e929190611964565b600060405180830381600087803b158015610b8857600080fd5b505af1158015610b9c573d6000803e3d6000fd5b50505050600e8181548110610bb357610bb36118af565b90600052602060002001600e8381548110610bd057610bd06118af565b90600052602060002001908054610be690611858565b610bf1929190611453565b50600e805480610c0357610c036119fe565b600190038181906000526020600020016000610c1f91906114ce565b9055505050565b80610c3081611a14565b915050610abe565b600d5460ff1615610c5b5760405162461bcd60e51b8152600401610524906117c7565b6000546001600160a01b03163314610c855760405162461bcd60e51b8152600401610524906117f7565b60005b600f5481101561056a5781600f8281548110610ca657610ca66118af565b906000526020600020015403610d3357600f54600090610cc89060019061194d565b9050600f8181548110610cdd57610cdd6118af565b9060005260206000200154600f8381548110610cfb57610cfb6118af565b600091825260209091200155600f805480610d1857610d186119fe565b60019003818190600052602060002001600090559055505050565b80610d3d81611a14565b915050610c88565b600d5460ff1615610d685760405162461bcd60e51b8152600401610524906117c7565b306001600160a01b0316634eb2b29d6040518163ffffffff1660e01b8152600401602060405180830381865afa158015610da6573d6000803e3d6000fd5b505050506040513d601f19601f82011682018060405250810190610dca9190611892565b15156001148015610ddb5750600047115b610e465760405162461bcd60e51b815260206004820152603660248201527f50726f6a65637420686173206e6f74206661696c6564207965742c206f72206460448201527537b2b9b713ba103430bb329030b73c90333ab732399760511b6064820152608401610524565b60005b6002548110156108e45760028181548110610e6657610e666118af565b6000918252602082200154600280546001600160a01b03909216926108fc926004929086908110610e9957610e996118af565b60009182526020808320909101546001600160a01b03168352820192909252604090810182205490518115909302929091818181858888f19350505050158015610ee7573d6000803e3d6000fd5b5080610ef281611a14565b915050610e49565b600f8181548110610f0a57600080fd5b600091825260209091200154905081565b600854600090479081106109a757600191505090565b600e8181548110610f4157600080fd5b90600052602060002001600091509050805461090190611858565b6006805461090190611858565b606080600060028054905067ffffffffffffffff811115610f8c57610f8c611575565b604051908082528060200260200182016040528015610fbf57816020015b6060815260200190600190039081610faa5790505b5060025490915060009067ffffffffffffffff811115610fe157610fe1611575565b60405190808252806020026020018201604052801561100a578160200160208202803683370190505b50905060005b600254811015611168576005600060028381548110611031576110316118af565b60009182526020808320909101546001600160a01b031683528201929092526040019020805461106090611858565b80601f016020809104026020016040519081016040528092919081815260200182805461108c90611858565b80156110d95780601f106110ae576101008083540402835291602001916110d9565b820191906000526020600020905b8154815290600101906020018083116110bc57829003601f168201915b50505050508382815181106110f0576110f06118af565b60200260200101819052506004600060028381548110611112576111126118af565b60009182526020808320909101546001600160a01b03168352820192909252604001902054825183908390811061114b5761114b6118af565b60209081029190910101528061116081611a14565b915050611010565b5090939092509050565b600d5460ff16156111955760405162461bcd60e51b8152600401610524906117c7565b6000546001600160a01b031633146111bf5760405162461bcd60e51b8152600401610524906117f7565b600f80546001810182556000919091527f8d1108e10bcb7c27dddfc02ed9d693a074039d026cf4ea4240b40f7d581ac8020155565b600d5460ff16156112175760405162461bcd60e51b8152600401610524906117c7565b306001600160a01b0316634eb2b29d6040518163ffffffff1660e01b8152600401602060405180830381865afa158015611255573d6000803e3d6000fd5b505050506040513d601f19601f820116820180604052508101906112799190611892565b156112c65760405162461bcd60e51b815260206004820152601860248201527f546869732070726f6a65637420776173206661696c65642e00000000000000006044820152606401610524565b33600090815260046020526040812080543492906112e5908490611a2d565b90915550503360009081526003602052604090205460ff1661135c576002805460018181019092557f405787fa12a823e0f2b7631cc41b3ba8828b3321ca811111fa75cd3aa3bb5ace0180546001600160a01b031916339081179091556000908152600360205260409020805460ff191690911790555b80156113a5576040805180820182526009815268416e6f6e796d6f757360b81b6020808301918252336000908152600590915292909220905161139f92906113cf565b506113c7565b33600090815260056020908152604090912083516113c5928501906113cf565b505b505047600a55565b8280546113db90611858565b90600052602060002090601f0160209004810192826113fd5760008555611443565b82601f1061141657805160ff1916838001178555611443565b82800160010185558215611443579182015b82811115611443578251825591602001919060010190611428565b5061144f92915061150b565b5090565b82805461145f90611858565b90600052602060002090601f0160209004810192826114815760008555611443565b82601f106114925780548555611443565b8280016001018555821561144357600052602060002091601f016020900482015b828111156114435782548255916001019190600101906114b3565b5080546114da90611858565b6000825580601f106114ea575050565b601f016020900490600052602060002090810190611508919061150b565b50565b5b8082111561144f576000815560010161150c565b600081518084526020808501945080840160005b8381101561155057815187529582019590820190600101611534565b509495945050505050565b60208152600061156e6020830184611520565b9392505050565b634e487b7160e01b600052604160045260246000fd5b600082601f83011261159c57600080fd5b813567ffffffffffffffff808211156115b7576115b7611575565b604051601f8301601f19908116603f011681019082821181831017156115df576115df611575565b816040528381528660208588010111156115f857600080fd5b836020870160208301376000602085830101528094505050505092915050565b60006020828403121561162a57600080fd5b813567ffffffffffffffff81111561164157600080fd5b61164d8482850161158b565b949350505050565b6000815180845260005b8181101561167b5760208185018101518683018201520161165f565b8181111561168d576000602083870101525b50601f01601f19169290920160200192915050565b600082825180855260208086019550808260051b84010181860160005b848110156116ed57601f198684030189526116db838351611655565b988401989250908301906001016116bf565b5090979650505050505050565b60208152600061156e60208301846116a2565b60208152600061156e6020830184611655565b60006020828403121561173257600080fd5b5035919050565b60408152600061174c60408301856116a2565b828103602084015261175e8185611520565b95945050505050565b801515811461150857600080fd5b6000806040838503121561178857600080fd5b823567ffffffffffffffff81111561179f57600080fd5b6117ab8582860161158b565b92505060208301356117bc81611767565b809150509250929050565b6020808252601690820152752a3434b990383937b532b1ba1034b99031b637b9b29760511b604082015260600190565b60208082526017908201527f4e656564206f776e6572207065726d697373696f6e732e000000000000000000604082015260600190565b6040815260006118416040830185611655565b905060018060a01b03831660208301529392505050565b600181811c9082168061186c57607f821691505b60208210810361188c57634e487b7160e01b600052602260045260246000fd5b50919050565b6000602082840312156118a457600080fd5b815161156e81611767565b634e487b7160e01b600052603260045260246000fd5b60008083546118d381611858565b600182811680156118eb57600181146118fc5761192b565b60ff1984168752828701945061192b565b8760005260208060002060005b858110156119225781548a820152908401908201611909565b50505082870194505b50929695505050505050565b634e487b7160e01b600052601160045260246000fd5b60008282101561195f5761195f611937565b500390565b60408152600080845461197681611858565b806040860152606060018084166000811461199857600181146119ac576119dd565b60ff198516888401526080880195506119dd565b8960005260208060002060005b868110156119d45781548b82018701529084019082016119b9565b8a018501975050505b505050506001600160a01b0394909416602093909301929092525092915050565b634e487b7160e01b600052603160045260246000fd5b600060018201611a2657611a26611937565b5060010190565b60008219821115611a4057611a40611937565b50019056fea2646970667358221220bd588810037a6f2f3abcb7a51f6723153a1112d8524f5192a324a005877dc8bd64736f6c634300080e0033a2646970667358221220a654aeebdd8d98a43ff3a5ed3d6b93fd1bd4ae047cd4b5ad3680322d9ee6091864736f6c634300080e0033","bytecodeSha1":"2ff4e1f01e0fd81a83145be0c1ea04051613b5f2","type":"contract","abi":[{"inputs":[{"internalType":"string","name":"project_type","type":"string"},{"internalType":"address","name":"project_add","type":"address"}],"name":"add_project_to_type_mapping","outputs":[],"stateMutability":"nonpayable","type":"function"},{"inputs":[{"internalType":"string","name":"name","type":"string"},{"internalType":"string","name":"desc","type":"string"},{"internalType":"uint256","name":"target","type":"uint256"},{"internalType":"uint256","name":"end_date","type":"uint256"},{"internalType":"string","name":"image_add","type":"string"},{"internalType":"string[]","name":"types_arr","type":"string[]"},{"internalType":"uint256[]","name":"amounts_to_donate","type":"uint256[]"}],"name":"create_new_project","outputs":[{"internalType":"address","name":"","type":"address"}],"stateMutability":"nonpayable","type":"function"},{"inputs":[],"name":"get_all_projects","outputs":[{"internalType":"address[]","name":"","type":"address[]"}],"stateMutability":"view","type":"function"},{"inputs":[],"name":"get_all_types","outputs":[{"internalType":"string[]","name":"","type":"string[]"}],"stateMutability":"view","type":"function"},{"inputs":[{"internalType":"string","name":"project_type","type":"string"}],"name":"get_projects_by_type","outputs":[{"internalType":"address[]","name":"","type":"address[]"}],"stateMutability":"view","type":"function"},{"inputs":[],"name":"get_projects_by_user","outputs":[{"internalType":"address[]","name":"","type":"address[]"}],"stateMutability":"view","type":"function"},{"inputs":[{"internalType":"string","name":"project_type","type":"string"},{"internalType":"address","name":"project_add","type":"address"}],"name":"remove_project_from_type_mapping","outputs":[],"stateMutability":"nonpayable","type":"function"}],"compiler":{"version":"0.8.14+commit.80d49f37","evm_version":"istanbul","optimizer":{"enabled":true,"runs":200}},"contractName":"Crowdfunding","language":"Solidity","natspec":{"methods":{},"kind":"dev","version":1},"opcodes":"PUSH1 0x80 PUSH1 0x40 MSTORE CALLVALUE DUP1 ISZERO PUSH3 0x11 JUMPI PUSH1 0x0 DUP1 REVERT JUMPDEST POP PUSH1 0x4 CALLDATASIZE LT PUSH3 0x87 JUMPI PUSH1 0x0 CALLDATALOAD PUSH1 0xE0 SHR DUP1 PUSH4 0x7407DA90 GT PUSH3 0x62 JUMPI DUP1 PUSH4 0x7407DA90 EQ PUSH3 0xDE JUMPI DUP1 PUSH4 0x7D96F835 EQ PUSH3 0xF7 JUMPI DUP1 PUSH4 0xA95BCC4C EQ PUSH3 0x10E JUMPI DUP1 PUSH4 0xE97410AF EQ PUSH3 0x13E JUMPI PUSH1 0x0 DUP1 REVERT JUMPDEST DUP1 PUSH4 0x11357471 EQ PUSH3 0x8C JUMPI DUP1 PUSH4 0x2275398E EQ PUSH3 0xA5 JUMPI DUP1 PUSH4 0x605A6F26 EQ PUSH3 0xC7 JUMPI JUMPDEST PUSH1 0x0 DUP1 REVERT JUMPDEST PUSH3 0xA3 PUSH3 0x9D CALLDATASIZE PUSH1 0x4 PUSH3 0x9F8 JUMP JUMPDEST PUSH3 0x148 JUMP JUMPDEST STOP JUMPDEST PUSH3 0xAF PUSH3 0x325 JUMP JUMPDEST PUSH1 0x40 MLOAD PUSH3 0xBE SWAP2 SWAP1 PUSH3 0xA5B JUMP JUMPDEST PUSH1 0x40 MLOAD DUP1 SWAP2 SUB SWAP1 RETURN JUMPDEST PUSH3 0xA3 PUSH3 0xD8 CALLDATASIZE PUSH1 0x4 PUSH3 0x9F8 JUMP JUMPDEST PUSH3 0x392 JUMP JUMPDEST PUSH3 0xE8 PUSH3 0x437 JUMP JUMPDEST PUSH1 0x40 MLOAD PUSH3 0xBE SWAP2 SWAP1 PUSH3 0xB67 JUMP JUMPDEST PUSH3 0xAF PUSH3 0x108 CALLDATASIZE PUSH1 0x4 PUSH3 0xB83 JUMP JUMPDEST PUSH3 0x51D JUMP JUMPDEST PUSH3 0x125 PUSH3 0x11F CALLDATASIZE PUSH1 0x4 PUSH3 0xCE8 JUMP JUMPDEST PUSH3 0x59B JUMP JUMPDEST PUSH1 0x40 MLOAD PUSH1 0x1 PUSH1 0x1 PUSH1 0xA0 SHL SUB SWAP1 SWAP2 AND DUP2 MSTORE PUSH1 0x20 ADD PUSH3 0xBE JUMP JUMPDEST PUSH3 0xAF PUSH3 0x72E JUMP JUMPDEST PUSH1 0x0 JUMPDEST PUSH1 0x3 DUP4 PUSH1 0x40 MLOAD PUSH3 0x15D SWAP2 SWAP1 PUSH3 0xDDD JUMP JUMPDEST SWAP1 DUP2 MSTORE PUSH1 0x40 MLOAD SWAP1 DUP2 SWAP1 SUB PUSH1 0x20 ADD SWAP1 KECCAK256 SLOAD DUP2 LT ISZERO PUSH3 0x320 JUMPI DUP2 PUSH1 0x1 PUSH1 0x1 PUSH1 0xA0 SHL SUB AND PUSH1 0x3 DUP5 PUSH1 0x40 MLOAD PUSH3 0x191 SWAP2 SWAP1 PUSH3 0xDDD JUMP JUMPDEST SWAP1 DUP2 MSTORE PUSH1 0x20 ADD PUSH1 0x40 MLOAD DUP1 SWAP2 SUB SWAP1 KECCAK256 DUP3 DUP2 SLOAD DUP2 LT PUSH3 0x1B3 JUMPI PUSH3 0x1B3 PUSH3 0xDFB JUMP JUMPDEST PUSH1 0x0 SWAP2 DUP3 MSTORE PUSH1 0x20 SWAP1 SWAP2 KECCAK256 ADD SLOAD PUSH1 0x1 PUSH1 0x1 PUSH1 0xA0 SHL SUB AND SUB PUSH3 0x30B JUMPI PUSH1 0x0 PUSH1 0x1 PUSH1 0x3 DUP6 PUSH1 0x40 MLOAD PUSH3 0x1E4 SWAP2 SWAP1 PUSH3 0xDDD JUMP JUMPDEST SWAP1 DUP2 MSTORE PUSH1 0x40 MLOAD SWAP1 DUP2 SWAP1 SUB PUSH1 0x20 ADD SWAP1 KECCAK256 SLOAD PUSH3 0x200 SWAP2 SWAP1 PUSH3 0xE27 JUMP JUMPDEST SWAP1 POP PUSH1 0x3 DUP5 PUSH1 0x40 MLOAD PUSH3 0x214 SWAP2 SWAP1 PUSH3 0xDDD JUMP JUMPDEST SWAP1 DUP2 MSTORE PUSH1 0x20 ADD PUSH1 0x40 MLOAD DUP1 SWAP2 SUB SWAP1 KECCAK256 DUP2 DUP2 SLOAD DUP2 LT PUSH3 0x236 JUMPI PUSH3 0x236 PUSH3 0xDFB JUMP JUMPDEST PUSH1 0x0 SWAP2 DUP3 MSTORE PUSH1 0x20 SWAP1 SWAP2 KECCAK256 ADD SLOAD PUSH1 0x40 MLOAD PUSH1 0x1 PUSH1 0x1 PUSH1 0xA0 SHL SUB SWAP1 SWAP2 AND SWAP1 PUSH1 0x3 SWAP1 PUSH3 0x261 SWAP1 DUP8 SWAP1 PUSH3 0xDDD JUMP JUMPDEST SWAP1 DUP2 MSTORE PUSH1 0x20 ADD PUSH1 0x40 MLOAD DUP1 SWAP2 SUB SWAP1 KECCAK256 DUP4 DUP2 SLOAD DUP2 LT PUSH3 0x283 JUMPI PUSH3 0x283 PUSH3 0xDFB JUMP JUMPDEST SWAP1 PUSH1 0x0 MSTORE PUSH1 0x20 PUSH1 0x0 KECCAK256 ADD PUSH1 0x0 PUSH2 0x100 EXP DUP2 SLOAD DUP2 PUSH1 0x1 PUSH1 0x1 PUSH1 0xA0 SHL SUB MUL NOT AND SWAP1 DUP4 PUSH1 0x1 PUSH1 0x1 PUSH1 0xA0 SHL SUB AND MUL OR SWAP1 SSTORE POP PUSH1 0x3 DUP5 PUSH1 0x40 MLOAD PUSH3 0x2C3 SWAP2 SWAP1 PUSH3 0xDDD JUMP JUMPDEST SWAP1 DUP2 MSTORE PUSH1 0x20 ADD PUSH1 0x40 MLOAD DUP1 SWAP2 SUB SWAP1 KECCAK256 DUP1 SLOAD DUP1 PUSH3 0x2E3 JUMPI PUSH3 0x2E3 PUSH3 0xE41 JUMP JUMPDEST PUSH1 0x0 DUP3 DUP2 MSTORE PUSH1 0x20 SWAP1 KECCAK256 DUP2 ADD PUSH1 0x0 NOT SWAP1 DUP2 ADD DUP1 SLOAD PUSH1 0x1 PUSH1 0x1 PUSH1 0xA0 SHL SUB NOT AND SWAP1 SSTORE ADD SWAP1 SSTORE POP POP POP POP JUMP JUMPDEST DUP1 PUSH3 0x317 DUP2 PUSH3 0xE57 JUMP JUMPDEST SWAP2 POP POP PUSH3 0x14B JUMP JUMPDEST POP POP POP JUMP JUMPDEST CALLER PUSH1 0x0 SWAP1 DUP2 MSTORE PUSH1 0x2 PUSH1 0x20 SWAP1 DUP2 MSTORE PUSH1 0x40 SWAP2 DUP3 SWAP1 KECCAK256 DUP1 SLOAD DUP4 MLOAD DUP2 DUP5 MUL DUP2 ADD DUP5 ADD SWAP1 SWAP5 MSTORE DUP1 DUP5 MSTORE PUSH1 0x60 SWAP4 SWAP3 DUP4 ADD DUP3 DUP3 DUP1 ISZERO PUSH3 0x388 JUMPI PUSH1 0x20 MUL DUP3 ADD SWAP2 SWAP1 PUSH1 0x0 MSTORE PUSH1 0x20 PUSH1 0x0 KECCAK256 SWAP1 JUMPDEST DUP2 SLOAD PUSH1 0x1 PUSH1 0x1 PUSH1 0xA0 SHL SUB AND DUP2 MSTORE PUSH1 0x1 SWAP1 SWAP2 ADD SWAP1 PUSH1 0x20 ADD DUP1 DUP4 GT PUSH3 0x369 JUMPI JUMPDEST POP POP POP POP POP SWAP1 POP SWAP1 JUMP JUMPDEST PUSH1 0x3 DUP3 PUSH1 0x40 MLOAD PUSH3 0x3A4 SWAP2 SWAP1 PUSH3 0xDDD JUMP JUMPDEST SWAP1 DUP2 MSTORE PUSH1 0x40 DUP1 MLOAD PUSH1 0x20 SWAP3 DUP2 SWAP1 SUB DUP4 ADD DUP2 KECCAK256 DUP1 SLOAD PUSH1 0x1 DUP1 DUP3 ADD DUP4 SSTORE PUSH1 0x0 SWAP3 DUP4 MSTORE DUP6 DUP4 KECCAK256 SWAP1 SWAP2 ADD DUP1 SLOAD PUSH1 0x1 PUSH1 0x1 PUSH1 0xA0 SHL SUB NOT AND PUSH1 0x1 PUSH1 0x1 PUSH1 0xA0 SHL SUB DUP9 AND OR SWAP1 SSTORE DUP1 DUP4 MSTORE DUP3 DUP5 ADD SWAP1 SWAP4 MSTORE SWAP3 SWAP1 SWAP2 SWAP1 DUP3 ADD JUMPDEST PUSH1 0x60 DUP2 MSTORE PUSH1 0x20 ADD SWAP1 PUSH1 0x1 SWAP1 SUB SWAP1 DUP2 PUSH3 0x3F2 JUMPI SWAP1 POP POP SWAP1 POP DUP3 DUP2 PUSH1 0x0 DUP2 MLOAD DUP2 LT PUSH3 0x421 JUMPI PUSH3 0x421 PUSH3 0xDFB JUMP JUMPDEST PUSH1 0x20 MUL PUSH1 0x20 ADD ADD DUP2 SWAP1 MSTORE POP PUSH3 0x320 DUP2 PUSH3 0x790 JUMP JUMPDEST PUSH1 0x60 PUSH1 0x4 PUSH1 0x0 ADD DUP1 SLOAD DUP1 PUSH1 0x20 MUL PUSH1 0x20 ADD PUSH1 0x40 MLOAD SWAP1 DUP2 ADD PUSH1 0x40 MSTORE DUP1 SWAP3 SWAP2 SWAP1 DUP2 DUP2 MSTORE PUSH1 0x20 ADD PUSH1 0x0 SWAP1 JUMPDEST DUP3 DUP3 LT ISZERO PUSH3 0x514 JUMPI DUP4 DUP3 SWAP1 PUSH1 0x0 MSTORE PUSH1 0x20 PUSH1 0x0 KECCAK256 ADD DUP1 SLOAD PUSH3 0x480 SWAP1 PUSH3 0xE73 JUMP JUMPDEST DUP1 PUSH1 0x1F ADD PUSH1 0x20 DUP1 SWAP2 DIV MUL PUSH1 0x20 ADD PUSH1 0x40 MLOAD SWAP1 DUP2 ADD PUSH1 0x40 MSTORE DUP1 SWAP3 SWAP2 SWAP1 DUP2 DUP2 MSTORE PUSH1 0x20 ADD DUP3 DUP1 SLOAD PUSH3 0x4AE SWAP1 PUSH3 0xE73 JUMP JUMPDEST DUP1 ISZERO PUSH3 0x4FF JUMPI DUP1 PUSH1 0x1F LT PUSH3 0x4D3 JUMPI PUSH2 0x100 DUP1 DUP4 SLOAD DIV MUL DUP4 MSTORE SWAP2 PUSH1 0x20 ADD SWAP2 PUSH3 0x4FF JUMP JUMPDEST DUP3 ADD SWAP2 SWAP1 PUSH1 0x0 MSTORE PUSH1 0x20 PUSH1 0x0 KECCAK256 SWAP1 JUMPDEST DUP2 SLOAD DUP2 MSTORE SWAP1 PUSH1 0x1 ADD SWAP1 PUSH1 0x20 ADD DUP1 DUP4 GT PUSH3 0x4E1 JUMPI DUP3 SWAP1 SUB PUSH1 0x1F AND DUP3 ADD SWAP2 JUMPDEST POP POP POP POP POP DUP2 MSTORE PUSH1 0x20 ADD SWAP1 PUSH1 0x1 ADD SWAP1 PUSH3 0x45E JUMP JUMPDEST POP POP POP POP SWAP1 POP SWAP1 JUMP JUMPDEST PUSH1 0x60 PUSH1 0x3 DUP3 PUSH1 0x40 MLOAD PUSH3 0x531 SWAP2 SWAP1 PUSH3 0xDDD JUMP JUMPDEST SWAP1 DUP2 MSTORE PUSH1 0x40 DUP1 MLOAD SWAP2 DUP3 SWAP1 SUB PUSH1 0x20 SWAP1 DUP2 ADD DUP4 KECCAK256 DUP1 SLOAD DUP1 DUP4 MUL DUP6 ADD DUP4 ADD SWAP1 SWAP4 MSTORE DUP3 DUP5 MSTORE SWAP2 SWAP1 DUP4 ADD DUP3 DUP3 DUP1 ISZERO PUSH3 0x58F JUMPI PUSH1 0x20 MUL DUP3 ADD SWAP2 SWAP1 PUSH1 0x0 MSTORE PUSH1 0x20 PUSH1 0x0 KECCAK256 SWAP1 JUMPDEST DUP2 SLOAD PUSH1 0x1 PUSH1 0x1 PUSH1 0xA0 SHL SUB AND DUP2 MSTORE PUSH1 0x1 SWAP1 SWAP2 ADD SWAP1 PUSH1 0x20 ADD DUP1 DUP4 GT PUSH3 0x570 JUMPI JUMPDEST POP POP POP POP POP SWAP1 POP SWAP2 SWAP1 POP JUMP JUMPDEST PUSH1 0x0 DUP1 CALLER DUP10 DUP10 DUP10 DUP10 DUP10 DUP10 DUP10 ADDRESS PUSH1 0x40 MLOAD PUSH3 0x5B5 SWAP1 PUSH3 0x883 JUMP JUMPDEST PUSH3 0x5C9 SWAP10 SWAP9 SWAP8 SWAP7 SWAP6 SWAP5 SWAP4 SWAP3 SWAP2 SWAP1 PUSH3 0xEAF JUMP JUMPDEST PUSH1 0x40 MLOAD DUP1 SWAP2 SUB SWAP1 PUSH1 0x0 CREATE DUP1 ISZERO DUP1 ISZERO PUSH3 0x5E6 JUMPI RETURNDATASIZE PUSH1 0x0 DUP1 RETURNDATACOPY RETURNDATASIZE PUSH1 0x0 REVERT JUMPDEST POP PUSH1 0x0 DUP1 SLOAD PUSH1 0x1 DUP1 DUP3 ADD DUP4 SSTORE PUSH32 0x290DECD9548B62A8D60345A988386FC84BA6BC95484008F6362F93160EF3E563 SWAP1 SWAP2 ADD DUP1 SLOAD CALLER PUSH1 0x1 PUSH1 0x1 PUSH1 0xA0 SHL SUB NOT SWAP2 DUP3 AND DUP2 OR SWAP1 SWAP3 SSTORE DUP3 SLOAD DUP1 DUP5 ADD DUP5 SSTORE PUSH32 0xB10E2D527612073B26EECDFD717E6A320CF44B4AFAC2B0732D9FCBE2B7FA0CF6 ADD DUP1 SLOAD DUP3 AND PUSH1 0x1 PUSH1 0x1 PUSH1 0xA0 SHL SUB DUP8 AND SWAP1 DUP2 OR SWAP1 SWAP2 SSTORE SWAP2 DUP5 MSTORE PUSH1 0x2 PUSH1 0x20 SWAP1 DUP2 MSTORE PUSH1 0x40 DUP6 KECCAK256 DUP1 SLOAD SWAP5 DUP6 ADD DUP2 SSTORE DUP6 MSTORE DUP5 KECCAK256 SWAP1 SWAP3 ADD DUP1 SLOAD SWAP1 SWAP3 AND OR SWAP1 SSTORE SWAP1 SWAP2 POP JUMPDEST DUP5 MLOAD DUP2 LT ISZERO PUSH3 0x716 JUMPI PUSH1 0x3 DUP6 DUP3 DUP2 MLOAD DUP2 LT PUSH3 0x6B0 JUMPI PUSH3 0x6B0 PUSH3 0xDFB JUMP JUMPDEST PUSH1 0x20 MUL PUSH1 0x20 ADD ADD MLOAD PUSH1 0x40 MLOAD PUSH3 0x6C7 SWAP2 SWAP1 PUSH3 0xDDD JUMP JUMPDEST SWAP1 DUP2 MSTORE PUSH1 0x40 MLOAD PUSH1 0x20 SWAP2 DUP2 SWAP1 SUB DUP3 ADD SWAP1 KECCAK256 DUP1 SLOAD PUSH1 0x1 DUP2 ADD DUP3 SSTORE PUSH1 0x0 SWAP2 DUP3 MSTORE SWAP2 SWAP1 KECCAK256 ADD DUP1 SLOAD PUSH1 0x1 PUSH1 0x1 PUSH1 0xA0 SHL SUB NOT AND PUSH1 0x1 PUSH1 0x1 PUSH1 0xA0 SHL SUB DUP5 AND OR SWAP1 SSTORE DUP1 PUSH3 0x70D DUP2 PUSH3 0xE57 JUMP JUMPDEST SWAP2 POP POP PUSH3 0x68F JUMP JUMPDEST POP PUSH3 0x722 DUP5 PUSH3 0x790 JUMP JUMPDEST SWAP9 SWAP8 POP POP POP POP POP POP POP POP JUMP JUMPDEST PUSH1 0x60 PUSH1 0x1 DUP1 SLOAD DUP1 PUSH1 0x20 MUL PUSH1 0x20 ADD PUSH1 0x40 MLOAD SWAP1 DUP2 ADD PUSH1 0x40 MSTORE DUP1 SWAP3 SWAP2 SWAP1 DUP2 DUP2 MSTORE PUSH1 0x20 ADD DUP3 DUP1 SLOAD DUP1 ISZERO PUSH3 0x388 JUMPI PUSH1 0x20 MUL DUP3 ADD SWAP2 SWAP1 PUSH1 0x0 MSTORE PUSH1 0x20 PUSH1 0x0 KECCAK256 SWAP1 DUP2 SLOAD PUSH1 0x1 PUSH1 0x1 PUSH1 0xA0 SHL SUB AND DUP2 MSTORE PUSH1 0x1 SWAP1 SWAP2 ADD SWAP1 PUSH1 0x20 ADD DUP1 DUP4 GT PUSH3 0x369 JUMPI POP POP POP POP POP SWAP1 POP SWAP1 JUMP JUMPDEST PUSH1 0x0 JUMPDEST DUP2 MLOAD DUP2 LT ISZERO PUSH3 0x87F JUMPI PUSH1 0x0 DUP3 DUP3 DUP2 MLOAD DUP2 LT PUSH3 0x7B4 JUMPI PUSH3 0x7B4 PUSH3 0xDFB JUMP JUMPDEST PUSH1 0x20 MUL PUSH1 0x20 ADD ADD MLOAD SWAP1 POP PUSH1 0x4 PUSH1 0x1 ADD DUP2 PUSH1 0x40 MLOAD PUSH3 0x7D3 SWAP2 SWAP1 PUSH3 0xDDD JUMP JUMPDEST SWAP1 DUP2 MSTORE PUSH1 0x40 MLOAD SWAP1 DUP2 SWAP1 SUB PUSH1 0x20 ADD SWAP1 KECCAK256 SLOAD PUSH1 0xFF AND PUSH3 0x869 JUMPI PUSH1 0x4 DUP1 SLOAD PUSH1 0x1 DUP2 ADD DUP3 SSTORE PUSH1 0x0 SWAP2 SWAP1 SWAP2 MSTORE DUP2 MLOAD PUSH3 0x830 SWAP2 PUSH32 0x8A35ACFBC15FF81A39AE7D344FD709F28E8600B4AA8C65C6B64BFE7FE36BD19B ADD SWAP1 PUSH1 0x20 DUP5 ADD SWAP1 PUSH3 0x891 JUMP JUMPDEST POP PUSH1 0x1 PUSH1 0x4 PUSH1 0x1 ADD DUP3 PUSH1 0x40 MLOAD PUSH3 0x848 SWAP2 SWAP1 PUSH3 0xDDD JUMP JUMPDEST SWAP1 DUP2 MSTORE PUSH1 0x40 MLOAD SWAP1 DUP2 SWAP1 SUB PUSH1 0x20 ADD SWAP1 KECCAK256 DUP1 SLOAD SWAP2 ISZERO ISZERO PUSH1 0xFF NOT SWAP1 SWAP3 AND SWAP2 SWAP1 SWAP2 OR SWAP1 SSTORE JUMPDEST POP DUP1 PUSH3 0x876 DUP2 PUSH3 0xE57 JUMP JUMPDEST SWAP2 POP POP PUSH3 0x793 JUMP JUMPDEST POP POP JUMP JUMPDEST PUSH2 0x20A9 DUP1 PUSH3 0xF89 DUP4 CODECOPY ADD SWAP1 JUMP JUMPDEST DUP3 DUP1 SLOAD PUSH3 0x89F SWAP1 PUSH3 0xE73 JUMP JUMPDEST SWAP1 PUSH1 0x0 MSTORE PUSH1 0x20 PUSH1 0x0 KECCAK256 SWAP1 PUSH1 0x1F ADD PUSH1 0x20 SWAP1 DIV DUP2 ADD SWAP3 DUP3 PUSH3 0x8C3 JUMPI PUSH1 0x0 DUP6 SSTORE PUSH3 0x90E JUMP JUMPDEST DUP3 PUSH1 0x1F LT PUSH3 0x8DE JUMPI DUP1 MLOAD PUSH1 0xFF NOT AND DUP4 DUP1 ADD OR DUP6 SSTORE PUSH3 0x90E JUMP JUMPDEST DUP3 DUP1 ADD PUSH1 0x1 ADD DUP6 SSTORE DUP3 ISZERO PUSH3 0x90E JUMPI SWAP2 DUP3 ADD JUMPDEST DUP3 DUP2 GT ISZERO PUSH3 0x90E JUMPI DUP3 MLOAD DUP3 SSTORE SWAP2 PUSH1 0x20 ADD SWAP2 SWAP1 PUSH1 0x1 ADD SWAP1 PUSH3 0x8F1 JUMP JUMPDEST POP PUSH3 0x91C SWAP3 SWAP2 POP PUSH3 0x920 JUMP JUMPDEST POP SWAP1 JUMP JUMPDEST JUMPDEST DUP1 DUP3 GT ISZERO PUSH3 0x91C JUMPI PUSH1 0x0 DUP2 SSTORE PUSH1 0x1 ADD PUSH3 0x921 JUMP JUMPDEST PUSH4 0x4E487B71 PUSH1 0xE0 SHL PUSH1 0x0 MSTORE PUSH1 0x41 PUSH1 0x4 MSTORE PUSH1 0x24 PUSH1 0x0 REVERT JUMPDEST PUSH1 0x40 MLOAD PUSH1 0x1F DUP3 ADD PUSH1 0x1F NOT AND DUP2 ADD PUSH8 0xFFFFFFFFFFFFFFFF DUP2 GT DUP3 DUP3 LT OR ISZERO PUSH3 0x979 JUMPI PUSH3 0x979 PUSH3 0x937 JUMP JUMPDEST PUSH1 0x40 MSTORE SWAP2 SWAP1 POP JUMP JUMPDEST PUSH1 0x0 DUP3 PUSH1 0x1F DUP4 ADD SLT PUSH3 0x993 JUMPI PUSH1 0x0 DUP1 REVERT JUMPDEST DUP2 CALLDATALOAD PUSH8 0xFFFFFFFFFFFFFFFF DUP2 GT ISZERO PUSH3 0x9B0 JUMPI PUSH3 0x9B0 PUSH3 0x937 JUMP JUMPDEST PUSH3 0x9C5 PUSH1 0x1F DUP3 ADD PUSH1 0x1F NOT AND PUSH1 0x20 ADD PUSH3 0x94D JUMP JUMPDEST DUP2 DUP2 MSTORE DUP5 PUSH1 0x20 DUP4 DUP7 ADD ADD GT ISZERO PUSH3 0x9DB JUMPI PUSH1 0x0 DUP1 REVERT JUMPDEST DUP2 PUSH1 0x20 DUP6 ADD PUSH1 0x20 DUP4 ADD CALLDATACOPY PUSH1 0x0 SWAP2 DUP2 ADD PUSH1 0x20 ADD SWAP2 SWAP1 SWAP2 MSTORE SWAP4 SWAP3 POP POP POP JUMP JUMPDEST PUSH1 0x0 DUP1 PUSH1 0x40 DUP4 DUP6 SUB SLT ISZERO PUSH3 0xA0C JUMPI PUSH1 0x0 DUP1 REVERT JUMPDEST DUP3 CALLDATALOAD PUSH8 0xFFFFFFFFFFFFFFFF DUP2 GT ISZERO PUSH3 0xA24 JUMPI PUSH1 0x0 DUP1 REVERT JUMPDEST PUSH3 0xA32 DUP6 DUP3 DUP7 ADD PUSH3 0x981 JUMP JUMPDEST SWAP3 POP POP PUSH1 0x20 DUP4 ADD CALLDATALOAD PUSH1 0x1 PUSH1 0x1 PUSH1 0xA0 SHL SUB DUP2 AND DUP2 EQ PUSH3 0xA50 JUMPI PUSH1 0x0 DUP1 REVERT JUMPDEST DUP1 SWAP2 POP POP SWAP3 POP SWAP3 SWAP1 POP JUMP JUMPDEST PUSH1 0x20 DUP1 DUP3 MSTORE DUP3 MLOAD DUP3 DUP3 ADD DUP2 SWAP1 MSTORE PUSH1 0x0 SWAP2 SWAP1 DUP5 DUP3 ADD SWAP1 PUSH1 0x40 DUP6 ADD SWAP1 DUP5 JUMPDEST DUP2 DUP2 LT ISZERO PUSH3 0xA9E JUMPI DUP4 MLOAD PUSH1 0x1 PUSH1 0x1 PUSH1 0xA0 SHL SUB AND DUP4 MSTORE SWAP3 DUP5 ADD SWAP3 SWAP2 DUP5 ADD SWAP2 PUSH1 0x1 ADD PUSH3 0xA77 JUMP JUMPDEST POP SWAP1 SWAP7 SWAP6 POP POP POP POP POP POP JUMP JUMPDEST PUSH1 0x0 JUMPDEST DUP4 DUP2 LT ISZERO PUSH3 0xAC7 JUMPI DUP2 DUP2 ADD MLOAD DUP4 DUP3 ADD MSTORE PUSH1 0x20 ADD PUSH3 0xAAD JUMP JUMPDEST DUP4 DUP2 GT ISZERO PUSH3 0xAD7 JUMPI PUSH1 0x0 DUP5 DUP5 ADD MSTORE JUMPDEST POP POP POP POP JUMP JUMPDEST PUSH1 0x0 DUP2 MLOAD DUP1 DUP5 MSTORE PUSH3 0xAF7 DUP2 PUSH1 0x20 DUP7 ADD PUSH1 0x20 DUP7 ADD PUSH3 0xAAA JUMP JUMPDEST PUSH1 0x1F ADD PUSH1 0x1F NOT AND SWAP3 SWAP1 SWAP3 ADD PUSH1 0x20 ADD SWAP3 SWAP2 POP POP JUMP JUMPDEST PUSH1 0x0 DUP3 DUP3 MLOAD DUP1 DUP6 MSTORE PUSH1 0x20 DUP1 DUP7 ADD SWAP6 POP DUP1 DUP3 PUSH1 0x5 SHL DUP5 ADD ADD DUP2 DUP7 ADD PUSH1 0x0 JUMPDEST DUP5 DUP2 LT ISZERO PUSH3 0xB5A JUMPI PUSH1 0x1F NOT DUP7 DUP5 SUB ADD DUP10 MSTORE PUSH3 0xB47 DUP4 DUP4 MLOAD PUSH3 0xADD JUMP JUMPDEST SWAP9 DUP5 ADD SWAP9 SWAP3 POP SWAP1 DUP4 ADD SWAP1 PUSH1 0x1 ADD PUSH3 0xB28 JUMP JUMPDEST POP SWAP1 SWAP8 SWAP7 POP POP POP POP POP POP POP JUMP JUMPDEST PUSH1 0x20 DUP2 MSTORE PUSH1 0x0 PUSH3 0xB7C PUSH1 0x20 DUP4 ADD DUP5 PUSH3 0xB0B JUMP JUMPDEST SWAP4 SWAP3 POP POP POP JUMP JUMPDEST PUSH1 0x0 PUSH1 0x20 DUP3 DUP5 SUB SLT ISZERO PUSH3 0xB96 JUMPI PUSH1 0x0 DUP1 REVERT JUMPDEST DUP2 CALLDATALOAD PUSH8 0xFFFFFFFFFFFFFFFF DUP2 GT ISZERO PUSH3 0xBAE JUMPI PUSH1 0x0 DUP1 REVERT JUMPDEST PUSH3 0xBBC DUP5 DUP3 DUP6 ADD PUSH3 0x981 JUMP JUMPDEST SWAP5 SWAP4 POP POP POP POP JUMP JUMPDEST PUSH1 0x0 PUSH8 0xFFFFFFFFFFFFFFFF DUP3 GT ISZERO PUSH3 0xBE1 JUMPI PUSH3 0xBE1 PUSH3 0x937 JUMP JUMPDEST POP PUSH1 0x5 SHL PUSH1 0x20 ADD SWAP1 JUMP JUMPDEST PUSH1 0x0 DUP3 PUSH1 0x1F DUP4 ADD SLT PUSH3 0xBFD JUMPI PUSH1 0x0 DUP1 REVERT JUMPDEST DUP2 CALLDATALOAD PUSH1 0x20 PUSH3 0xC16 PUSH3 0xC10 DUP4 PUSH3 0xBC4 JUMP JUMPDEST PUSH3 0x94D JUMP JUMPDEST DUP3 DUP2 MSTORE PUSH1 0x5 SWAP3 SWAP1 SWAP3 SHL DUP5 ADD DUP2 ADD SWAP2 DUP2 DUP2 ADD SWAP1 DUP7 DUP5 GT ISZERO PUSH3 0xC36 JUMPI PUSH1 0x0 DUP1 REVERT JUMPDEST DUP3 DUP7 ADD JUMPDEST DUP5 DUP2 LT ISZERO PUSH3 0xC7B JUMPI DUP1 CALLDATALOAD PUSH8 0xFFFFFFFFFFFFFFFF DUP2 GT ISZERO PUSH3 0xC5C JUMPI PUSH1 0x0 DUP1 DUP2 REVERT JUMPDEST PUSH3 0xC6C DUP10 DUP7 DUP4 DUP12 ADD ADD PUSH3 0x981 JUMP JUMPDEST DUP5 MSTORE POP SWAP2 DUP4 ADD SWAP2 DUP4 ADD PUSH3 0xC3A JUMP JUMPDEST POP SWAP7 SWAP6 POP POP POP POP POP POP JUMP JUMPDEST PUSH1 0x0 DUP3 PUSH1 0x1F DUP4 ADD SLT PUSH3 0xC98 JUMPI PUSH1 0x0 DUP1 REVERT JUMPDEST DUP2 CALLDATALOAD PUSH1 0x20 PUSH3 0xCAB PUSH3 0xC10 DUP4 PUSH3 0xBC4 JUMP JUMPDEST DUP3 DUP2 MSTORE PUSH1 0x5 SWAP3 SWAP1 SWAP3 SHL DUP5 ADD DUP2 ADD SWAP2 DUP2 DUP2 ADD SWAP1 DUP7 DUP5 GT ISZERO PUSH3 0xCCB JUMPI PUSH1 0x0 DUP1 REVERT JUMPDEST DUP3 DUP7 ADD JUMPDEST DUP5 DUP2 LT ISZERO PUSH3 0xC7B JUMPI DUP1 CALLDATALOAD DUP4 MSTORE SWAP2 DUP4 ADD SWAP2 DUP4 ADD PUSH3 0xCCF JUMP JUMPDEST PUSH1 0x0 DUP1 PUSH1 0x0 DUP1 PUSH1 0x0 DUP1 PUSH1 0x0 PUSH1 0xE0 DUP9 DUP11 SUB SLT ISZERO PUSH3 0xD04 JUMPI PUSH1 0x0 DUP1 REVERT JUMPDEST DUP8 CALLDATALOAD PUSH8 0xFFFFFFFFFFFFFFFF DUP1 DUP3 GT ISZERO PUSH3 0xD1D JUMPI PUSH1 0x0 DUP1 REVERT JUMPDEST PUSH3 0xD2B DUP12 DUP4 DUP13 ADD PUSH3 0x981 JUMP JUMPDEST SWAP9 POP PUSH1 0x20 DUP11 ADD CALLDATALOAD SWAP2 POP DUP1 DUP3 GT ISZERO PUSH3 0xD42 JUMPI PUSH1 0x0 DUP1 REVERT JUMPDEST PUSH3 0xD50 DUP12 DUP4 DUP13 ADD PUSH3 0x981 JUMP JUMPDEST SWAP8 POP PUSH1 0x40 DUP11 ADD CALLDATALOAD SWAP7 POP PUSH1 0x60 DUP11 ADD CALLDATALOAD SWAP6 POP PUSH1 0x80 DUP11 ADD CALLDATALOAD SWAP2 POP DUP1 DUP3 GT ISZERO PUSH3 0xD75 JUMPI PUSH1 0x0 DUP1 REVERT JUMPDEST PUSH3 0xD83 DUP12 DUP4 DUP13 ADD PUSH3 0x981 JUMP JUMPDEST SWAP5 POP PUSH1 0xA0 DUP11 ADD CALLDATALOAD SWAP2 POP DUP1 DUP3 GT ISZERO PUSH3 0xD9A JUMPI PUSH1 0x0 DUP1 REVERT JUMPDEST PUSH3 0xDA8 DUP12 DUP4 DUP13 ADD PUSH3 0xBEB JUMP JUMPDEST SWAP4 POP PUSH1 0xC0 DUP11 ADD CALLDATALOAD SWAP2 POP DUP1 DUP3 GT ISZERO PUSH3 0xDBF JUMPI PUSH1 0x0 DUP1 REVERT JUMPDEST POP PUSH3 0xDCE DUP11 DUP3 DUP12 ADD PUSH3 0xC86 JUMP JUMPDEST SWAP2 POP POP SWAP3 SWAP6 SWAP9 SWAP2 SWAP5 SWAP8 POP SWAP3 SWAP6 POP JUMP JUMPDEST PUSH1 0x0 DUP3 MLOAD PUSH3 0xDF1 DUP2 DUP5 PUSH1 0x20 DUP8 ADD PUSH3 0xAAA JUMP JUMPDEST SWAP2 SWAP1 SWAP2 ADD SWAP3 SWAP2 POP POP JUMP JUMPDEST PUSH4 0x4E487B71 PUSH1 0xE0 SHL PUSH1 0x0 MSTORE PUSH1 0x32 PUSH1 0x4 MSTORE PUSH1 0x24 PUSH1 0x0 REVERT JUMPDEST PUSH4 0x4E487B71 PUSH1 0xE0 SHL PUSH1 0x0 MSTORE PUSH1 0x11 PUSH1 0x4 MSTORE PUSH1 0x24 PUSH1 0x0 REVERT JUMPDEST PUSH1 0x0 DUP3 DUP3 LT ISZERO PUSH3 0xE3C JUMPI PUSH3 0xE3C PUSH3 0xE11 JUMP JUMPDEST POP SUB SWAP1 JUMP JUMPDEST PUSH4 0x4E487B71 PUSH1 0xE0 SHL PUSH1 0x0 MSTORE PUSH1 0x31 PUSH1 0x4 MSTORE PUSH1 0x24 PUSH1 0x0 REVERT JUMPDEST PUSH1 0x0 PUSH1 0x1 DUP3 ADD PUSH3 0xE6C JUMPI PUSH3 0xE6C PUSH3 0xE11 JUMP JUMPDEST POP PUSH1 0x1 ADD SWAP1 JUMP JUMPDEST PUSH1 0x1 DUP2 DUP2 SHR SWAP1 DUP3 AND DUP1 PUSH3 0xE88 JUMPI PUSH1 0x7F DUP3 AND SWAP2 POP JUMPDEST PUSH1 0x20 DUP3 LT DUP2 SUB PUSH3 0xEA9 JUMPI PUSH4 0x4E487B71 PUSH1 0xE0 SHL PUSH1 0x0 MSTORE PUSH1 0x22 PUSH1 0x4 MSTORE PUSH1 0x24 PUSH1 0x0 REVERT JUMPDEST POP SWAP2 SWAP1 POP JUMP JUMPDEST PUSH1 0x1 PUSH1 0x1 PUSH1 0xA0 SHL SUB DUP11 AND DUP2 MSTORE PUSH2 0x120 PUSH1 0x20 DUP1 DUP4 ADD DUP3 SWAP1 MSTORE PUSH1 0x0 SWAP2 SWAP1 PUSH3 0xED8 DUP5 DUP4 ADD DUP14 PUSH3 0xADD JUMP JUMPDEST SWAP2 POP DUP4 DUP3 SUB PUSH1 0x40 DUP6 ADD MSTORE PUSH3 0xEEE DUP3 DUP13 PUSH3 0xADD JUMP JUMPDEST SWAP2 POP DUP10 PUSH1 0x60 DUP6 ADD MSTORE DUP9 PUSH1 0x80 DUP6 ADD MSTORE DUP4 DUP3 SUB PUSH1 0xA0 DUP6 ADD MSTORE PUSH3 0xF10 DUP3 DUP10 PUSH3 0xADD JUMP JUMPDEST SWAP2 POP DUP4 DUP3 SUB PUSH1 0xC0 DUP6 ADD MSTORE PUSH3 0xF26 DUP3 DUP9 PUSH3 0xB0B JUMP JUMPDEST DUP5 DUP2 SUB PUSH1 0xE0 DUP7 ADD MSTORE DUP7 MLOAD DUP1 DUP3 MSTORE DUP3 DUP9 ADD SWAP4 POP SWAP1 DUP3 ADD SWAP1 PUSH1 0x0 JUMPDEST DUP2 DUP2 LT ISZERO PUSH3 0xF5D JUMPI DUP5 MLOAD DUP4 MSTORE SWAP4 DUP4 ADD SWAP4 SWAP2 DUP4 ADD SWAP2 PUSH1 0x1 ADD PUSH3 0xF3F JUMP JUMPDEST POP POP PUSH1 0x1 PUSH1 0x1 PUSH1 0xA0 SHL SUB DUP7 AND PUSH2 0x100 DUP7 ADD MSTORE SWAP3 POP PUSH3 0xF7A SWAP2 POP POP JUMP JUMPDEST SWAP11 SWAP10 POP POP POP POP POP POP POP POP POP POP JUMP INVALID PUSH1 0x80 PUSH1 0x40 MSTORE CALLVALUE DUP1 ISZERO PUSH3 0x11 JUMPI PUSH1 0x0 DUP1 REVERT JUMPDEST POP PUSH1 0x40 MLOAD PUSH3 0x20A9 CODESIZE SUB DUP1 PUSH3 0x20A9 DUP4 CODECOPY DUP2 ADD PUSH1 0x40 DUP2 SWAP1 MSTORE PUSH3 0x34 SWAP2 PUSH3 0x4C7 JUMP JUMPDEST PUSH1 0x0 DUP1 SLOAD PUSH1 0x1 PUSH1 0x1 PUSH1 0xA0 SHL SUB NOT AND PUSH1 0x1 PUSH1 0x1 PUSH1 0xA0 SHL SUB DUP12 AND OR SWAP1 SSTORE DUP8 MLOAD PUSH3 0x64 SWAP1 PUSH1 0x6 SWAP1 PUSH1 0x20 DUP12 ADD SWAP1 PUSH3 0x104 JUMP JUMPDEST POP DUP7 MLOAD PUSH3 0x7A SWAP1 PUSH1 0x7 SWAP1 PUSH1 0x20 DUP11 ADD SWAP1 PUSH3 0x104 JUMP JUMPDEST POP PUSH1 0x8 DUP7 SWAP1 SSTORE PUSH1 0x9 DUP6 SWAP1 SSTORE DUP4 MLOAD PUSH3 0x9A SWAP1 PUSH1 0xB SWAP1 PUSH1 0x20 DUP8 ADD SWAP1 PUSH3 0x104 JUMP JUMPDEST POP DUP3 MLOAD PUSH3 0xB0 SWAP1 PUSH1 0xE SWAP1 PUSH1 0x20 DUP7 ADD SWAP1 PUSH3 0x193 JUMP JUMPDEST POP DUP2 MLOAD PUSH3 0xC6 SWAP1 PUSH1 0xF SWAP1 PUSH1 0x20 DUP6 ADD SWAP1 PUSH3 0x1F3 JUMP JUMPDEST POP PUSH1 0x1 DUP1 SLOAD PUSH1 0x1 PUSH1 0x1 PUSH1 0xA0 SHL SUB NOT AND PUSH1 0x1 PUSH1 0x1 PUSH1 0xA0 SHL SUB SWAP3 SWAP1 SWAP3 AND SWAP2 SWAP1 SWAP2 OR SWAP1 SSTORE POP POP TIMESTAMP PUSH1 0xC SSTORE POP POP PUSH1 0xD DUP1 SLOAD PUSH1 0xFF NOT AND SWAP1 SSTORE POP PUSH3 0x61E SWAP3 POP POP POP JUMP JUMPDEST DUP3 DUP1 SLOAD PUSH3 0x112 SWAP1 PUSH3 0x5E2 JUMP JUMPDEST SWAP1 PUSH1 0x0 MSTORE PUSH1 0x20 PUSH1 0x0 KECCAK256 SWAP1 PUSH1 0x1F ADD PUSH1 0x20 SWAP1 DIV DUP2 ADD SWAP3 DUP3 PUSH3 0x136 JUMPI PUSH1 0x0 DUP6 SSTORE PUSH3 0x181 JUMP JUMPDEST DUP3 PUSH1 0x1F LT PUSH3 0x151 JUMPI DUP1 MLOAD PUSH1 0xFF NOT AND DUP4 DUP1 ADD OR DUP6 SSTORE PUSH3 0x181 JUMP JUMPDEST DUP3 DUP1 ADD PUSH1 0x1 ADD DUP6 SSTORE DUP3 ISZERO PUSH3 0x181 JUMPI SWAP2 DUP3 ADD JUMPDEST DUP3 DUP2 GT ISZERO PUSH3 0x181 JUMPI DUP3 MLOAD DUP3 SSTORE SWAP2 PUSH1 0x20 ADD SWAP2 SWAP1 PUSH1 0x1 ADD SWAP1 PUSH3 0x164 JUMP JUMPDEST POP PUSH3 0x18F SWAP3 SWAP2 POP PUSH3 0x230 JUMP JUMPDEST POP SWAP1 JUMP JUMPDEST DUP3 DUP1 SLOAD DUP3 DUP3 SSTORE SWAP1 PUSH1 0x0 MSTORE PUSH1 0x20 PUSH1 0x0 KECCAK256 SWAP1 DUP2 ADD SWAP3 DUP3 ISZERO PUSH3 0x1E5 JUMPI SWAP2 PUSH1 0x20 MUL DUP3 ADD JUMPDEST DUP3 DUP2 GT ISZERO PUSH3 0x1E5 JUMPI DUP3 MLOAD DUP1 MLOAD PUSH3 0x1D4 SWAP2 DUP5 SWAP2 PUSH1 0x20 SWAP1 SWAP2 ADD SWAP1 PUSH3 0x104 JUMP JUMPDEST POP SWAP2 PUSH1 0x20 ADD SWAP2 SWAP1 PUSH1 0x1 ADD SWAP1 PUSH3 0x1B4 JUMP JUMPDEST POP PUSH3 0x18F SWAP3 SWAP2 POP PUSH3 0x247 JUMP JUMPDEST DUP3 DUP1 SLOAD DUP3 DUP3 SSTORE SWAP1 PUSH1 0x0 MSTORE PUSH1 0x20 PUSH1 0x0 KECCAK256 SWAP1 DUP2 ADD SWAP3 DUP3 ISZERO PUSH3 0x181 JUMPI SWAP2 PUSH1 0x20 MUL DUP3 ADD DUP3 DUP2 GT ISZERO PUSH3 0x181 JUMPI DUP3 MLOAD DUP3 SSTORE SWAP2 PUSH1 0x20 ADD SWAP2 SWAP1 PUSH1 0x1 ADD SWAP1 PUSH3 0x164 JUMP JUMPDEST JUMPDEST DUP1 DUP3 GT ISZERO PUSH3 0x18F JUMPI PUSH1 0x0 DUP2 SSTORE PUSH1 0x1 ADD PUSH3 0x231 JUMP JUMPDEST DUP1 DUP3 GT ISZERO PUSH3 0x18F JUMPI PUSH1 0x0 PUSH3 0x25E DUP3 DUP3 PUSH3 0x268 JUMP JUMPDEST POP PUSH1 0x1 ADD PUSH3 0x247 JUMP JUMPDEST POP DUP1 SLOAD PUSH3 0x276 SWAP1 PUSH3 0x5E2 JUMP JUMPDEST PUSH1 0x0 DUP3 SSTORE DUP1 PUSH1 0x1F LT PUSH3 0x287 JUMPI POP POP JUMP JUMPDEST PUSH1 0x1F ADD PUSH1 0x20 SWAP1 DIV SWAP1 PUSH1 0x0 MSTORE PUSH1 0x20 PUSH1 0x0 KECCAK256 SWAP1 DUP2 ADD SWAP1 PUSH3 0x2A7 SWAP2 SWAP1 PUSH3 0x230 JUMP JUMPDEST POP JUMP JUMPDEST DUP1 MLOAD PUSH1 0x1 PUSH1 0x1 PUSH1 0xA0 SHL SUB DUP2 AND DUP2 EQ PUSH3 0x2C2 JUMPI PUSH1 0x0 DUP1 REVERT JUMPDEST SWAP2 SWAP1 POP JUMP JUMPDEST PUSH4 0x4E487B71 PUSH1 0xE0 SHL PUSH1 0x0 MSTORE PUSH1 0x41 PUSH1 0x4 MSTORE PUSH1 0x24 PUSH1 0x0 REVERT JUMPDEST PUSH1 0x40 MLOAD PUSH1 0x1F DUP3 ADD PUSH1 0x1F NOT AND DUP2 ADD PUSH1 0x1 PUSH1 0x1 PUSH1 0x40 SHL SUB DUP2 GT DUP3 DUP3 LT OR ISZERO PUSH3 0x308 JUMPI PUSH3 0x308 PUSH3 0x2C7 JUMP JUMPDEST PUSH1 0x40 MSTORE SWAP2 SWAP1 POP JUMP JUMPDEST PUSH1 0x0 DUP3 PUSH1 0x1F DUP4 ADD SLT PUSH3 0x322 JUMPI PUSH1 0x0 DUP1 REVERT JUMPDEST DUP2 MLOAD PUSH1 0x1 PUSH1 0x1 PUSH1 0x40 SHL SUB DUP2 GT ISZERO PUSH3 0x33E JUMPI PUSH3 0x33E PUSH3 0x2C7 JUMP JUMPDEST PUSH1 0x20 PUSH3 0x354 PUSH1 0x1F DUP4 ADD PUSH1 0x1F NOT AND DUP3 ADD PUSH3 0x2DD JUMP JUMPDEST DUP3 DUP2 MSTORE DUP6 DUP3 DUP5 DUP8 ADD ADD GT ISZERO PUSH3 0x369 JUMPI PUSH1 0x0 DUP1 REVERT JUMPDEST PUSH1 0x0 JUMPDEST DUP4 DUP2 LT ISZERO PUSH3 0x389 JUMPI DUP6 DUP2 ADD DUP4 ADD MLOAD DUP3 DUP3 ADD DUP5 ADD MSTORE DUP3 ADD PUSH3 0x36C JUMP JUMPDEST DUP4 DUP2 GT ISZERO PUSH3 0x39B JUMPI PUSH1 0x0 DUP4 DUP6 DUP5 ADD ADD MSTORE JUMPDEST POP SWAP6 SWAP5 POP POP POP POP POP JUMP JUMPDEST PUSH1 0x0 PUSH1 0x1 PUSH1 0x1 PUSH1 0x40 SHL SUB DUP3 GT ISZERO PUSH3 0x3C1 JUMPI PUSH3 0x3C1 PUSH3 0x2C7 JUMP JUMPDEST POP PUSH1 0x5 SHL PUSH1 0x20 ADD SWAP1 JUMP JUMPDEST PUSH1 0x0 DUP3 PUSH1 0x1F DUP4 ADD SLT PUSH3 0x3DD JUMPI PUSH1 0x0 DUP1 REVERT JUMPDEST DUP2 MLOAD PUSH1 0x20 PUSH3 0x3F6 PUSH3 0x3F0 DUP4 PUSH3 0x3A5 JUMP JUMPDEST PUSH3 0x2DD JUMP JUMPDEST DUP3 DUP2 MSTORE PUSH1 0x5 SWAP3 SWAP1 SWAP3 SHL DUP5 ADD DUP2 ADD SWAP2 DUP2 DUP2 ADD SWAP1 DUP7 DUP5 GT ISZERO PUSH3 0x416 JUMPI PUSH1 0x0 DUP1 REVERT JUMPDEST DUP3 DUP7 ADD JUMPDEST DUP5 DUP2 LT ISZERO PUSH3 0x45A JUMPI DUP1 MLOAD PUSH1 0x1 PUSH1 0x1 PUSH1 0x40 SHL SUB DUP2 GT ISZERO PUSH3 0x43B JUMPI PUSH1 0x0 DUP1 DUP2 REVERT JUMPDEST PUSH3 0x44B DUP10 DUP7 DUP4 DUP12 ADD ADD PUSH3 0x310 JUMP JUMPDEST DUP5 MSTORE POP SWAP2 DUP4 ADD SWAP2 DUP4 ADD PUSH3 0x41A JUMP JUMPDEST POP SWAP7 SWAP6 POP POP POP POP POP POP JUMP JUMPDEST PUSH1 0x0 DUP3 PUSH1 0x1F DUP4 ADD SLT PUSH3 0x477 JUMPI PUSH1 0x0 DUP1 REVERT JUMPDEST DUP2 MLOAD PUSH1 0x20 PUSH3 0x48A PUSH3 0x3F0 DUP4 PUSH3 0x3A5 JUMP JUMPDEST DUP3 DUP2 MSTORE PUSH1 0x5 SWAP3 SWAP1 SWAP3 SHL DUP5 ADD DUP2 ADD SWAP2 DUP2 DUP2 ADD SWAP1 DUP7 DUP5 GT ISZERO PUSH3 0x4AA JUMPI PUSH1 0x0 DUP1 REVERT JUMPDEST DUP3 DUP7 ADD JUMPDEST DUP5 DUP2 LT ISZERO PUSH3 0x45A JUMPI DUP1 MLOAD DUP4 MSTORE SWAP2 DUP4 ADD SWAP2 DUP4 ADD PUSH3 0x4AE JUMP JUMPDEST PUSH1 0x0 DUP1 PUSH1 0x0 DUP1 PUSH1 0x0 DUP1 PUSH1 0x0 DUP1 PUSH1 0x0 PUSH2 0x120 DUP11 DUP13 SUB SLT ISZERO PUSH3 0x4E7 JUMPI PUSH1 0x0 DUP1 REVERT JUMPDEST PUSH3 0x4F2 DUP11 PUSH3 0x2AA JUMP JUMPDEST PUSH1 0x20 DUP12 ADD MLOAD SWAP1 SWAP10 POP PUSH1 0x1 PUSH1 0x1 PUSH1 0x40 SHL SUB DUP1 DUP3 GT ISZERO PUSH3 0x510 JUMPI PUSH1 0x0 DUP1 REVERT JUMPDEST PUSH3 0x51E DUP14 DUP4 DUP15 ADD PUSH3 0x310 JUMP JUMPDEST SWAP10 POP PUSH1 0x40 DUP13 ADD MLOAD SWAP2 POP DUP1 DUP3 GT ISZERO PUSH3 0x535 JUMPI PUSH1 0x0 DUP1 REVERT JUMPDEST PUSH3 0x543 DUP14 DUP4 DUP15 ADD PUSH3 0x310 JUMP JUMPDEST SWAP9 POP PUSH1 0x60 DUP13 ADD MLOAD SWAP8 POP PUSH1 0x80 DUP13 ADD MLOAD SWAP7 POP PUSH1 0xA0 DUP13 ADD MLOAD SWAP2 POP DUP1 DUP3 GT ISZERO PUSH3 0x568 JUMPI PUSH1 0x0 DUP1 REVERT JUMPDEST PUSH3 0x576 DUP14 DUP4 DUP15 ADD PUSH3 0x310 JUMP JUMPDEST SWAP6 POP PUSH1 0xC0 DUP13 ADD MLOAD SWAP2 POP DUP1 DUP3 GT ISZERO PUSH3 0x58D JUMPI PUSH1 0x0 DUP1 REVERT JUMPDEST PUSH3 0x59B DUP14 DUP4 DUP15 ADD PUSH3 0x3CB JUMP JUMPDEST SWAP5 POP PUSH1 0xE0 DUP13 ADD MLOAD SWAP2 POP DUP1 DUP3 GT ISZERO PUSH3 0x5B2 JUMPI PUSH1 0x0 DUP1 REVERT JUMPDEST POP PUSH3 0x5C1 DUP13 DUP3 DUP14 ADD PUSH3 0x465 JUMP JUMPDEST SWAP3 POP POP PUSH3 0x5D3 PUSH2 0x100 DUP12 ADD PUSH3 0x2AA JUMP JUMPDEST SWAP1 POP SWAP3 SWAP6 SWAP9 POP SWAP3 SWAP6 SWAP9 POP SWAP3 SWAP6 SWAP9 JUMP JUMPDEST PUSH1 0x1 DUP2 DUP2 SHR SWAP1 DUP3 AND DUP1 PUSH3 0x5F7 JUMPI PUSH1 0x7F DUP3 AND SWAP2 POP JUMPDEST PUSH1 0x20 DUP3 LT DUP2 SUB PUSH3 0x618 JUMPI PUSH4 0x4E487B71 PUSH1 0xE0 SHL PUSH1 0x0 MSTORE PUSH1 0x22 PUSH1 0x4 MSTORE PUSH1 0x24 PUSH1 0x0 REVERT JUMPDEST POP SWAP2 SWAP1 POP JUMP JUMPDEST PUSH2 0x1A7B DUP1 PUSH3 0x62E PUSH1 0x0 CODECOPY PUSH1 0x0 RETURN INVALID PUSH1 0x80 PUSH1 0x40 MSTORE PUSH1 0x4 CALLDATASIZE LT PUSH2 0x19C JUMPI PUSH1 0x0 CALLDATALOAD PUSH1 0xE0 SHR DUP1 PUSH4 0x824F4BAF GT PUSH2 0xEC JUMPI DUP1 PUSH4 0xCEFBFA36 GT PUSH2 0x8A JUMPI DUP1 PUSH4 0xE68EC6B7 GT PUSH2 0x64 JUMPI DUP1 PUSH4 0xE68EC6B7 EQ PUSH2 0x43D JUMPI DUP1 PUSH4 0xECE241CB EQ PUSH2 0x460 JUMPI DUP1 PUSH4 0xF0528F83 EQ PUSH2 0x476 JUMPI DUP1 PUSH4 0xFA112567 EQ PUSH2 0x496 JUMPI PUSH1 0x0 DUP1 REVERT JUMPDEST DUP1 PUSH4 0xCEFBFA36 EQ PUSH2 0x3EE JUMPI DUP1 PUSH4 0xCFD9866B EQ PUSH2 0x40E JUMPI DUP1 PUSH4 0xDC9C9F33 EQ PUSH2 0x428 JUMPI PUSH1 0x0 DUP1 REVERT JUMPDEST DUP1 PUSH4 0xB774A6C6 GT PUSH2 0xC6 JUMPI DUP1 PUSH4 0xB774A6C6 EQ PUSH2 0x384 JUMPI DUP1 PUSH4 0xBC65FC5F EQ PUSH2 0x3A4 JUMPI DUP1 PUSH4 0xBCCCBA14 EQ PUSH2 0x3B9 JUMPI DUP1 PUSH4 0xC6B0FFD0 EQ PUSH2 0x3D9 JUMPI PUSH1 0x0 DUP1 REVERT JUMPDEST DUP1 PUSH4 0x824F4BAF EQ PUSH2 0x339 JUMPI DUP1 PUSH4 0x8C234298 EQ PUSH2 0x34E JUMPI DUP1 PUSH4 0x9F0826C4 EQ PUSH2 0x364 JUMPI PUSH1 0x0 DUP1 REVERT JUMPDEST DUP1 PUSH4 0x34EF39F1 GT PUSH2 0x159 JUMPI DUP1 PUSH4 0x539E366C GT PUSH2 0x133 JUMPI DUP1 PUSH4 0x539E366C EQ PUSH2 0x2D0 JUMPI DUP1 PUSH4 0x63391F8A EQ PUSH2 0x2F0 JUMPI DUP1 PUSH4 0x6BBEEFEA EQ PUSH2 0x303 JUMPI DUP1 PUSH4 0x81E0FFAE EQ PUSH2 0x323 JUMPI PUSH1 0x0 DUP1 REVERT JUMPDEST DUP1 PUSH4 0x34EF39F1 EQ PUSH2 0x274 JUMPI DUP1 PUSH4 0x45F93331 EQ PUSH2 0x289 JUMPI DUP1 PUSH4 0x4EB2B29D EQ PUSH2 0x2AB JUMPI PUSH1 0x0 DUP1 REVERT JUMPDEST DUP1 PUSH4 0xFFFFEC4 EQ PUSH2 0x1A1 JUMPI DUP1 PUSH4 0x1FD47B7E EQ PUSH2 0x1CC JUMPI DUP1 PUSH4 0x22776206 EQ PUSH2 0x1EE JUMPI DUP1 PUSH4 0x26E56D5E EQ PUSH2 0x20E JUMPI DUP1 PUSH4 0x2B85EB5F EQ PUSH2 0x22E JUMPI DUP1 PUSH4 0x325A19F1 EQ PUSH2 0x250 JUMPI JUMPDEST PUSH1 0x0 DUP1 REVERT JUMPDEST CALLVALUE DUP1 ISZERO PUSH2 0x1AD JUMPI PUSH1 0x0 DUP1 REVERT JUMPDEST POP PUSH2 0x1B6 PUSH2 0x4A9 JUMP JUMPDEST PUSH1 0x40 MLOAD PUSH2 0x1C3 SWAP2 SWAP1 PUSH2 0x155B JUMP JUMPDEST PUSH1 0x40 MLOAD DUP1 SWAP2 SUB SWAP1 RETURN JUMPDEST CALLVALUE DUP1 ISZERO PUSH2 0x1D8 JUMPI PUSH1 0x0 DUP1 REVERT JUMPDEST POP PUSH2 0x1EC PUSH2 0x1E7 CALLDATASIZE PUSH1 0x4 PUSH2 0x1618 JUMP JUMPDEST PUSH2 0x501 JUMP JUMPDEST STOP JUMPDEST CALLVALUE DUP1 ISZERO PUSH2 0x1FA JUMPI PUSH1 0x0 DUP1 REVERT JUMPDEST POP PUSH2 0x1EC PUSH2 0x209 CALLDATASIZE PUSH1 0x4 PUSH2 0x1618 JUMP JUMPDEST PUSH2 0x56E JUMP JUMPDEST CALLVALUE DUP1 ISZERO PUSH2 0x21A JUMPI PUSH1 0x0 DUP1 REVERT JUMPDEST POP PUSH2 0x1EC PUSH2 0x229 CALLDATASIZE PUSH1 0x4 PUSH2 0x1618 JUMP JUMPDEST PUSH2 0x5CE JUMP JUMPDEST CALLVALUE DUP1 ISZERO PUSH2 0x23A JUMPI PUSH1 0x0 DUP1 REVERT JUMPDEST POP PUSH2 0x243 PUSH2 0x6C6 JUMP JUMPDEST PUSH1 0x40 MLOAD PUSH2 0x1C3 SWAP2 SWAP1 PUSH2 0x16FA JUMP JUMPDEST CALLVALUE DUP1 ISZERO PUSH2 0x25C JUMPI PUSH1 0x0 DUP1 REVERT JUMPDEST POP PUSH2 0x266 PUSH1 0xC SLOAD DUP2 JUMP JUMPDEST PUSH1 0x40 MLOAD SWAP1 DUP2 MSTORE PUSH1 0x20 ADD PUSH2 0x1C3 JUMP JUMPDEST CALLVALUE DUP1 ISZERO PUSH2 0x280 JUMPI PUSH1 0x0 DUP1 REVERT JUMPDEST POP PUSH2 0x1EC PUSH2 0x79F JUMP JUMPDEST CALLVALUE DUP1 ISZERO PUSH2 0x295 JUMPI PUSH1 0x0 DUP1 REVERT JUMPDEST POP PUSH2 0x29E PUSH2 0x8F4 JUMP JUMPDEST PUSH1 0x40 MLOAD PUSH2 0x1C3 SWAP2 SWAP1 PUSH2 0x170D JUMP JUMPDEST CALLVALUE DUP1 ISZERO PUSH2 0x2B7 JUMPI PUSH1 0x0 DUP1 REVERT JUMPDEST POP PUSH2 0x2C0 PUSH2 0x982 JUMP JUMPDEST PUSH1 0x40 MLOAD SWAP1 ISZERO ISZERO DUP2 MSTORE PUSH1 0x20 ADD PUSH2 0x1C3 JUMP JUMPDEST CALLVALUE DUP1 ISZERO PUSH2 0x2DC JUMPI PUSH1 0x0 DUP1 REVERT JUMPDEST POP PUSH2 0x1EC PUSH2 0x2EB CALLDATASIZE PUSH1 0x4 PUSH2 0x1618 JUMP JUMPDEST PUSH2 0x9AF JUMP JUMPDEST CALLVALUE DUP1 ISZERO PUSH2 0x2FC JUMPI PUSH1 0x0 DUP1 REVERT JUMPDEST POP SELFBALANCE PUSH2 0x266 JUMP JUMPDEST CALLVALUE DUP1 ISZERO PUSH2 0x30F JUMPI PUSH1 0x0 DUP1 REVERT JUMPDEST POP PUSH2 0x1EC PUSH2 0x31E CALLDATASIZE PUSH1 0x4 PUSH2 0x1720 JUMP JUMPDEST PUSH2 0xA0F JUMP JUMPDEST CALLVALUE DUP1 ISZERO PUSH2 0x32F JUMPI PUSH1 0x0 DUP1 REVERT JUMPDEST POP PUSH2 0x266 PUSH1 0x8 SLOAD DUP2 JUMP JUMPDEST CALLVALUE DUP1 ISZERO PUSH2 0x345 JUMPI PUSH1 0x0 DUP1 REVERT JUMPDEST POP PUSH2 0x29E PUSH2 0xA61 JUMP JUMPDEST CALLVALUE DUP1 ISZERO PUSH2 0x35A JUMPI PUSH1 0x0 DUP1 REVERT JUMPDEST POP PUSH2 0x266 PUSH1 0x9 SLOAD DUP2 JUMP JUMPDEST CALLVALUE DUP1 ISZERO PUSH2 0x370 JUMPI PUSH1 0x0 DUP1 REVERT JUMPDEST POP PUSH2 0x1EC PUSH2 0x37F CALLDATASIZE PUSH1 0x4 PUSH2 0x1618 JUMP JUMPDEST PUSH2 0xA6E JUMP JUMPDEST CALLVALUE DUP1 ISZERO PUSH2 0x390 JUMPI PUSH1 0x0 DUP1 REVERT JUMPDEST POP PUSH2 0x1EC PUSH2 0x39F CALLDATASIZE PUSH1 0x4 PUSH2 0x1720 JUMP JUMPDEST PUSH2 0xC38 JUMP JUMPDEST CALLVALUE DUP1 ISZERO PUSH2 0x3B0 JUMPI PUSH1 0x0 DUP1 REVERT JUMPDEST POP PUSH2 0x1EC PUSH2 0xD45 JUMP JUMPDEST CALLVALUE DUP1 ISZERO PUSH2 0x3C5 JUMPI PUSH1 0x0 DUP1 REVERT JUMPDEST POP PUSH2 0x266 PUSH2 0x3D4 CALLDATASIZE PUSH1 0x4 PUSH2 0x1720 JUMP JUMPDEST PUSH2 0xEFA JUMP JUMPDEST CALLVALUE DUP1 ISZERO PUSH2 0x3E5 JUMPI PUSH1 0x0 DUP1 REVERT JUMPDEST POP PUSH2 0x2C0 PUSH2 0xF1B JUMP JUMPDEST CALLVALUE DUP1 ISZERO PUSH2 0x3FA JUMPI PUSH1 0x0 DUP1 REVERT JUMPDEST POP PUSH2 0x29E PUSH2 0x409 CALLDATASIZE PUSH1 0x4 PUSH2 0x1720 JUMP JUMPDEST PUSH2 0xF31 JUMP JUMPDEST CALLVALUE DUP1 ISZERO PUSH2 0x41A JUMPI PUSH1 0x0 DUP1 REVERT JUMPDEST POP PUSH1 0xD SLOAD PUSH2 0x2C0 SWAP1 PUSH1 0xFF AND DUP2 JUMP JUMPDEST CALLVALUE DUP1 ISZERO PUSH2 0x434 JUMPI PUSH1 0x0 DUP1 REVERT JUMPDEST POP PUSH2 0x29E PUSH2 0xF5C JUMP JUMPDEST CALLVALUE DUP1 ISZERO PUSH2 0x449 JUMPI PUSH1 0x0 DUP1 REVERT JUMPDEST POP PUSH2 0x452 PUSH2 0xF69 JUMP JUMPDEST PUSH1 0x40 MLOAD PUSH2 0x1C3 SWAP3 SWAP2 SWAP1 PUSH2 0x1739 JUMP JUMPDEST CALLVALUE DUP1 ISZERO PUSH2 0x46C JUMPI PUSH1 0x0 DUP1 REVERT JUMPDEST POP PUSH2 0x266 PUSH1 0xA SLOAD DUP2 JUMP JUMPDEST CALLVALUE DUP1 ISZERO PUSH2 0x482 JUMPI PUSH1 0x0 DUP1 REVERT JUMPDEST POP PUSH2 0x1EC PUSH2 0x491 CALLDATASIZE PUSH1 0x4 PUSH2 0x1720 JUMP JUMPDEST PUSH2 0x1172 JUMP JUMPDEST PUSH2 0x1EC PUSH2 0x4A4 CALLDATASIZE PUSH1 0x4 PUSH2 0x1775 JUMP JUMPDEST PUSH2 0x11F4 JUMP JUMPDEST PUSH1 0x60 PUSH1 0xF DUP1 SLOAD DUP1 PUSH1 0x20 MUL PUSH1 0x20 ADD PUSH1 0x40 MLOAD SWAP1 DUP2 ADD PUSH1 0x40 MSTORE DUP1 SWAP3 SWAP2 SWAP1 DUP2 DUP2 MSTORE PUSH1 0x20 ADD DUP3 DUP1 SLOAD DUP1 ISZERO PUSH2 0x4F7 JUMPI PUSH1 0x20 MUL DUP3 ADD SWAP2 SWAP1 PUSH1 0x0 MSTORE PUSH1 0x20 PUSH1 0x0 KECCAK256 SWAP1 JUMPDEST DUP2 SLOAD DUP2 MSTORE PUSH1 0x20 ADD SWAP1 PUSH1 0x1 ADD SWAP1 DUP1 DUP4 GT PUSH2 0x4E3 JUMPI JUMPDEST POP POP POP POP POP SWAP1 POP SWAP1 JUMP JUMPDEST PUSH1 0xD SLOAD PUSH1 0xFF AND ISZERO PUSH2 0x52D JUMPI PUSH1 0x40 MLOAD PUSH3 0x461BCD PUSH1 0xE5 SHL DUP2 MSTORE PUSH1 0x4 ADD PUSH2 0x524 SWAP1 PUSH2 0x17C7 JUMP JUMPDEST PUSH1 0x40 MLOAD DUP1 SWAP2 SUB SWAP1 REVERT JUMPDEST PUSH1 0x0 SLOAD PUSH1 0x1 PUSH1 0x1 PUSH1 0xA0 SHL SUB AND CALLER EQ PUSH2 0x557 JUMPI PUSH1 0x40 MLOAD PUSH3 0x461BCD PUSH1 0xE5 SHL DUP2 MSTORE PUSH1 0x4 ADD PUSH2 0x524 SWAP1 PUSH2 0x17F7 JUMP JUMPDEST DUP1 MLOAD PUSH2 0x56A SWAP1 PUSH1 0x7 SWAP1 PUSH1 0x20 DUP5 ADD SWAP1 PUSH2 0x13CF JUMP JUMPDEST POP POP JUMP JUMPDEST PUSH1 0xD SLOAD PUSH1 0xFF AND ISZERO PUSH2 0x591 JUMPI PUSH1 0x40 MLOAD PUSH3 0x461BCD PUSH1 0xE5 SHL DUP2 MSTORE PUSH1 0x4 ADD PUSH2 0x524 SWAP1 PUSH2 0x17C7 JUMP JUMPDEST PUSH1 0x0 SLOAD PUSH1 0x1 PUSH1 0x1 PUSH1 0xA0 SHL SUB AND CALLER EQ PUSH2 0x5BB JUMPI PUSH1 0x40 MLOAD PUSH3 0x461BCD PUSH1 0xE5 SHL DUP2 MSTORE PUSH1 0x4 ADD PUSH2 0x524 SWAP1 PUSH2 0x17F7 JUMP JUMPDEST DUP1 MLOAD PUSH2 0x56A SWAP1 PUSH1 0xB SWAP1 PUSH1 0x20 DUP5 ADD SWAP1 PUSH2 0x13CF JUMP JUMPDEST PUSH1 0xD SLOAD PUSH1 0xFF AND ISZERO PUSH2 0x5F1 JUMPI PUSH1 0x40 MLOAD PUSH3 0x461BCD PUSH1 0xE5 SHL DUP2 MSTORE PUSH1 0x4 ADD PUSH2 0x524 SWAP1 PUSH2 0x17C7 JUMP JUMPDEST PUSH1 0x0 SLOAD PUSH1 0x1 PUSH1 0x1 PUSH1 0xA0 SHL SUB AND CALLER EQ PUSH2 0x61B JUMPI PUSH1 0x40 MLOAD PUSH3 0x461BCD PUSH1 0xE5 SHL DUP2 MSTORE PUSH1 0x4 ADD PUSH2 0x524 SWAP1 PUSH2 0x17F7 JUMP JUMPDEST PUSH1 0xE DUP1 SLOAD PUSH1 0x1 DUP2 ADD DUP3 SSTORE PUSH1 0x0 SWAP2 SWAP1 SWAP2 MSTORE DUP2 MLOAD PUSH2 0x65E SWAP2 PUSH32 0xBB7B4A454DC3493923482F07822329ED19E8244EFF582CC204F8554C3620C3FD ADD SWAP1 PUSH1 0x20 DUP5 ADD SWAP1 PUSH2 0x13CF JUMP JUMPDEST POP PUSH1 0x1 SLOAD PUSH1 0x40 MLOAD PUSH4 0x302D3793 PUSH1 0xE1 SHL DUP2 MSTORE PUSH1 0x1 PUSH1 0x1 PUSH1 0xA0 SHL SUB SWAP1 SWAP2 AND SWAP1 PUSH4 0x605A6F26 SWAP1 PUSH2 0x691 SWAP1 DUP5 SWAP1 ADDRESS SWAP1 PUSH1 0x4 ADD PUSH2 0x182E JUMP JUMPDEST PUSH1 0x0 PUSH1 0x40 MLOAD DUP1 DUP4 SUB DUP2 PUSH1 0x0 DUP8 DUP1 EXTCODESIZE ISZERO DUP1 ISZERO PUSH2 0x6AB JUMPI PUSH1 0x0 DUP1 REVERT JUMPDEST POP GAS CALL ISZERO DUP1 ISZERO PUSH2 0x6BF JUMPI RETURNDATASIZE PUSH1 0x0 DUP1 RETURNDATACOPY RETURNDATASIZE PUSH1 0x0 REVERT JUMPDEST POP POP POP POP POP JUMP JUMPDEST PUSH1 0x60 PUSH1 0xE DUP1 SLOAD DUP1 PUSH1 0x20 MUL PUSH1 0x20 ADD PUSH1 0x40 MLOAD SWAP1 DUP2 ADD PUSH1 0x40 MSTORE DUP1 SWAP3 SWAP2 SWAP1 DUP2 DUP2 MSTORE PUSH1 0x20 ADD PUSH1 0x0 SWAP1 JUMPDEST DUP3 DUP3 LT ISZERO PUSH2 0x796 JUMPI DUP4 DUP3 SWAP1 PUSH1 0x0 MSTORE PUSH1 0x20 PUSH1 0x0 KECCAK256 ADD DUP1 SLOAD PUSH2 0x709 SWAP1 PUSH2 0x1858 JUMP JUMPDEST DUP1 PUSH1 0x1F ADD PUSH1 0x20 DUP1 SWAP2 DIV MUL PUSH1 0x20 ADD PUSH1 0x40 MLOAD SWAP1 DUP2 ADD PUSH1 0x40 MSTORE DUP1 SWAP3 SWAP2 SWAP1 DUP2 DUP2 MSTORE PUSH1 0x20 ADD DUP3 DUP1 SLOAD PUSH2 0x735 SWAP1 PUSH2 0x1858 JUMP JUMPDEST DUP1 ISZERO PUSH2 0x782 JUMPI DUP1 PUSH1 0x1F LT PUSH2 0x757 JUMPI PUSH2 0x100 DUP1 DUP4 SLOAD DIV MUL DUP4 MSTORE SWAP2 PUSH1 0x20 ADD SWAP2 PUSH2 0x782 JUMP JUMPDEST DUP3 ADD SWAP2 SWAP1 PUSH1 0x0 MSTORE PUSH1 0x20 PUSH1 0x0 KECCAK256 SWAP1 JUMPDEST DUP2 SLOAD DUP2 MSTORE SWAP1 PUSH1 0x1 ADD SWAP1 PUSH1 0x20 ADD DUP1 DUP4 GT PUSH2 0x765 JUMPI DUP3 SWAP1 SUB PUSH1 0x1F AND DUP3 ADD SWAP2 JUMPDEST POP POP POP POP POP DUP2 MSTORE PUSH1 0x20 ADD SWAP1 PUSH1 0x1 ADD SWAP1 PUSH2 0x6EA JUMP JUMPDEST POP POP POP POP SWAP1 POP SWAP1 JUMP JUMPDEST PUSH1 0xD SLOAD PUSH1 0xFF AND ISZERO PUSH2 0x7C2 JUMPI PUSH1 0x40 MLOAD PUSH3 0x461BCD PUSH1 0xE5 SHL DUP2 MSTORE PUSH1 0x4 ADD PUSH2 0x524 SWAP1 PUSH2 0x17C7 JUMP JUMPDEST ADDRESS PUSH1 0x1 PUSH1 0x1 PUSH1 0xA0 SHL SUB AND PUSH4 0xC6B0FFD0 PUSH1 0x40 MLOAD DUP2 PUSH4 0xFFFFFFFF AND PUSH1 0xE0 SHL DUP2 MSTORE PUSH1 0x4 ADD PUSH1 0x20 PUSH1 0x40 MLOAD DUP1 DUP4 SUB DUP2 DUP7 GAS STATICCALL ISZERO DUP1 ISZERO PUSH2 0x800 JUMPI RETURNDATASIZE PUSH1 0x0 DUP1 RETURNDATACOPY RETURNDATASIZE PUSH1 0x0 REVERT JUMPDEST POP POP POP POP PUSH1 0x40 MLOAD RETURNDATASIZE PUSH1 0x1F NOT PUSH1 0x1F DUP3 ADD AND DUP3 ADD DUP1 PUSH1 0x40 MSTORE POP DUP2 ADD SWAP1 PUSH2 0x824 SWAP2 SWAP1 PUSH2 0x1892 JUMP JUMPDEST ISZERO ISZERO PUSH1 0x1 EQ DUP1 ISZERO PUSH2 0x83F JUMPI POP PUSH1 0x0 SLOAD PUSH1 0x1 PUSH1 0x1 PUSH1 0xA0 SHL SUB AND CALLER EQ JUMPDEST PUSH2 0x8AA JUMPI PUSH1 0x40 MLOAD PUSH3 0x461BCD PUSH1 0xE5 SHL DUP2 MSTORE PUSH1 0x20 PUSH1 0x4 DUP3 ADD MSTORE PUSH1 0x36 PUSH1 0x24 DUP3 ADD MSTORE PUSH32 0x50726F6A65637420686173206E6F742073756363656564207965742C206F7220 PUSH1 0x44 DUP3 ADD MSTORE PUSH22 0x3CB7BA9030B932903737BA103A34329037BBB732B917 PUSH1 0x51 SHL PUSH1 0x64 DUP3 ADD MSTORE PUSH1 0x84 ADD PUSH2 0x524 JUMP JUMPDEST PUSH1 0x0 DUP1 SLOAD PUSH1 0x40 MLOAD PUSH1 0x1 PUSH1 0x1 PUSH1 0xA0 SHL SUB SWAP1 SWAP2 AND SWAP2 SELFBALANCE DUP1 ISZERO PUSH2 0x8FC MUL SWAP3 SWAP1 SWAP2 DUP2 DUP2 DUP2 DUP6 DUP9 DUP9 CALL SWAP4 POP POP POP POP ISZERO DUP1 ISZERO PUSH2 0x8E4 JUMPI RETURNDATASIZE PUSH1 0x0 DUP1 RETURNDATACOPY RETURNDATASIZE PUSH1 0x0 REVERT JUMPDEST POP PUSH1 0xD DUP1 SLOAD PUSH1 0xFF NOT AND PUSH1 0x1 OR SWAP1 SSTORE JUMP JUMPDEST PUSH1 0x7 DUP1 SLOAD PUSH2 0x901 SWAP1 PUSH2 0x1858 JUMP JUMPDEST DUP1 PUSH1 0x1F ADD PUSH1 0x20 DUP1 SWAP2 DIV MUL PUSH1 0x20 ADD PUSH1 0x40 MLOAD SWAP1 DUP2 ADD PUSH1 0x40 MSTORE DUP1 SWAP3 SWAP2 SWAP1 DUP2 DUP2 MSTORE PUSH1 0x20 ADD DUP3 DUP1 SLOAD PUSH2 0x92D SWAP1 PUSH2 0x1858 JUMP JUMPDEST DUP1 ISZERO PUSH2 0x97A JUMPI DUP1 PUSH1 0x1F LT PUSH2 0x94F JUMPI PUSH2 0x100 DUP1 DUP4 SLOAD DIV MUL DUP4 MSTORE SWAP2 PUSH1 0x20 ADD SWAP2 PUSH2 0x97A JUMP JUMPDEST DUP3 ADD SWAP2 SWAP1 PUSH1 0x0 MSTORE PUSH1 0x20 PUSH1 0x0 KECCAK256 SWAP1 JUMPDEST DUP2 SLOAD DUP2 MSTORE SWAP1 PUSH1 0x1 ADD SWAP1 PUSH1 0x20 ADD DUP1 DUP4 GT PUSH2 0x95D JUMPI DUP3 SWAP1 SUB PUSH1 0x1F AND DUP3 ADD SWAP2 JUMPDEST POP POP POP POP POP DUP2 JUMP JUMPDEST PUSH1 0x0 DUP1 SELFBALANCE SWAP1 POP TIMESTAMP PUSH1 0x9 SLOAD LT DUP1 ISZERO PUSH2 0x99A JUMPI POP PUSH1 0x8 SLOAD DUP2 LT JUMPDEST ISZERO PUSH2 0x9A7 JUMPI PUSH1 0x1 SWAP2 POP POP SWAP1 JUMP JUMPDEST PUSH1 0x0 SWAP2 POP POP SWAP1 JUMP JUMPDEST PUSH1 0xD SLOAD PUSH1 0xFF AND ISZERO PUSH2 0x9D2 JUMPI PUSH1 0x40 MLOAD PUSH3 0x461BCD PUSH1 0xE5 SHL DUP2 MSTORE PUSH1 0x4 ADD PUSH2 0x524 SWAP1 PUSH2 0x17C7 JUMP JUMPDEST PUSH1 0x0 SLOAD PUSH1 0x1 PUSH1 0x1 PUSH1 0xA0 SHL SUB AND CALLER EQ PUSH2 0x9FC JUMPI PUSH1 0x40 MLOAD PUSH3 0x461BCD PUSH1 0xE5 SHL DUP2 MSTORE PUSH1 0x4 ADD PUSH2 0x524 SWAP1 PUSH2 0x17F7 JUMP JUMPDEST DUP1 MLOAD PUSH2 0x56A SWAP1 PUSH1 0x6 SWAP1 PUSH1 0x20 DUP5 ADD SWAP1 PUSH2 0x13CF JUMP JUMPDEST PUSH1 0xD SLOAD PUSH1 0xFF AND ISZERO PUSH2 0xA32 JUMPI PUSH1 0x40 MLOAD PUSH3 0x461BCD PUSH1 0xE5 SHL DUP2 MSTORE PUSH1 0x4 ADD PUSH2 0x524 SWAP1 PUSH2 0x17C7 JUMP JUMPDEST PUSH1 0x0 SLOAD PUSH1 0x1 PUSH1 0x1 PUSH1 0xA0 SHL SUB AND CALLER EQ PUSH2 0xA5C JUMPI PUSH1 0x40 MLOAD PUSH3 0x461BCD PUSH1 0xE5 SHL DUP2 MSTORE PUSH1 0x4 ADD PUSH2 0x524 SWAP1 PUSH2 0x17F7 JUMP JUMPDEST PUSH1 0x9 SSTORE JUMP JUMPDEST PUSH1 0xB DUP1 SLOAD PUSH2 0x901 SWAP1 PUSH2 0x1858 JUMP JUMPDEST PUSH1 0xD SLOAD PUSH1 0xFF AND ISZERO PUSH2 0xA91 JUMPI PUSH1 0x40 MLOAD PUSH3 0x461BCD PUSH1 0xE5 SHL DUP2 MSTORE PUSH1 0x4 ADD PUSH2 0x524 SWAP1 PUSH2 0x17C7 JUMP JUMPDEST PUSH1 0x0 SLOAD PUSH1 0x1 PUSH1 0x1 PUSH1 0xA0 SHL SUB AND CALLER EQ PUSH2 0xABB JUMPI PUSH1 0x40 MLOAD PUSH3 0x461BCD PUSH1 0xE5 SHL DUP2 MSTORE PUSH1 0x4 ADD PUSH2 0x524 SWAP1 PUSH2 0x17F7 JUMP JUMPDEST PUSH1 0x0 JUMPDEST PUSH1 0xE SLOAD DUP2 LT ISZERO PUSH2 0x56A JUMPI DUP2 DUP1 MLOAD SWAP1 PUSH1 0x20 ADD KECCAK256 PUSH1 0xE DUP3 DUP2 SLOAD DUP2 LT PUSH2 0xAE3 JUMPI PUSH2 0xAE3 PUSH2 0x18AF JUMP JUMPDEST SWAP1 PUSH1 0x0 MSTORE PUSH1 0x20 PUSH1 0x0 KECCAK256 ADD PUSH1 0x40 MLOAD PUSH2 0xAFA SWAP2 SWAP1 PUSH2 0x18C5 JUMP JUMPDEST PUSH1 0x40 MLOAD DUP1 SWAP2 SUB SWAP1 KECCAK256 SUB PUSH2 0xC26 JUMPI PUSH1 0xE SLOAD PUSH1 0x0 SWAP1 PUSH2 0xB19 SWAP1 PUSH1 0x1 SWAP1 PUSH2 0x194D JUMP JUMPDEST PUSH1 0x1 SLOAD PUSH1 0xE DUP1 SLOAD SWAP3 SWAP4 POP PUSH1 0x1 PUSH1 0x1 PUSH1 0xA0 SHL SUB SWAP1 SWAP2 AND SWAP2 PUSH4 0x11357471 SWAP2 SWAP1 DUP6 SWAP1 DUP2 LT PUSH2 0xB46 JUMPI PUSH2 0xB46 PUSH2 0x18AF JUMP JUMPDEST SWAP1 PUSH1 0x0 MSTORE PUSH1 0x20 PUSH1 0x0 KECCAK256 ADD ADDRESS PUSH1 0x40 MLOAD DUP4 PUSH4 0xFFFFFFFF AND PUSH1 0xE0 SHL DUP2 MSTORE PUSH1 0x4 ADD PUSH2 0xB6E SWAP3 SWAP2 SWAP1 PUSH2 0x1964 JUMP JUMPDEST PUSH1 0x0 PUSH1 0x40 MLOAD DUP1 DUP4 SUB DUP2 PUSH1 0x0 DUP8 DUP1 EXTCODESIZE ISZERO DUP1 ISZERO PUSH2 0xB88 JUMPI PUSH1 0x0 DUP1 REVERT JUMPDEST POP GAS CALL ISZERO DUP1 ISZERO PUSH2 0xB9C JUMPI RETURNDATASIZE PUSH1 0x0 DUP1 RETURNDATACOPY RETURNDATASIZE PUSH1 0x0 REVERT JUMPDEST POP POP POP POP PUSH1 0xE DUP2 DUP2 SLOAD DUP2 LT PUSH2 0xBB3 JUMPI PUSH2 0xBB3 PUSH2 0x18AF JUMP JUMPDEST SWAP1 PUSH1 0x0 MSTORE PUSH1 0x20 PUSH1 0x0 KECCAK256 ADD PUSH1 0xE DUP4 DUP2 SLOAD DUP2 LT PUSH2 0xBD0 JUMPI PUSH2 0xBD0 PUSH2 0x18AF JUMP JUMPDEST SWAP1 PUSH1 0x0 MSTORE PUSH1 0x20 PUSH1 0x0 KECCAK256 ADD SWAP1 DUP1 SLOAD PUSH2 0xBE6 SWAP1 PUSH2 0x1858 JUMP JUMPDEST PUSH2 0xBF1 SWAP3 SWAP2 SWAP1 PUSH2 0x1453 JUMP JUMPDEST POP PUSH1 0xE DUP1 SLOAD DUP1 PUSH2 0xC03 JUMPI PUSH2 0xC03 PUSH2 0x19FE JUMP JUMPDEST PUSH1 0x1 SWAP1 SUB DUP2 DUP2 SWAP1 PUSH1 0x0 MSTORE PUSH1 0x20 PUSH1 0x0 KECCAK256 ADD PUSH1 0x0 PUSH2 0xC1F SWAP2 SWAP1 PUSH2 0x14CE JUMP JUMPDEST SWAP1 SSTORE POP POP POP JUMP JUMPDEST DUP1 PUSH2 0xC30 DUP2 PUSH2 0x1A14 JUMP JUMPDEST SWAP2 POP POP PUSH2 0xABE JUMP JUMPDEST PUSH1 0xD SLOAD PUSH1 0xFF AND ISZERO PUSH2 0xC5B JUMPI PUSH1 0x40 MLOAD PUSH3 0x461BCD PUSH1 0xE5 SHL DUP2 MSTORE PUSH1 0x4 ADD PUSH2 0x524 SWAP1 PUSH2 0x17C7 JUMP JUMPDEST PUSH1 0x0 SLOAD PUSH1 0x1 PUSH1 0x1 PUSH1 0xA0 SHL SUB AND CALLER EQ PUSH2 0xC85 JUMPI PUSH1 0x40 MLOAD PUSH3 0x461BCD PUSH1 0xE5 SHL DUP2 MSTORE PUSH1 0x4 ADD PUSH2 0x524 SWAP1 PUSH2 0x17F7 JUMP JUMPDEST PUSH1 0x0 JUMPDEST PUSH1 0xF SLOAD DUP2 LT ISZERO PUSH2 0x56A JUMPI DUP2 PUSH1 0xF DUP3 DUP2 SLOAD DUP2 LT PUSH2 0xCA6 JUMPI PUSH2 0xCA6 PUSH2 0x18AF JUMP JUMPDEST SWAP1 PUSH1 0x0 MSTORE PUSH1 0x20 PUSH1 0x0 KECCAK256 ADD SLOAD SUB PUSH2 0xD33 JUMPI PUSH1 0xF SLOAD PUSH1 0x0 SWAP1 PUSH2 0xCC8 SWAP1 PUSH1 0x1 SWAP1 PUSH2 0x194D JUMP JUMPDEST SWAP1 POP PUSH1 0xF DUP2 DUP2 SLOAD DUP2 LT PUSH2 0xCDD JUMPI PUSH2 0xCDD PUSH2 0x18AF JUMP JUMPDEST SWAP1 PUSH1 0x0 MSTORE PUSH1 0x20 PUSH1 0x0 KECCAK256 ADD SLOAD PUSH1 0xF DUP4 DUP2 SLOAD DUP2 LT PUSH2 0xCFB JUMPI PUSH2 0xCFB PUSH2 0x18AF JUMP JUMPDEST PUSH1 0x0 SWAP2 DUP3 MSTORE PUSH1 0x20 SWAP1 SWAP2 KECCAK256 ADD SSTORE PUSH1 0xF DUP1 SLOAD DUP1 PUSH2 0xD18 JUMPI PUSH2 0xD18 PUSH2 0x19FE JUMP JUMPDEST PUSH1 0x1 SWAP1 SUB DUP2 DUP2 SWAP1 PUSH1 0x0 MSTORE PUSH1 0x20 PUSH1 0x0 KECCAK256 ADD PUSH1 0x0 SWAP1 SSTORE SWAP1 SSTORE POP POP POP JUMP JUMPDEST DUP1 PUSH2 0xD3D DUP2 PUSH2 0x1A14 JUMP JUMPDEST SWAP2 POP POP PUSH2 0xC88 JUMP JUMPDEST PUSH1 0xD SLOAD PUSH1 0xFF AND ISZERO PUSH2 0xD68 JUMPI PUSH1 0x40 MLOAD PUSH3 0x461BCD PUSH1 0xE5 SHL DUP2 MSTORE PUSH1 0x4 ADD PUSH2 0x524 SWAP1 PUSH2 0x17C7 JUMP JUMPDEST ADDRESS PUSH1 0x1 PUSH1 0x1 PUSH1 0xA0 SHL SUB AND PUSH4 0x4EB2B29D PUSH1 0x40 MLOAD DUP2 PUSH4 0xFFFFFFFF AND PUSH1 0xE0 SHL DUP2 MSTORE PUSH1 0x4 ADD PUSH1 0x20 PUSH1 0x40 MLOAD DUP1 DUP4 SUB DUP2 DUP7 GAS STATICCALL ISZERO DUP1 ISZERO PUSH2 0xDA6 JUMPI RETURNDATASIZE PUSH1 0x0 DUP1 RETURNDATACOPY RETURNDATASIZE PUSH1 0x0 REVERT JUMPDEST POP POP POP POP PUSH1 0x40 MLOAD RETURNDATASIZE PUSH1 0x1F NOT PUSH1 0x1F DUP3 ADD AND DUP3 ADD DUP1 PUSH1 0x40 MSTORE POP DUP2 ADD SWAP1 PUSH2 0xDCA SWAP2 SWAP1 PUSH2 0x1892 JUMP JUMPDEST ISZERO ISZERO PUSH1 0x1 EQ DUP1 ISZERO PUSH2 0xDDB JUMPI POP PUSH1 0x0 SELFBALANCE GT JUMPDEST PUSH2 0xE46 JUMPI PUSH1 0x40 MLOAD PUSH3 0x461BCD PUSH1 0xE5 SHL DUP2 MSTORE PUSH1 0x20 PUSH1 0x4 DUP3 ADD MSTORE PUSH1 0x36 PUSH1 0x24 DUP3 ADD MSTORE PUSH32 0x50726F6A65637420686173206E6F74206661696C6564207965742C206F722064 PUSH1 0x44 DUP3 ADD MSTORE PUSH22 0x37B2B9B713BA103430BB329030B73C90333AB7323997 PUSH1 0x51 SHL PUSH1 0x64 DUP3 ADD MSTORE PUSH1 0x84 ADD PUSH2 0x524 JUMP JUMPDEST PUSH1 0x0 JUMPDEST PUSH1 0x2 SLOAD DUP2 LT ISZERO PUSH2 0x8E4 JUMPI PUSH1 0x2 DUP2 DUP2 SLOAD DUP2 LT PUSH2 0xE66 JUMPI PUSH2 0xE66 PUSH2 0x18AF JUMP JUMPDEST PUSH1 0x0 SWAP2 DUP3 MSTORE PUSH1 0x20 DUP3 KECCAK256 ADD SLOAD PUSH1 0x2 DUP1 SLOAD PUSH1 0x1 PUSH1 0x1 PUSH1 0xA0 SHL SUB SWAP1 SWAP3 AND SWAP3 PUSH2 0x8FC SWAP3 PUSH1 0x4 SWAP3 SWAP1 DUP7 SWAP1 DUP2 LT PUSH2 0xE99 JUMPI PUSH2 0xE99 PUSH2 0x18AF JUMP JUMPDEST PUSH1 0x0 SWAP2 DUP3 MSTORE PUSH1 0x20 DUP1 DUP4 KECCAK256 SWAP1 SWAP2 ADD SLOAD PUSH1 0x1 PUSH1 0x1 PUSH1 0xA0 SHL SUB AND DUP4 MSTORE DUP3 ADD SWAP3 SWAP1 SWAP3 MSTORE PUSH1 0x40 SWAP1 DUP2 ADD DUP3 KECCAK256 SLOAD SWAP1 MLOAD DUP2 ISZERO SWAP1 SWAP4 MUL SWAP3 SWAP1 SWAP2 DUP2 DUP2 DUP2 DUP6 DUP9 DUP9 CALL SWAP4 POP POP POP POP ISZERO DUP1 ISZERO PUSH2 0xEE7 JUMPI RETURNDATASIZE PUSH1 0x0 DUP1 RETURNDATACOPY RETURNDATASIZE PUSH1 0x0 REVERT JUMPDEST POP DUP1 PUSH2 0xEF2 DUP2 PUSH2 0x1A14 JUMP JUMPDEST SWAP2 POP POP PUSH2 0xE49 JUMP JUMPDEST PUSH1 0xF DUP2 DUP2 SLOAD DUP2 LT PUSH2 0xF0A JUMPI PUSH1 0x0 DUP1 REVERT JUMPDEST PUSH1 0x0 SWAP2 DUP3 MSTORE PUSH1 0x20 SWAP1 SWAP2 KECCAK256 ADD SLOAD SWAP1 POP DUP2 JUMP JUMPDEST PUSH1 0x8 SLOAD PUSH1 0x0 SWAP1 SELFBALANCE SWAP1 DUP2 LT PUSH2 0x9A7 JUMPI PUSH1 0x1 SWAP2 POP POP SWAP1 JUMP JUMPDEST PUSH1 0xE DUP2 DUP2 SLOAD DUP2 LT PUSH2 0xF41 JUMPI PUSH1 0x0 DUP1 REVERT JUMPDEST SWAP1 PUSH1 0x0 MSTORE PUSH1 0x20 PUSH1 0x0 KECCAK256 ADD PUSH1 0x0 SWAP2 POP SWAP1 POP DUP1 SLOAD PUSH2 0x901 SWAP1 PUSH2 0x1858 JUMP JUMPDEST PUSH1 0x6 DUP1 SLOAD PUSH2 0x901 SWAP1 PUSH2 0x1858 JUMP JUMPDEST PUSH1 0x60 DUP1 PUSH1 0x0 PUSH1 0x2 DUP1 SLOAD SWAP1 POP PUSH8 0xFFFFFFFFFFFFFFFF DUP2 GT ISZERO PUSH2 0xF8C JUMPI PUSH2 0xF8C PUSH2 0x1575 JUMP JUMPDEST PUSH1 0x40 MLOAD SWAP1 DUP1 DUP3 MSTORE DUP1 PUSH1 0x20 MUL PUSH1 0x20 ADD DUP3 ADD PUSH1 0x40 MSTORE DUP1 ISZERO PUSH2 0xFBF JUMPI DUP2 PUSH1 0x20 ADD JUMPDEST PUSH1 0x60 DUP2 MSTORE PUSH1 0x20 ADD SWAP1 PUSH1 0x1 SWAP1 SUB SWAP1 DUP2 PUSH2 0xFAA JUMPI SWAP1 POP JUMPDEST POP PUSH1 0x2 SLOAD SWAP1 SWAP2 POP PUSH1 0x0 SWAP1 PUSH8 0xFFFFFFFFFFFFFFFF DUP2 GT ISZERO PUSH2 0xFE1 JUMPI PUSH2 0xFE1 PUSH2 0x1575 JUMP JUMPDEST PUSH1 0x40 MLOAD SWAP1 DUP1 DUP3 MSTORE DUP1 PUSH1 0x20 MUL PUSH1 0x20 ADD DUP3 ADD PUSH1 0x40 MSTORE DUP1 ISZERO PUSH2 0x100A JUMPI DUP2 PUSH1 0x20 ADD PUSH1 0x20 DUP3 MUL DUP1 CALLDATASIZE DUP4 CALLDATACOPY ADD SWAP1 POP JUMPDEST POP SWAP1 POP PUSH1 0x0 JUMPDEST PUSH1 0x2 SLOAD DUP2 LT ISZERO PUSH2 0x1168 JUMPI PUSH1 0x5 PUSH1 0x0 PUSH1 0x2 DUP4 DUP2 SLOAD DUP2 LT PUSH2 0x1031 JUMPI PUSH2 0x1031 PUSH2 0x18AF JUMP JUMPDEST PUSH1 0x0 SWAP2 DUP3 MSTORE PUSH1 0x20 DUP1 DUP4 KECCAK256 SWAP1 SWAP2 ADD SLOAD PUSH1 0x1 PUSH1 0x1 PUSH1 0xA0 SHL SUB AND DUP4 MSTORE DUP3 ADD SWAP3 SWAP1 SWAP3 MSTORE PUSH1 0x40 ADD SWAP1 KECCAK256 DUP1 SLOAD PUSH2 0x1060 SWAP1 PUSH2 0x1858 JUMP JUMPDEST DUP1 PUSH1 0x1F ADD PUSH1 0x20 DUP1 SWAP2 DIV MUL PUSH1 0x20 ADD PUSH1 0x40 MLOAD SWAP1 DUP2 ADD PUSH1 0x40 MSTORE DUP1 SWAP3 SWAP2 SWAP1 DUP2 DUP2 MSTORE PUSH1 0x20 ADD DUP3 DUP1 SLOAD PUSH2 0x108C SWAP1 PUSH2 0x1858 JUMP JUMPDEST DUP1 ISZERO PUSH2 0x10D9 JUMPI DUP1 PUSH1 0x1F LT PUSH2 0x10AE JUMPI PUSH2 0x100 DUP1 DUP4 SLOAD DIV MUL DUP4 MSTORE SWAP2 PUSH1 0x20 ADD SWAP2 PUSH2 0x10D9 JUMP JUMPDEST DUP3 ADD SWAP2 SWAP1 PUSH1 0x0 MSTORE PUSH1 0x20 PUSH1 0x0 KECCAK256 SWAP1 JUMPDEST DUP2 SLOAD DUP2 MSTORE SWAP1 PUSH1 0x1 ADD SWAP1 PUSH1 0x20 ADD DUP1 DUP4 GT PUSH2 0x10BC JUMPI DUP3 SWAP1 SUB PUSH1 0x1F AND DUP3 ADD SWAP2 JUMPDEST POP POP POP POP POP DUP4 DUP3 DUP2 MLOAD DUP2 LT PUSH2 0x10F0 JUMPI PUSH2 0x10F0 PUSH2 0x18AF JUMP JUMPDEST PUSH1 0x20 MUL PUSH1 0x20 ADD ADD DUP2 SWAP1 MSTORE POP PUSH1 0x4 PUSH1 0x0 PUSH1 0x2 DUP4 DUP2 SLOAD DUP2 LT PUSH2 0x1112 JUMPI PUSH2 0x1112 PUSH2 0x18AF JUMP JUMPDEST PUSH1 0x0 SWAP2 DUP3 MSTORE PUSH1 0x20 DUP1 DUP4 KECCAK256 SWAP1 SWAP2 ADD SLOAD PUSH1 0x1 PUSH1 0x1 PUSH1 0xA0 SHL SUB AND DUP4 MSTORE DUP3 ADD SWAP3 SWAP1 SWAP3 MSTORE PUSH1 0x40 ADD SWAP1 KECCAK256 SLOAD DUP3 MLOAD DUP4 SWAP1 DUP4 SWAP1 DUP2 LT PUSH2 0x114B JUMPI PUSH2 0x114B PUSH2 0x18AF JUMP JUMPDEST PUSH1 0x20 SWAP1 DUP2 MUL SWAP2 SWAP1 SWAP2 ADD ADD MSTORE DUP1 PUSH2 0x1160 DUP2 PUSH2 0x1A14 JUMP JUMPDEST SWAP2 POP POP PUSH2 0x1010 JUMP JUMPDEST POP SWAP1 SWAP4 SWAP1 SWAP3 POP SWAP1 POP JUMP JUMPDEST PUSH1 0xD SLOAD PUSH1 0xFF AND ISZERO PUSH2 0x1195 JUMPI PUSH1 0x40 MLOAD PUSH3 0x461BCD PUSH1 0xE5 SHL DUP2 MSTORE PUSH1 0x4 ADD PUSH2 0x524 SWAP1 PUSH2 0x17C7 JUMP JUMPDEST PUSH1 0x0 SLOAD PUSH1 0x1 PUSH1 0x1 PUSH1 0xA0 SHL SUB AND CALLER EQ PUSH2 0x11BF JUMPI PUSH1 0x40 MLOAD PUSH3 0x461BCD PUSH1 0xE5 SHL DUP2 MSTORE PUSH1 0x4 ADD PUSH2 0x524 SWAP1 PUSH2 0x17F7 JUMP JUMPDEST PUSH1 0xF DUP1 SLOAD PUSH1 0x1 DUP2 ADD DUP3 SSTORE PUSH1 0x0 SWAP2 SWAP1 SWAP2 MSTORE PUSH32 0x8D1108E10BCB7C27DDDFC02ED9D693A074039D026CF4EA4240B40F7D581AC802 ADD SSTORE JUMP JUMPDEST PUSH1 0xD SLOAD PUSH1 0xFF AND ISZERO PUSH2 0x1217 JUMPI PUSH1 0x40 MLOAD PUSH3 0x461BCD PUSH1 0xE5 SHL DUP2 MSTORE PUSH1 0x4 ADD PUSH2 0x524 SWAP1 PUSH2 0x17C7 JUMP JUMPDEST ADDRESS PUSH1 0x1 PUSH1 0x1 PUSH1 0xA0 SHL SUB AND PUSH4 0x4EB2B29D PUSH1 0x40 MLOAD DUP2 PUSH4 0xFFFFFFFF AND PUSH1 0xE0 SHL DUP2 MSTORE PUSH1 0x4 ADD PUSH1 0x20 PUSH1 0x40 MLOAD DUP1 DUP4 SUB DUP2 DUP7 GAS STATICCALL ISZERO DUP1 ISZERO PUSH2 0x1255 JUMPI RETURNDATASIZE PUSH1 0x0 DUP1 RETURNDATACOPY RETURNDATASIZE PUSH1 0x0 REVERT JUMPDEST POP POP POP POP PUSH1 0x40 MLOAD RETURNDATASIZE PUSH1 0x1F NOT PUSH1 0x1F DUP3 ADD AND DUP3 ADD DUP1 PUSH1 0x40 MSTORE POP DUP2 ADD SWAP1 PUSH2 0x1279 SWAP2 SWAP1 PUSH2 0x1892 JUMP JUMPDEST ISZERO PUSH2 0x12C6 JUMPI PUSH1 0x40 MLOAD PUSH3 0x461BCD PUSH1 0xE5 SHL DUP2 MSTORE PUSH1 0x20 PUSH1 0x4 DUP3 ADD MSTORE PUSH1 0x18 PUSH1 0x24 DUP3 ADD MSTORE PUSH32 0x546869732070726F6A65637420776173206661696C65642E0000000000000000 PUSH1 0x44 DUP3 ADD MSTORE PUSH1 0x64 ADD PUSH2 0x524 JUMP JUMPDEST CALLER PUSH1 0x0 SWAP1 DUP2 MSTORE PUSH1 0x4 PUSH1 0x20 MSTORE PUSH1 0x40 DUP2 KECCAK256 DUP1 SLOAD CALLVALUE SWAP3 SWAP1 PUSH2 0x12E5 SWAP1 DUP5 SWAP1 PUSH2 0x1A2D JUMP JUMPDEST SWAP1 SWAP2 SSTORE POP POP CALLER PUSH1 0x0 SWAP1 DUP2 MSTORE PUSH1 0x3 PUSH1 0x20 MSTORE PUSH1 0x40 SWAP1 KECCAK256 SLOAD PUSH1 0xFF AND PUSH2 0x135C JUMPI PUSH1 0x2 DUP1 SLOAD PUSH1 0x1 DUP2 DUP2 ADD SWAP1 SWAP3 SSTORE PUSH32 0x405787FA12A823E0F2B7631CC41B3BA8828B3321CA811111FA75CD3AA3BB5ACE ADD DUP1 SLOAD PUSH1 0x1 PUSH1 0x1 PUSH1 0xA0 SHL SUB NOT AND CALLER SWAP1 DUP2 OR SWAP1 SWAP2 SSTORE PUSH1 0x0 SWAP1 DUP2 MSTORE PUSH1 0x3 PUSH1 0x20 MSTORE PUSH1 0x40 SWAP1 KECCAK256 DUP1 SLOAD PUSH1 0xFF NOT AND SWAP1 SWAP2 OR SWAP1 SSTORE JUMPDEST DUP1 ISZERO PUSH2 0x13A5 JUMPI PUSH1 0x40 DUP1 MLOAD DUP1 DUP3 ADD DUP3 MSTORE PUSH1 0x9 DUP2 MSTORE PUSH9 0x416E6F6E796D6F7573 PUSH1 0xB8 SHL PUSH1 0x20 DUP1 DUP4 ADD SWAP2 DUP3 MSTORE CALLER PUSH1 0x0 SWAP1 DUP2 MSTORE PUSH1 0x5 SWAP1 SWAP2 MSTORE SWAP3 SWAP1 SWAP3 KECCAK256 SWAP1 MLOAD PUSH2 0x139F SWAP3 SWAP1 PUSH2 0x13CF JUMP JUMPDEST POP PUSH2 0x13C7 JUMP JUMPDEST CALLER PUSH1 0x0 SWAP1 DUP2 MSTORE PUSH1 0x5 PUSH1 0x20 SWAP1 DUP2 MSTORE PUSH1 0x40 SWAP1 SWAP2 KECCAK256 DUP4 MLOAD PUSH2 0x13C5 SWAP3 DUP6 ADD SWAP1 PUSH2 0x13CF JUMP JUMPDEST POP JUMPDEST POP POP SELFBALANCE PUSH1 0xA SSTORE JUMP JUMPDEST DUP3 DUP1 SLOAD PUSH2 0x13DB SWAP1 PUSH2 0x1858 JUMP JUMPDEST SWAP1 PUSH1 0x0 MSTORE PUSH1 0x20 PUSH1 0x0 KECCAK256 SWAP1 PUSH1 0x1F ADD PUSH1 0x20 SWAP1 DIV DUP2 ADD SWAP3 DUP3 PUSH2 0x13FD JUMPI PUSH1 0x0 DUP6 SSTORE PUSH2 0x1443 JUMP JUMPDEST DUP3 PUSH1 0x1F LT PUSH2 0x1416 JUMPI DUP1 MLOAD PUSH1 0xFF NOT AND DUP4 DUP1 ADD OR DUP6 SSTORE PUSH2 0x1443 JUMP JUMPDEST DUP3 DUP1 ADD PUSH1 0x1 ADD DUP6 SSTORE DUP3 ISZERO PUSH2 0x1443 JUMPI SWAP2 DUP3 ADD JUMPDEST DUP3 DUP2 GT ISZERO PUSH2 0x1443 JUMPI DUP3 MLOAD DUP3 SSTORE SWAP2 PUSH1 0x20 ADD SWAP2 SWAP1 PUSH1 0x1 ADD SWAP1 PUSH2 0x1428 JUMP JUMPDEST POP PUSH2 0x144F SWAP3 SWAP2 POP PUSH2 0x150B JUMP JUMPDEST POP SWAP1 JUMP JUMPDEST DUP3 DUP1 SLOAD PUSH2 0x145F SWAP1 PUSH2 0x1858 JUMP JUMPDEST SWAP1 PUSH1 0x0 MSTORE PUSH1 0x20 PUSH1 0x0 KECCAK256 SWAP1 PUSH1 0x1F ADD PUSH1 0x20 SWAP1 DIV DUP2 ADD SWAP3 DUP3 PUSH2 0x1481 JUMPI PUSH1 0x0 DUP6 SSTORE PUSH2 0x1443 JUMP JUMPDEST DUP3 PUSH1 0x1F LT PUSH2 0x1492 JUMPI DUP1 SLOAD DUP6 SSTORE PUSH2 0x1443 JUMP JUMPDEST DUP3 DUP1 ADD PUSH1 0x1 ADD DUP6 SSTORE DUP3 ISZERO PUSH2 0x1443 JUMPI PUSH1 0x0 MSTORE PUSH1 0x20 PUSH1 0x0 KECCAK256 SWAP2 PUSH1 0x1F ADD PUSH1 0x20 SWAP1 DIV DUP3 ADD JUMPDEST DUP3 DUP2 GT ISZERO PUSH2 0x1443 JUMPI DUP3 SLOAD DUP3 SSTORE SWAP2 PUSH1 0x1 ADD SWAP2 SWAP1 PUSH1 0x1 ADD SWAP1 PUSH2 0x14B3 JUMP JUMPDEST POP DUP1 SLOAD PUSH2 0x14DA SWAP1 PUSH2 0x1858 JUMP JUMPDEST PUSH1 0x0 DUP3 SSTORE DUP1 PUSH1 0x1F LT PUSH2 0x14EA JUMPI POP POP JUMP JUMPDEST PUSH1 0x1F ADD PUSH1 0x20 SWAP1 DIV SWAP1 PUSH1 0x0 MSTORE PUSH1 0x20 PUSH1 0x0 KECCAK256 SWAP1 DUP2 ADD SWAP1 PUSH2 0x1508 SWAP2 SWAP1 PUSH2 0x150B JUMP JUMPDEST POP JUMP JUMPDEST JUMPDEST DUP1 DUP3 GT ISZERO PUSH2 0x144F JUMPI PUSH1 0x0 DUP2 SSTORE PUSH1 0x1 ADD PUSH2 0x150C JUMP JUMPDEST PUSH1 0x0 DUP2 MLOAD DUP1 DUP5 MSTORE PUSH1 0x20 DUP1 DUP6 ADD SWAP5 POP DUP1 DUP5 ADD PUSH1 0x0 JUMPDEST DUP4 DUP2 LT ISZERO PUSH2 0x1550 JUMPI DUP2 MLOAD DUP8 MSTORE SWAP6 DUP3 ADD SWAP6 SWAP1 DUP3 ADD SWAP1 PUSH1 0x1 ADD PUSH2 0x1534 JUMP JUMPDEST POP SWAP5 SWAP6 SWAP5 POP POP POP POP POP JUMP JUMPDEST PUSH1 0x20 DUP2 MSTORE PUSH1 0x0 PUSH2 0x156E PUSH1 0x20 DUP4 ADD DUP5 PUSH2 0x1520 JUMP JUMPDEST SWAP4 SWAP3 POP POP POP JUMP JUMPDEST PUSH4 0x4E487B71 PUSH1 0xE0 SHL PUSH1 0x0 MSTORE PUSH1 0x41 PUSH1 0x4 MSTORE PUSH1 0x24 PUSH1 0x0 REVERT JUMPDEST PUSH1 0x0 DUP3 PUSH1 0x1F DUP4 ADD SLT PUSH2 0x159C JUMPI PUSH1 0x0 DUP1 REVERT JUMPDEST DUP2 CALLDATALOAD PUSH8 0xFFFFFFFFFFFFFFFF DUP1 DUP3 GT ISZERO PUSH2 0x15B7 JUMPI PUSH2 0x15B7 PUSH2 0x1575 JUMP JUMPDEST PUSH1 0x40 MLOAD PUSH1 0x1F DUP4 ADD PUSH1 0x1F NOT SWAP1 DUP2 AND PUSH1 0x3F ADD AND DUP2 ADD SWAP1 DUP3 DUP3 GT DUP2 DUP4 LT OR ISZERO PUSH2 0x15DF JUMPI PUSH2 0x15DF PUSH2 0x1575 JUMP JUMPDEST DUP2 PUSH1 0x40 MSTORE DUP4 DUP2 MSTORE DUP7 PUSH1 0x20 DUP6 DUP9 ADD ADD GT ISZERO PUSH2 0x15F8 JUMPI PUSH1 0x0 DUP1 REVERT JUMPDEST DUP4 PUSH1 0x20 DUP8 ADD PUSH1 0x20 DUP4 ADD CALLDATACOPY PUSH1 0x0 PUSH1 0x20 DUP6 DUP4 ADD ADD MSTORE DUP1 SWAP5 POP POP POP POP POP SWAP3 SWAP2 POP POP JUMP JUMPDEST PUSH1 0x0 PUSH1 0x20 DUP3 DUP5 SUB SLT ISZERO PUSH2 0x162A JUMPI PUSH1 0x0 DUP1 REVERT JUMPDEST DUP2 CALLDATALOAD PUSH8 0xFFFFFFFFFFFFFFFF DUP2 GT ISZERO PUSH2 0x1641 JUMPI PUSH1 0x0 DUP1 REVERT JUMPDEST PUSH2 0x164D DUP5 DUP3 DUP6 ADD PUSH2 0x158B JUMP JUMPDEST SWAP5 SWAP4 POP POP POP POP JUMP JUMPDEST PUSH1 0x0 DUP2 MLOAD DUP1 DUP5 MSTORE PUSH1 0x0 JUMPDEST DUP2 DUP2 LT ISZERO PUSH2 0x167B JUMPI PUSH1 0x20 DUP2 DUP6 ADD DUP2 ADD MLOAD DUP7 DUP4 ADD DUP3 ADD MSTORE ADD PUSH2 0x165F JUMP JUMPDEST DUP2 DUP2 GT ISZERO PUSH2 0x168D JUMPI PUSH1 0x0 PUSH1 0x20 DUP4 DUP8 ADD ADD MSTORE JUMPDEST POP PUSH1 0x1F ADD PUSH1 0x1F NOT AND SWAP3 SWAP1 SWAP3 ADD PUSH1 0x20 ADD SWAP3 SWAP2 POP POP JUMP JUMPDEST PUSH1 0x0 DUP3 DUP3 MLOAD DUP1 DUP6 MSTORE PUSH1 0x20 DUP1 DUP7 ADD SWAP6 POP DUP1 DUP3 PUSH1 0x5 SHL DUP5 ADD ADD DUP2 DUP7 ADD PUSH1 0x0 JUMPDEST DUP5 DUP2 LT ISZERO PUSH2 0x16ED JUMPI PUSH1 0x1F NOT DUP7 DUP5 SUB ADD DUP10 MSTORE PUSH2 0x16DB DUP4 DUP4 MLOAD PUSH2 0x1655 JUMP JUMPDEST SWAP9 DUP5 ADD SWAP9 SWAP3 POP SWAP1 DUP4 ADD SWAP1 PUSH1 0x1 ADD PUSH2 0x16BF JUMP JUMPDEST POP SWAP1 SWAP8 SWAP7 POP POP POP POP POP POP POP JUMP JUMPDEST PUSH1 0x20 DUP2 MSTORE PUSH1 0x0 PUSH2 0x156E PUSH1 0x20 DUP4 ADD DUP5 PUSH2 0x16A2 JUMP JUMPDEST PUSH1 0x20 DUP2 MSTORE PUSH1 0x0 PUSH2 0x156E PUSH1 0x20 DUP4 ADD DUP5 PUSH2 0x1655 JUMP JUMPDEST PUSH1 0x0 PUSH1 0x20 DUP3 DUP5 SUB SLT ISZERO PUSH2 0x1732 JUMPI PUSH1 0x0 DUP1 REVERT JUMPDEST POP CALLDATALOAD SWAP2 SWAP1 POP JUMP JUMPDEST PUSH1 0x40 DUP2 MSTORE PUSH1 0x0 PUSH2 0x174C PUSH1 0x40 DUP4 ADD DUP6 PUSH2 0x16A2 JUMP JUMPDEST DUP3 DUP2 SUB PUSH1 0x20 DUP5 ADD MSTORE PUSH2 0x175E DUP2 DUP6 PUSH2 0x1520 JUMP JUMPDEST SWAP6 SWAP5 POP POP POP POP POP JUMP JUMPDEST DUP1 ISZERO ISZERO DUP2 EQ PUSH2 0x1508 JUMPI PUSH1 0x0 DUP1 REVERT JUMPDEST PUSH1 0x0 DUP1 PUSH1 0x40 DUP4 DUP6 SUB SLT ISZERO PUSH2 0x1788 JUMPI PUSH1 0x0 DUP1 REVERT JUMPDEST DUP3 CALLDATALOAD PUSH8 0xFFFFFFFFFFFFFFFF DUP2 GT ISZERO PUSH2 0x179F JUMPI PUSH1 0x0 DUP1 REVERT JUMPDEST PUSH2 0x17AB DUP6 DUP3 DUP7 ADD PUSH2 0x158B JUMP JUMPDEST SWAP3 POP POP PUSH1 0x20 DUP4 ADD CALLDATALOAD PUSH2 0x17BC DUP2 PUSH2 0x1767 JUMP JUMPDEST DUP1 SWAP2 POP POP SWAP3 POP SWAP3 SWAP1 POP JUMP JUMPDEST PUSH1 0x20 DUP1 DUP3 MSTORE PUSH1 0x16 SWAP1 DUP3 ADD MSTORE PUSH22 0x2A3434B990383937B532B1BA1034B99031B637B9B297 PUSH1 0x51 SHL PUSH1 0x40 DUP3 ADD MSTORE PUSH1 0x60 ADD SWAP1 JUMP JUMPDEST PUSH1 0x20 DUP1 DUP3 MSTORE PUSH1 0x17 SWAP1 DUP3 ADD MSTORE PUSH32 0x4E656564206F776E6572207065726D697373696F6E732E000000000000000000 PUSH1 0x40 DUP3 ADD MSTORE PUSH1 0x60 ADD SWAP1 JUMP JUMPDEST PUSH1 0x40 DUP2 MSTORE PUSH1 0x0 PUSH2 0x1841 PUSH1 0x40 DUP4 ADD DUP6 PUSH2 0x1655 JUMP JUMPDEST SWAP1 POP PUSH1 0x1 DUP1 PUSH1 0xA0 SHL SUB DUP4 AND PUSH1 0x20 DUP4 ADD MSTORE SWAP4 SWAP3 POP POP POP JUMP JUMPDEST PUSH1 0x1 DUP2 DUP2 SHR SWAP1 DUP3 AND DUP1 PUSH2 0x186C JUMPI PUSH1 0x7F DUP3 AND SWAP2 POP JUMPDEST PUSH1 0x20 DUP3 LT DUP2 SUB PUSH2 0x188C JUMPI PUSH4 0x4E487B71 PUSH1 0xE0 SHL PUSH1 0x0 MSTORE PUSH1 0x22 PUSH1 0x4 MSTORE PUSH1 0x24 PUSH1 0x0 REVERT JUMPDEST POP SWAP2 SWAP1 POP JUMP JUMPDEST PUSH1 0x0 PUSH1 0x20 DUP3 DUP5 SUB SLT ISZERO PUSH2 0x18A4 JUMPI PUSH1 0x0 DUP1 REVERT JUMPDEST DUP2 MLOAD PUSH2 0x156E DUP2 PUSH2 0x1767 JUMP JUMPDEST PUSH4 0x4E487B71 PUSH1 0xE0 SHL PUSH1 0x0 MSTORE PUSH1 0x32 PUSH1 0x4 MSTORE PUSH1 0x24 PUSH1 0x0 REVERT JUMPDEST PUSH1 0x0 DUP1 DUP4 SLOAD PUSH2 0x18D3 DUP2 PUSH2 0x1858 JUMP JUMPDEST PUSH1 0x1 DUP3 DUP2 AND DUP1 ISZERO PUSH2 0x18EB JUMPI PUSH1 0x1 DUP2 EQ PUSH2 0x18FC JUMPI PUSH2 0x192B JUMP JUMPDEST PUSH1 0xFF NOT DUP5 AND DUP8 MSTORE DUP3 DUP8 ADD SWAP5 POP PUSH2 0x192B JUMP JUMPDEST DUP8 PUSH1 0x0 MSTORE PUSH1 0x20 DUP1 PUSH1 0x0 KECCAK256 PUSH1 0x0 JUMPDEST DUP6 DUP2 LT ISZERO PUSH2 0x1922 JUMPI DUP2 SLOAD DUP11 DUP3 ADD MSTORE SWAP1 DUP5 ADD SWAP1 DUP3 ADD PUSH2 0x1909 JUMP JUMPDEST POP POP POP DUP3 DUP8 ADD SWAP5 POP JUMPDEST POP SWAP3 SWAP7 SWAP6 POP POP POP POP POP POP JUMP JUMPDEST PUSH4 0x4E487B71 PUSH1 0xE0 SHL PUSH1 0x0 MSTORE PUSH1 0x11 PUSH1 0x4 MSTORE PUSH1 0x24 PUSH1 0x0 REVERT JUMPDEST PUSH1 0x0 DUP3 DUP3 LT ISZERO PUSH2 0x195F JUMPI PUSH2 0x195F PUSH2 0x1937 JUMP JUMPDEST POP SUB SWAP1 JUMP JUMPDEST PUSH1 0x40 DUP2 MSTORE PUSH1 0x0 DUP1 DUP5 SLOAD PUSH2 0x1976 DUP2 PUSH2 0x1858 JUMP JUMPDEST DUP1 PUSH1 0x40 DUP7 ADD MSTORE PUSH1 0x60 PUSH1 0x1 DUP1 DUP5 AND PUSH1 0x0 DUP2 EQ PUSH2 0x1998 JUMPI PUSH1 0x1 DUP2 EQ PUSH2 0x19AC JUMPI PUSH2 0x19DD JUMP JUMPDEST PUSH1 0xFF NOT DUP6 AND DUP9 DUP5 ADD MSTORE PUSH1 0x80 DUP9 ADD SWAP6 POP PUSH2 0x19DD JUMP JUMPDEST DUP10 PUSH1 0x0 MSTORE PUSH1 0x20 DUP1 PUSH1 0x0 KECCAK256 PUSH1 0x0 JUMPDEST DUP7 DUP2 LT ISZERO PUSH2 0x19D4 JUMPI DUP2 SLOAD DUP12 DUP3 ADD DUP8 ADD MSTORE SWAP1 DUP5 ADD SWAP1 DUP3 ADD PUSH2 0x19B9 JUMP JUMPDEST DUP11 ADD DUP6 ADD SWAP8 POP POP POP JUMPDEST POP POP POP POP PUSH1 0x1 PUSH1 0x1 PUSH1 0xA0 SHL SUB SWAP5 SWAP1 SWAP5 AND PUSH1 0x20 SWAP4 SWAP1 SWAP4 ADD SWAP3 SWAP1 SWAP3 MSTORE POP SWAP3 SWAP2 POP POP JUMP JUMPDEST PUSH4 0x4E487B71 PUSH1 0xE0 SHL PUSH1 0x0 MSTORE PUSH1 0x31 PUSH1 0x4 MSTORE PUSH1 0x24 PUSH1 0x0 REVERT JUMPDEST PUSH1 0x0 PUSH1 0x1 DUP3 ADD PUSH2 0x1A26 JUMPI PUSH2 0x1A26 PUSH2 0x1937 JUMP JUMPDEST POP PUSH1 0x1 ADD SWAP1 JUMP JUMPDEST PUSH1 0x0 DUP3 NOT DUP3 GT ISZERO PUSH2 0x1A40 JUMPI PUSH2 0x1A40 PUSH2 0x1937 JUMP JUMPDEST POP ADD SWAP1 JUMP INVALID LOG2 PUSH5 0x6970667358 0x22 SLT KECCAK256 0xBD PC DUP9 LT SUB PUSH27 0x6F2F3ABCB7A51F6723153A1112D8524F5192A324A005877DC8BD64 PUSH20 0x6F6C634300080E0033A2646970667358221220A6 SLOAD 0xAE 0xEB 0xDD DUP14 SWAP9 LOG4 EXTCODEHASH RETURN 0xA5 0xED RETURNDATASIZE PUSH12 0x93FD1BD4AE047CD4B5AD3680 ORIGIN 0x2D SWAP15 0xE6 MULMOD XOR PUSH5 0x736F6C6343 STOP ADDMOD 0xE STOP CALLER ","sha1":"5ae6cf2b36327aa523159e7a75fb279a33904b8f","source":"// SPDX-License-Identifier: MIT\n\npragma solidity ^0.8.13;\n\nimport './Project.sol';\nimport '../interfaces/CrowdfundingWithTypes.sol';\n\ncontract Crowdfunding is CrowdfundingWithTypes{\n    address[] users;\n    address[] projects;\n    mapping(address=>address[]) user_to_projects;\n    mapping(string=>address[]) type_to_projects;\n\n    /* \n     * this is a types set.\n     * we'll use it to update and get all types.\n    */\n    struct TypesSet{\n        string[] types;\n        mapping(string=>bool) is_exists;\n    }\n    TypesSet types_set;\n\n    function update_types(string[] memory types_from_user) private{\n        /* \n         * this function will update the app's types pool\n         * with the user's types sent to the new project.\n         * uses TypesSet struct in order to update in more efficient way.\n        */\n        for(uint i=0; i<types_from_user.length; i++){\n            string memory new_type = types_from_user[i];\n            if (!types_set.is_exists[new_type]) {\n                types_set.types.push(new_type);\n                types_set.is_exists[new_type] = true;\n            }\n        }\n    }\n\n    function create_new_project(\n        string memory name,\n        string memory desc,\n        uint256 target,\n        uint256 end_date,\n        string memory image_add,\n        string[] memory types_arr,\n        uint256[] memory amounts_to_donate) public returns(address){\n        /* \n         * this is a project factory function\n         * flow:\n         * - create new project.\n         * - add the new user to users list and add the new project to mappings.\n         * - update the new types to our types pool.\n        */\n        \n        // create new project with given parameters\n        Project new_project = new Project(\n            msg.sender,\n            name,\n            desc,\n            target, \n            end_date, \n            image_add,\n            types_arr,\n            amounts_to_donate,\n            address(this));\n\n        // add the user to users list\n        users.push(msg.sender);\n\n        // push new project to relevant mappings and array\n        projects.push(address(new_project));\n        user_to_projects[msg.sender].push(address(new_project));\n\n        for(uint i=0; i < types_arr.length; i++){\n            type_to_projects[types_arr[i]].push(address(new_project));\n        }\n\n        // update types from user into app's types.\n        update_types(types_arr);\n\n        return address(new_project);\n    }\n\n    function get_projects_by_type(string memory project_type) public view \n    returns(address[] memory){\n\n        return type_to_projects[project_type];\n    }\n\n    function get_projects_by_user() public view \n    returns(address[] memory){\n\n        return user_to_projects[msg.sender];\n    }\n\n    function get_all_projects() public view \n    returns(address[] memory){\n\n        return projects;\n    }\n\n    function add_project_to_type_mapping(string memory project_type, \n    address project_add) external{\n        /* \n         * this function will be activate by a project when owner add type\n         * to his project.\n        */\n        type_to_projects[project_type].push(project_add);\n        \n        string[] memory temp_arr = new string[](1);\n        temp_arr[0] = project_type;\n        update_types(temp_arr);\n    }\n\n    function remove_project_from_type_mapping(string memory project_type, \n    address project_add) external{\n        /* \n         * this function will be activate by a project when owner remove type\n         * from his project.\n        */\n        for(uint i=0; i<type_to_projects[project_type].length; i++){\n            if(type_to_projects[project_type][i] == project_add){\n                uint256 last_index = type_to_projects[project_type].length - 1;\n                type_to_projects[project_type][i] = type_to_projects[project_type][last_index];\n                type_to_projects[project_type].pop();\n                break;\n            }\n        }\n    }\n\n    function get_all_types() public view returns(string[] memory){\n        /* \n         * this function will return all the types in our main app.\n         * the frontend will use it to enable filtering by type.\n        */\n        return types_set.types;\n    }\n}","sourcePath":"contracts/Crowdfunding.sol","deployment":{"address":"0x559Ab353210b80d1AA41F6E794616C0235170213","chainid":"4","blockHeight":10759356}}